:020000040000FA
:06000000020A890202055C
:03002B00020815B3
:0300530002013473
:1000830002019601010020FD00020612FFFFB801E4
:10009300089F0E000000015D1169110000000000BF
:1000A30000000000000000000000001020202020BD
:1000B30020202020202020202020202001080401AF
:1000C30000000002728101B6810101010400E70E04
:1000D300000000581B0000FFFF3B0F581B0000648B
:1000E300006400B801A0BB0D00A0BB0D000202001C
:1000F3000800000502070401051E02051E020A0A84
:1001030001080803B80B02803E0102FEFFE8030A60
:10011300050001FFFF020A1401E005030101FF5E70
:100123002200000000322100000000FF000000FF59
:1001330000C0E074F1120484A2AFE433F509D2AF36
:1001430085A708AFA1EF5508FE74105E6006120B79
:10015300B175A1EF74085E6008120BB775A1F78043
:1001630024EFA2E092F0E508A2E082F0501790613C
:1001730098E0F8900349E0C398A2D265D0335002C7
:10018300E8F075A1FE751A00E509A2E092AF7F02BF
:100193000204E3C0E074F2120484A2AFE433FED29B
:1001A300AF9061A4E0F8759B00E59158540860088E
:1001B3007591F7120BFF8023E59158541060087571
:1001C30091EF120C058014E591A2E092F0E8A2E011
:1001D30082F05007E0C2E0F0120D5B9061A3E0F8FB
:1001E300E5E9585404600E120D3175E9FB906193F3
:1001F300E0A2E640F2751A00EEA2E092AF7F0102A0
:1002030004E3C0E074F2120484A2AFE433FED2AF7D
:100213009061A5E0F8E5BF585404600675BFFB1272
:100223000D7380D1C3E498F8E499F912026880262B
:10023300C3E49AFAE49BFBE920E7E9120268E49835
:10024300F8E499F922C3E498F8E499F9120268E40E
:1002530098F8E499F9C3E49AFAE49BFB22EB20E7CC
:10026300CFE920E7E0B90010BB0008E88AF084F882
:10027300AAF022E4FBC8FA22EB70227B10C833C831
:10028300C933C9335007C39AC3DBF280069A5001BE
:100293002ADBEAC833F4C8C933F4C9FA2275F00873
:1002A300E4C833C8C933C933C99AC99B5004C92A9E
:1002B300C93BD5F0ECFBC833F4C8E4C9FA220808FB
:1002C30008EAC0E0EBC0E086F0E7A4FA180986F07C
:1002D300E7A42AFA180986F0E7A42AFA180986F08F
:1002E300E7A42AFA1986F0E7A4FBE5F02AFA19082D
:1002F30086F0E7A42BFBE5F03AFA190886F0E7A4A9
:100303002BFBE5F03AFA18180986F0E7A4C5F02BA1
:10031300FBE43AFA1908E7C5F0C6A426F6E5F03B74
:10032300FBE43AFA1886F0E7A4F6E5F00826F6E4CB
:100333003B08F6E43A08F6D0E0FBD0E0FA22E4CF3B
:10034300C0E0E4CEC0E0E4CDC0E0E4CCC0E075F0B2
:1003530020E626F608E633F608E633F608E633F633
:10036300181818EC33FCED33FDEE33FEEF33FFC307
:10037300EC9709ED9709EE9709EF97191919400FB3
:10038300FFEC97FC09ED97FD09EE97FE191906D5C9
:10039300F0BFECF709EDF709EEF709EFF7191919B3
:1003A300D0E0FCD0E0FDD0E0FED0E0FF222518C570
:1003B30082C0E0E51934FFC583C0E0E518C3958228
:1003C30024F810AF0885831985821880088583195E
:1003D300858218D2AFCEF0A3E520F0A37808E60813
:1003E300F0A3DEFAEFF0A3E58124FAF8E608F0A320
:1003F300E608F0A3E608F0A30808E608F0A3E60879
:10040300F0A315811581D0E0FED0E0F815811581A8
:100413001581E8C0E0EEC0E022120AF7B90003023A
:10042300046EE490030178A9790F8002F0A3D8FC4D
:10043300D9FA781A9000867A01BA00028007E49309
:10044300A3F608DAF97AA97B1190008778AE7901CF
:100453008015E493A3AD82AE838A828B83F0A3AA33
:1004630082AB838D828E83D8E9D9E77582F9758350
:10047300E774031207F77582C575831E74001207AC
:10048300F7C0D02518C582C0E0E51934FFC583C085
:10049300E0E518C3958224F310AF0885831985829C
:1004A300188008858319858218D2AFC8F0A3E9F0B4
:1004B300A3EAF0A3EBF0A37908E709F0A3D8FAECD9
:1004C300F0A3EDF0A3EEF0A3EFF0A3D0E0F0A3D000
:1004D300E0F0A3D0E0F0A3E520F0A3E5F0F0A32241
:1004E300851983851882E0C0E0A3E0F9A3E0FAA3AD
:1004F300E0FBA37808E0F608A3DFFAE0FCA3E0FD45
:10050300A3E0FEA3E0FFA3E0C0E0A3E0C0E0A3E01C
:10051300F5D0A3E0F520A3E0A3F5F010AF088583A1
:10052300198582188008858319858218D2AFD082F5
:10053300D083D0E0F8D0E032FF75F0108E218F2207
:10054300858226858325851882851983E0CEA3E0DD
:10055300CF852682852583EBC9EAC8EDCBECCAC3D8
:10056300E833C8E933C9EA33CAEB33CBC3EA9EF5B0
:1005730024EB9FF523B35004AB23AA24EC33CCED37
:1005830033CDD5F0DAAE21AF2222D083D082ECC0B6
:10059300E0EDC0E0E493A3FCE493A3FDED4C600D18
:1005A300120665EC24FFFCED34FFFD80EFE493A31A
:1005B300FCE493A3FDED4C600D120702EC24FFFC59
:1005C300ED34FFFD80EFD0E0FDD0E0FCE493A3C069
:1005D300E0E493C0E022D083D082E9C0E0E493A3B7
:1005E300C386F0C5F095F0F908E493A386F0C5F04F
:1005F30095F0700BE493A3C3994005E9048002A32B
:10060300E475F002A42582F582E5F03583F583D005
:10061300E0F9E493A3C0E0E493C0E0228519838565
:100623001882E0A3FEE0A3F5207808E0A3F608DF34
:10063300FAE0A3FFE0A3C0E0E0A3C0E0E0A3C0E0D2
:10064300E0A3C0E0E0A3C0E010AF08858218858373
:10065300198008858218858319D2AFD083D082028E
:1006630007FDC0E0C3E49396087401939618400F06
:10067300E49366700808740193661870007019A3F8
:10068300A3C3E49396087401939618A3A3400DD0D3
:10069300E0D0E0D0E00205C9A3A3A3A3A3A3D0E0C5
:1006A300227404800474028000CCC0E0EDC0E0E555
:1006B30018C39CCCAD1950011D10AF068C188D19B1
:1006C30080068C188D19D2AF120779D0E0FDD0E0E7
:1006D300FC2274028000CCC0E0EDC0E0E518C39CAE
:1006E300CCAD1950011D10AF068C188D1980068CE6
:1006F300188D19D2AF120757D0E0FDD0E0FC22C00D
:10070300E0C0F088F0E493667008087401936618FB
:100713007000A8F0A3A3700BD0F0D0E0D0E0D0E03D
:100723000205C9A3A3D0F0D0E022D083D082CCC0ED
:10073300E0E493A360061207B91470FAE493A3608C
:10074300061208FC1470FAD0E0FCE493A3C0E0E4C2
:1007530093C0E022CAC0E0E493A3C582CCC582C59E
:1007630083CDC583F0A3C582CCC582C583CDC583A4
:10077300DAE5D0E0CA22CAC0E0E0A3C582CCC582D4
:10078300C583CDC583F0A3C582CCC582C583CDC542
:1007930083DAE6D0E0CA22C008C3E096F50808A3CE
:1007A300E096420808A3E096420808A3E0964508AD
:1007B3007001D3D00822C0E0E493A3D39C5010E48B
:1007C30093A3C39C400AD0E0D0E0D0E002074AA341
:1007D300A3A3D0E02270090808082260161818188D
:1007E300C6C333C608C633C608C633C608C633C62F
:1007F300D5E0EA22C09FF59FE473D09F22D083D037
:1008030082C09FE493C0E0740193C0E0740293F547
:100813009F22C0E0C0D0E8C0E0A8A8D2AFC2C7758D
:100823001A00E8A2E792AFD0E0F8D0D0D0E03200CF
:10083300C0D0251810AF08F518500C05198008F51D
:100843001850020519D2AFD0D0227404800A740361
:100853008006740280027401C0E0F404120868D0B8
:10086300E0120AC6222518F58210AF08F518400CCD
:1008730015198008F51840021519D2AF851983227E
:10088300BB0102E722C082C08389828A83BB000343
:10089300E08002E493D083D082226016080808C661
:1008A300C313C618C613C618C613C618C613C6D5AF
:1008B300E0EA222518F8E43519F9222518FAE43577
:1008C30019FB222518FCE43519FD22C3E0C696F670
:1008D30008A3E0C696F608A3E0C696F608A3E0C60A
:1008E30096F622251810AF08F518400C1519800844
:1008F300F51840021519D2AF22C0E0E493A36C703F
:1009030009D0E0D0E0D0E002074AA3A3D0E022E080
:1009130066701008A3E066700A08A3E06670040816
:10092300A3E06622C3E09608A3E09608A3E0960836
:10093300A3E096A2D265D03322E76670100809E7D8
:1009430066700A0809E76670040809E76622C3E6C9
:1009530097F60809E697F60809E697F60809E69771
:10096300F622C3E49396087401939608740293964F
:10097300087403939622C3E096F008A3E096F00868
:10098300A3E096F008A3E096F022E657F60809E6FE
:1009930057F60809E657F60809E657F622E026F661
:1009A30008A3E036F608A3E036F608A3E036F622FD
:1009B300E493F608740193F608740293F60874033B
:1009C30093F622E056F608A3E056F608A3E056F69F
:1009D30008A3E056F622E056F008A3E056F008A379
:1009E300E056F008A3E056F022E647F60809E6478A
:1009F300F60809E647F60809E647F622700422607E
:100A03000D18C6C333C608C633C6D5E0F41822E6AC
:100A130027F60809E637F60809E637F60809E63740
:100A2300F622E026F008A3E036F008A3E036F0084B
:100A3300A3E036F022E4C396F608E496F608E496BB
:100A4300F608E496F622600D08C6A2E713C618C698
:100A530013C6D5E0F322C6F4C608C6F4C608C6F426
:100A6300C608C6F4C622C3E7960809E7960809E74D
:100A7300960809E79622C3E09608A3E09608A3E048
:100A83009608A3E0962275D00075813F751801750D
:100A930019030002041CE6F008A3E6F008A3E6F03D
:100AA30008A3E6F022600C08C6C313C618C613C613
:100AB300D5E0F422E0F608A3E0F608A3E0F608A3E5
:100AC300E0F622CAC0E0E6F0A308DAFAD0E0FA22A0
:100AD300E8F0A3E9F0A3EAF0A3EBF022E0F8A3E047
:100AE300F9A3E0FAA3E0FB22E0FAA3E0FBA3E0FC16
:100AF300A3E0FD22E5C754F84401F5C77901222597
:100B030018F582E43519F58322C2AF75D69F02002A
:100B13000022120800ED7F00120800F07F00120887
:100B230000F37F00120800F87F00120800E7EE03CD
:100B33001208001FEF0312080061F003120800E51A
:100B4300F003120800BBC603120800E7C60312082D
:100B53000058C90312080098C903120800D8C90332
:100B6300120800ECC90312080005CA03120800F6B4
:100B7300CA031208009BCB03120800AFCB03120871
:100B830000C8F203120800ECF20312080005F30395
:100B930012080037F30312080067F30312080094E6
:100BA300F3031208009EF30312080000F403120873
:100BB300000FF40312080019F40312080026F403CB
:100BC30012080063E50312080083E503120800C25C
:100BD300E503120800DDE503120800FCE503120833
:100BE3000062E6031208006BE603120800C8E6037E
:100BF300120800ECE603120800ADE703120800BA7E
:100C0300E703120800CBE7031208007CFD03120878
:100C13000094FD03120800C0FD0312080005CC0375
:100C23001208005FCD031208006DCD031208008087
:100C3300CD0312080095CD03120800AACD031208B4
:100C430000BDCD0312080031CE0312080096CE0377
:100C53001208001ECF031208009ACF031208005E89
:100C6300D0031208006ED0031208007DD0031208CF
:100C730000E3FA0312080007FB031208002FFB032B
:100C830012080057FB03120800C4EC03120800EB20
:100C9300EC0312080009ED031208007CED031208AF
:100CA3000090E203120800A9E203120800B5E20370
:100CB300120800C9E203120800E7E203120800F178
:100CC300E203120800FBE2031208000EE30312081A
:100CD3000094E30312080009E40312080038E40354
:100CE30012080086E403120800D5E403120800F09A
:100CF300E403120800FAE4031208000BE5031208E8
:100D0300004EE503120800867F00120800D17F0021
:100D130012080064B6031208008EB603120800AB73
:100D2300B603120800BEB603120800D4B6031208B5
:100D33000032B7031208006AB7031208005EBB0350
:100D4300120800A3BC03120800D6BC031208003922
:100D5300BD0312080099BE03120800C1BE031208A6
:100D630000D6BE03120800E6BE031208002ABF0322
:100D730012080085BF0312080095BF031208007014
:100D8300F5031208008AF503120800B2F5031208EE
:100D930000CBF503120800EFF5031208000DF6036C
:100DA30012080024F60312080052F6031208006D1D
:100DB300F6031208002AFA031208006EFA03120857
:100DC300008DD8031208009DD803120800A2D9038E
:100DD300120800D4D903120800FAD9031208001D1F
:100DE300DA0312080034DA031208006EDA03120879
:100DF30000D3DA0312080015DB0312080054DB03E7
:100E030012080085DB03120800BCDB03120800E8AC
:100E1300F003120800FAF0031208000DF20312089F
:100E2300009AF2031208001BFC0312080058FC038B
:100E33001208009AFC03120800AAFC03120800C55A
:100E4300BF03120800FFBF0312080068C0031208A3
:100E53000085C00312080027C10312080030C10334
:100E630012080075C1031208009EC103120800ABEB
:100E7300C1031208001CC203120800A7C203120810
:100E830000F5C20312080033C30312080098C3031A
:100E9300120800BBC30312080032C40312080089FE
:100EA300C403120800C4C403120800F9C4031208DF
:100EB300000BC5031208001DC5031208003CC5033F
:100EC30012080045C50312080005C60312080051A5
:100ED300C6031208008FC60312080030F403120879
:100EE300008EEA03120800C4EA031208000CEB03A5
:100EF30012080065EC0312080000800312080024A6
:100F030081031208005E810312080008830312089C
:100F130000328303120800A78503120800E7850344
:100F23001208007D87031208001A88031208006C58
:100F330088031208000F8903120800478903120867
:100F430000898903120800F88A03120800468C03FB
:100F5300120800778E03120800A58E03120800CC36
:100F63008E03120800D58E03120800258F03120882
:100F730000B78F03120800E6920312080069930377
:100F83001208007CFB0312080092FB031208009C6A
:100F9300FB03120800F0FB031208005DFB021208BA
:100FA3000073FB0212080014FC0212080053FC0237
:100FB30012080070FC02120800A1FC02120800EEE5
:100FC300FC0212080021FD021208005CFD02120857
:100FD3000057FF02120800BFFF0212080031FD0391
:100FE300120800A2F70312080001F8031208003FD9
:100FF300F80312080080F8031208000080021208A8
:10100300000C80021208006E800212080078800231
:101013001208000B81021208004781021208000A1D
:1010230082021208005A8202120800E982021208A0
:10103300006B8302120800168502120800EA86027A
:101043001208003D8802120800A689021208004314
:101053008A02120800EB8E02120800D98F021208CE
:10106300007790021208009C900212080038910247
:101073001208004D9102120800719102120800D764
:101083009102120800F491021208001E9202120843
:10109300009B9302120800BC9302120800429402C0
:1010A300120800E894021208002F9502120800A209
:1010B30095021208002E9602120800929602120858
:1010C30000F29602120800889702120800039802A1
:1010D300120800369802120800989802120800FAC3
:1010E30099021208006A9A02120800189B02120859
:1010F300006E9C02120800049D02120800709D02FB
:10110300120800B39F021208003FA1021208006AEE
:10111300A10212080050A302120800F5A40212084B
:1011230000FEA50212080014DC03120800CEDC0343
:1011330012080034DD0312080055DD0312080027EE
:10114300DE03120800C3FD0312080004D5031208CE
:101153000071D5031208006DD60312080009D803E5
:1011630012080049D80312080071D8031208002896
:10117300CE021208007DCE0212080003CF0212082D
:101183000013D00212080060D0021208001DD10221
:1011930012080034D10212080086D102120800C3DB
:1011A300D102120800D6D1021208002CD202120872
:1011B30000BCD40212080053D5021208007DD502E8
:1011C300120800B5D502120800EBD702120800314D
:1011D300D8021208007BD8021208004FD902120865
:1011E3000090D902120800B3D902120800FAD902FA
:1011F30012080010DA0212080091DA021208001E27
:10120300DB0212080078DB02120800B3DB021208CB
:1012130000C9DC021208004EDF021208007AE00265
:10122300120800B5E00212080082E102120800CCA5
:10123300E102120800CFE102120800D8E10212080D
:1012430000EAE1021208006BE202120800A1E202C6
:10125300120800CDE202120800F4E202120800189C
:10126300E302120800AFE302120800C8E302120807
:1012730000FBE3021208001BE40212080058E40218
:101283001208008FE4021208008EE502120800C162
:10129300E602120800B4FC03120800C0FC031208A3
:1012A30000FCFC03120800FDFF011208001DEF0102
:1012B30012080040EF0112080024F0011208006D2B
:1012C300F001120800C5F00112080021F101120813
:1012D300006DF101120800E3F10112080071F2013F
:1012E300120800E9F2011208002CF3011208003D74
:1012F300F70112080084F901120800B1FA0112087B
:101303000047FB0112080045A003120800E5A003F3
:101313001208004FA103120800F6A1031208005A95
:10132300A2031208008DA303120800B3A40312083A
:10133300002CA50312080004A703120800ACA7039E
:10134300120800DEA80312080086A9031208009BF6
:10135300AA03120800D7E6021208004FE702120898
:101363000097E702120800DBE70212080024E802F4
:101373001208006EE802120800A3E8021208002116
:10138300E9021208007BE902120800D4EA021208FB
:10139300005DEB02120800B9EB02120800D3EB0266
:1013A300120800FAEB0212080052EC02120800BC09
:1013B300ED02120800DBED0212080003EF0212082F
:1013C3000080EF02120800EDEF021208004FF00256
:1013D300120800FFF002120800D1F202120800BC4A
:1013E300F302120800B6F402120800BCF502120858
:1013F30000D8F602120800E6F602120800BFF70250
:101403001208005FF802120800A3F802120800B8DD
:10141300F802120800C9F9021208006CFA02120855
:1014230000C4FA0212080019FD0112080052FE015D
:1014330012080093F90312080073FF011208008DCC
:10144300DF03120800A8DF03120800ECDF03120811
:101453000012E00312080038E00312080050E00312
:10146300120800B3E003120800C8E003120800EA00
:10147300E103120800F3E103120800FCE103120880
:101483000005E203120800B6D00312080096D40345
:101493001208009BD4031208009DD403120800DD38
:1014A3007F00120800CCFF0212080039AA021208BA
:1014B3000090AA02120800FCAA0212080088AB02DC
:1014C3001208003EAC0212080086AC021208009F0C
:1014D300AC02120800C2AC02120800E4AC0212080B
:1014E3000022AD0212080071AD021208009CAD0289
:1014F300120800FAAD02120800A1AE021208004958
:10150300AF02120800C5AF0212080092B00212081F
:1015130000DEB00212080066B1021208009FB10299
:1015230012080030B20212080041B202120800B3DE
:10153300B2021208004CB302120800B6B30212083A
:1015430000A6B402120800CBB402120800C8B50208
:10155300120800D5B502120800DEB502120800C752
:10156300B702120800E3B80212080074B9021208A5
:1015730000E5B902120800BFBB021208008ABF02CD
:101583001208009EBF02120800AEBF02120800B884
:10159300BF02120800C1BF02120800CABF0212082C
:1015A30000D4BF0212080003C00212080031C002B7
:1015B3001208003CC00212080060C0021208008436
:1015C300C002120800F6C0021208003FC10212084E
:1015D300005BC102120800CCC10212080018C2024B
:1015E30012080061C2021208009FC2021208002002
:1015F300C302120800EBC4021208008AC5021208D3
:101603000052C602120800DEC80212080033C902E3
:101613001208005BC9021208008ECA02120800D326
:10162300CA0212080028CB02120800D6CB02120805
:10163300007BCC02120800B0CC0212080050CD028D
:10164300120800CCCD02120800BB2400120800EDE2
:101653002400120800212500120800D526001208D4
:1016630000A927001208000828001208001E2900FC
:101673001208006A2900120800072C001208007CD7
:101683002E00120800C82F00120800603000120854
:10169300006C3000120800B53000120800E830007A
:1016A300120800743100120800863200120800C7C5
:1016B3003300120800C63400120800F03400120888
:1016C300005B3500120800B435001208002736000D
:1016D3001208005D3800120800E33900120800CE3A
:1016E3003A001208001C3C00120800543E00120885
:1016F300004B41001208005A4100120800EE41005D
:10170300120800994200120800DC42001208004847
:1017130043001208006443001208009343001208B8
:1017230000D24300120800BA4400120800694500C1
:10173300120800E04700120800124900120800E1F5
:101743004900120800634A00120800AF4E00120855
:1017530000DE4E00120800394F001208006C4F00E3
:10176300120800C74F00120800E34F00120800449C
:101773005000120800945000120800435100120850
:1017830000065200120800CE52001208001A55003B
:10179300120800A65600120800FD5700120800198F
:1017A30059001208001C59001208004B5900120876
:1017B300003A5B00120800035C00120800445C005E
:1017C3001208009A5D00120800105E001208004320
:1017D3005E00120800A75E00120800C8600012082D
:1017E30000276100120800FD610012080011620069
:1017F30012080025620012080052620012080082DB
:101803006200120800266400120800236500120813
:1018130000716500120800986500120800736600E5
:101823001208001967001208009F6800120800E6FA
:101833006800120800536900120800A86A00120821
:1018430000516B00120800856B001208009D6B00AD
:10185300120800406C00120800BC6E0012080064FD
:101863007000120800887000120800A670001208A9
:1018730000727100120800C07400120800BC8101DC
:10188300120800EE81011208006E8601120800BDE5
:101893008601120800038701120800A687011208B7
:1018A300000B88011208004F8801120800B6890155
:1018B300120800E28A01120800DF8E011208005E9E
:1018C3008F01120800849001120800E790011208AA
:1018D30000339201120800CB9401120800589501BD
:1018E3001208006295011208008A9501120800523D
:1018F3009601120800E796011208001097011208DA
:10190300003D97011208009299011208005F9A01A5
:101913001208009E9A01120800209B01120800CBB6
:101923009B01120800FD9B01120800489C0112084C
:1019330000819C01120800D09C011208002C9D011B
:10194300120800AE9D01120800139E011208008BBD
:101953009E0112080034A0011208002CA1011208F4
:10196300006DA201120800C1A5011208001DA80103
:10197300120800D6A8011208001EA901120800FFD0
:10198300AA011208003AAB0112080043AB01120886
:10199300004CAB0112080057AB0112080076AB01F3
:1019A30012080029AC0112080086AC01120800904D
:1019B300AC011208009AAC01120800E6AC0112084F
:1019C300002EAD0112080032AE01120800CBAE01A9
:1019D30012080092AF01120800BCB001120800E720
:1019E300B101120800DDB201120800F5B2011208BC
:1019F3000029B30112080047B3011208008FB30195
:101A0300120800C8B3011208007FB4011208004095
:101A1300B501120800B3B5011208002FB601120870
:101A230000CBB601120800F1B701120800ADB801EE
:101A33001208004DB9011208003ABA0112080092C7
:101A4300BA0112080058BB011208007BBB0112083F
:101A53000090BC01120800DBBC0112080037BD0175
:101A63001208009FBD01120800C3BD01120800EB5C
:101A7300BD0112080030BE0112080054BE01120855
:101A830000D8BE01120800C1BF0112080006C00140
:101A93001208002FC001120800CDC001120800383F
:101AA300C10112080064C10112080045C2011208F5
:101AB30000E4AB031208001CAC031208003DAC03A6
:101AC3001208007FAC03120800E3AC03120800ED18
:101AD300AC03120800FDAC0312080034AD03120876
:101AE30000DDB003120800A5B20312080089B40395
:101AF3001208002BB503120800B5B5031208003510
:101B0300C40112080099C401120800F7C4011208A5
:101B13000042C5011208005DC50112080084C50119
:101B2300120800A1C501120800ADC5011208003E4C
:101B3300C70112080057C701120800D3C7011208D2
:101B430000E6C701120800F6C7011208009AC8018F
:101B530012080006CA0112080019CB01120800B9C5
:101B6300CB01120800C3CB0112080042CC011208BA
:101B73000053CC0112080092CC01120800C0CC0122
:101B83001208008DCD01120800E4CD011208001DDA
:101B9300CE0112080073CE0112080091CE01120883
:101BA30000DFCE01120800AACF01120800F8CF010E
:101BB30012080045D001120800C8D001120800F233
:101BC300D00112080028D10112080037D1011208F0
:101BD3000096D1011208000ED2011208004FD20163
:101BE3001208009FD201120800CAD201120800E4B1
:101BF300D201120800FED201120800D3D301120849
:101C030000DDD30112080018D40112080028D40102
:101C130012080031D40112080082D4011208009680
:101C2300D401120800B8D501120800CFD50112085B
:101C330000E4D50112080077D601120800EBD601A3
:101C430012080090D7011208009BD701120800FB6D
:101C5300D80112080017D90112080063D90112082C
:101C630000D1D90112080003DA011208001DDA01BC
:101C73001208005FDA01120800B2DC011208004A00
:101C8300DD01120800C1DD011208001EE001120887
:101C93000036E00112080039E00112080045E001B6
:101CA30012080059E00112080061E00112080098CF
:101CB300E0011208008CE10112080016E20112088B
:101CC3000098E20112080018E301120800EFE30193
:101CD30012080011E401120800AAE4011208000727
:101CE300E5011208000AE50112080037E5011208B0
:101CF300004CE501120800BBE50112080007E701EB
:101D03001208001AE801120800A5E801120800B839
:101D1300E9011208007DEA01120800AEEA01120887
:101D230000D4EA01120800DDEA011208000CEB01FD
:101D3300120800BCEB011208006CEC01120800DF72
:101D4300EC0112080082ED01120800F5ED01120802
:101D53000034EE011208007DEE01120800B2EE011C
:101D630012080084F90312080074F903120800E74B
:101D7300FF01120800F8FF021208005CF9031208C1
:101D83000051F903120800B3F803120800A2F80384
:101D93001208006C9F03120800929E03120800C8E9
:101DA3009D03120800379C03120800009C031208CD
:101DB30000D29B03120800869B03120800EF9A03CC
:101DC3001208005F9A03120800399A03120800EE02
:101DD3009903120800B899031208003B99031208EB
:101DE30000D69803120800859803120800AD9703E4
:101DF30012080010FE031208001D97031208000DBD
:101E0300FE031208000AFE0312080007FE0312086D
:101E130000FAFF0112080089F703120800D19603A4
:101E23001208004C9603120800079603120800EBF1
:101E3300950312080023F703120800939403120872
:101E430000659403120800329403120800B693034A
:101E5300120800A0F603120800337F001208001BCB
:101E6300E903120800DA7E00120800A57E001208BA
:101E730000707E001208003C7E00120800CF7D0037
:101E8300120800B77D00120800927D001208006B53
:101E93007A001208003E7800120800457600120806
:101EA30000D175001208008275001208003C75000D
:101EB300120800DE740012080024FA031208000F4F
:101EC300FF0100000080FBE4738F000100D90F873E
:101ED3000001003A1235000400001225000200043C
:101EE3001226000200061227000200081228000131
:101EF3000012122900010013128400040014128638
:101F030000010018122A00010019122B0001001A07
:101F1300122C0001001E122D000800BB0F2E000121
:101F2300001F122F00010020123000010021123186
:101F3300000100221232000100C30F33000100C46C
:101F43000F34000100231236000100C50F380001D1
:101F5300002412390001001D1283000200381263AD
:101F6300000100D60F640001001B12650001001C74
:101F7300126D000100D70F71000800B30F66000156
:101F830000371243000100281244000200291245C1
:101F93000001002B12460002002C1247000800CE5D
:101FA3000F480001002E124B0001002F1204000104
:101FB300003B12A10001003E12370001003D1288D0
:101FC3000001003C123C000100C60F3D000100254A
:101FD3001249000200301267000100D80F4D0002C1
:101FE3000032124E00010034124F00020035123E3F
:101FF300000100CD0F51000100C70F520001002660
:102003001253000100271254000100C80F00000002
:102013000000000001363601010001020100010346
:10202300010001040106060502000007010034084F
:1020330001000F090401010D0100FF0E0800001744
:10204300020000190100FF1A0100011B0100FE1C20
:102053000100081D0200001F0100012001000121F1
:102063000200002301000F240200002601000127C3
:10207300010008280200FF2A0100072B0102402C5F
:102083000100002D0100012E0100012F0100FF308E
:10209300010B1D310800003A0100083B01000F3C11
:1020A3000100013D0100FF3E040000420400004620
:1020B3000400004A0400004E0400005204000056CD
:1020C3000400005A040000000003002001B981004D
:1020D3000000002001B88100000400420196800046
:1020E30000050042013881000006004201268000FD
:1020F3000007002001BB81000010004203D0110043
:102103000011002003BA0E000012002003E11100A9
:102113000093A11001A20E000094A12303A30E00BB
:102123000095A12103B311030000002103BB0E019D
:1021330003710301030103010301030103220302EA
:102143000301031003000300030003000300030063
:1021530003000342030003240306030003000304F4
:1021630003120325032303250323030403040300AA
:102173000300030003440300030003230300036578
:10218300032100350381030003050300030003005B
:1021930003000325032303030271023001600211CC
:1021A3000270020102020202028002100261023A7C
:1021B30000410063027302720262024302000213CF
:1021C30002380000020002040212020002000200B0
:1021D30002000204020402370037003C02440200FA
:1021E300023900000200026502000235028102008A
:1021F3000205028202830200020101710101010151
:10220300011101010131010101010180011001618D
:10221300013B001400630173017201620143010079
:1022230001130106013D0135000401120100010003
:10223300010001000104010401330133013C0144A5
:102243000132013600000100016501000135008102
:1022530001000105018201830100010300710030C7
:10226300016000110070003102200350048000104F
:1022730000610000001400630073007200620043F9
:10228300000000130006000000000004001200001C
:102293000000000000000004000400370037003C89
:1022A300024400000000000000000065000000354B
:1022B30000810000000500000083000000360001DB
:1022C30000060000000F00000000000000000000F6
:1022D30000000003FFFF00000403FFFF0000FFFFF7
:1022E3000FF4010005C4040320000100000B0000EB
:1022F30000000000000003010F00000000000000C8
:1023030000000000000000000000000000000000CA
:102313000000000000000000000000D3100F11D9DE
:10232300101910DF101511DF102111E5101910DF3E
:10233300101511EB101910F1101910F7101910FDE9
:1023430010191003111910091119100000000000D1
:10235300000000000000000000000000000000007A
:10236300000000000000000000000000000000006A
:10237300000000000000000A00000002000000044A
:1023830000000008000000100000002000000040D2
:1023930000000080000000000100000002000000B7
:1023A30004000000080000001000000020000000EE
:1023B30040000007ECFDFDFDECDCDCCCBCACAC9CD0
:1023C3009C8C7C7C6C6C5C5C5C4C4C3C3C2C2C1C7A
:1023D3001C03EAF5E5D5D5C5B5A595958585757530
:1023E3006565555545453535252515150501001FE9
:1023F300130200CB120300D1120400D7120500DD33
:10240300120600E912FFFF00000AEF1802BF1805C9
:10241300D11807C5180CA7180DB318FF0000001634
:102423000F00000B150B020002220F3300000E01F8
:10243300030507090B0D0F00020406080A0C0D5AC9
:102443006967426565416C6C69616E63653039002B
:10245300393D3F373C3C362C442D00034A49434E1B
:10246300181A250502000119161816161823030059
:10247300303017181921301B1D1F30303016181932
:1024830020231A1C1E300C0E020B040B0A07080033
:102493000F020402010101010902E803000000BE6A
:1024A300040AE8030E001E0D0409101E030A040C9F
:1024B3000408280C05080304C082C083121E4D9033
:1024C30010047461F0A37416F09010067467F0A3FF
:1024D3007416F0901008746DF0A37416F090100A3F
:1024E3007473F0A37416F0025BFC74F71203B0E983
:1024F300FE900FF8E4F0EE900FF7F07CCE7D0F7AAC
:10250300F97B0F120FF590122EE0901001F090104E
:102513000274B3F0A3740FF01216970249DC74F03F
:102523001203B08A088B09EB54807003022679905A
:102533000FF7E0F9120E758A0A8B0BAE0AAF0BEE9A
:102543004F7003022670124DD5707EEE241F125178
:102553001B64137002A3E070708E828F83A3A3E0C9
:10256300F50EA3E0F50F901012125605750A0075CB
:102573000B00800D1233B0125DCF120EF3AA0CAB19
:102583000DEA4B60448A828B83E0650E7004A3E0FE
:10259300650F70288A828B83A3A3A3A3124DF3E54F
:1025A3000A450B8A828B83A3A3A3A360C71243327A
:1025B300850A82850B83A3A3A3A380BB8A0A8B0B03
:1025C3008A828B8312560180B8EE242A12511BF99A
:1025D300126188901012123849A3A3A3A3A3A3A343
:1025E300A3E0640270378A828B8312560580078CBE
:1025F300828D83123AADEC4D60208C828D83E06A2C
:102603007003A3E06B70E88C828D83A3A3E06970F1
:10261300DE90123412476FF0804C1216AF8E828F09
:1026230083E064017034EE24181226CD1208591287
:1026330041D31206A4EE24121226CD1208591241D8
:10264300C71208551232781206A8EE24171241DB7E
:10265300121E9B740A120832800CE064027007EEAB
:10266300FAEFFB1217CFEEFAEFFB120E63AA08E59F
:10267300096480FB8051EA5402600C901242740199
:10268300F0EA6402FA8040EA5404600912169DE5F8
:102693000864048029EA540860291216A98B0BEAFE
:1026A300450B7016901014E4F0A3F0A3F0A3F07A96
:1026B30008FB900FF7E0F9120FBFE5086408FAABC7
:1026C3000980047A007B00023C17124DDFF50A787B
:1026D3000A2274F41203B08A088B098A828B83124C
:1026E300561A1240C738F583E02409FA7B00120E0C
:1026F3005D8A0A8B0BAE0AAF0BEE4F70030227996C
:102703008E828F837402F0A3E412650CA3A3A3A3A8
:10271300E8F0A3E91261ACA3A3A3A3A3A3A3F0E5E9
:10272300082403F8E435091258BD1240C73AF5836B
:10273300123842F0EE2409FAE43FFB8E828F83A322
:10274300A3125D5AF5838882E0A2E58E828F83A36C
:10275300A3A3A3A3500474018001E4F0E5082403B8
:10276300F888828983125605EA1240BB3BF583122F
:10277300279C120851EA2410125DF58E828F831272
:102783005603120E3F7403120832EEFAEFFB900F5A
:10279300F7E0F9120E690230B0E0F508A3E0F5099D
:1027A300750A0078082274F21203B08A088B09ECC8
:1027B300FAEDFB740E120B02E0FC121DF98A0C8B6E
:1027C3000DAE0CAF0DEE4F6030AC08AD09121E29F3
:1027D300E96026AC08AD09EEFAEFFB121E23E9709F
:1027E300148E828F8312432AFAEFFB121E2FAA083C
:1027F300AB09121DDB7900800279B4800312083221
:102803007F0602061F74EE1203B074F71208E68AFD
:102813000A8B0BECFEEDFF750CB3750D00750E0006
:102823008002050E9024BAE493F8E50EC3984003A2
:10283300022917AA0E7B00121DB78A088B09EA45E5
:102843000960DF8A828B83A3A3A3A3A3E0250DF5ED
:102853000DF8C3E50A98E50B940050C67C157D007E
:102863007900EEFAEFFB120E4B850882850983A3EC
:10287300A3A3A3A3E0F8E50AC3950D2825E0F8E494
:1028830033F9E50828F582E50939F583123618127C
:102893005DCF12197F8A0A8B0BAC0AAD0BEEFAEFF0
:1028A300FB120FF5850882850983A3E06401700B91
:1028B3001241D3740112704FA3803DAC18AD19853A
:1028C3000882850983125603121DCFE9602D74080F
:1028D300120B02E0C0E01241D3D0E0F07408120BF7
:1028E30002E06403700CAC18AD1912383A120FF5FC
:1028F3008009851882851983125DC385088285093D
:1029030083123BEAA3A31264E3C0E0123E08D0E0C3
:10291300F0750C00A90C740902687E74F71203B0F9
:10292300E9FE8A828B83A3A3A3A3A3A3E054086035
:10293300338A828B83A3A3A3A3A3A3E054026021BE
:102943008A828B83A3A3A3A3A3A3A3A3A3E0640665
:10295300600F74E96E600A74CD6E600574F06E707A
:102963000312167F0249DC74E81203B074F81208EC
:10297300E67406120B02124EA9ECFEEDFF891775E1
:102983001500122BE0121DE78A0A8B0BEA450B7028
:1029930003022B9CEE24101239CFA90A1215BF8A09
:1029A300128B13EA45137003022B9CEE2403F50CE0
:1029B300E43FF50DEE2406F508E43FF5097C0085B8
:1029C300088212411F121DE18A108B11850C82852A
:1029D3000D83E0851282851383A3A3A312569985E1
:1029E3001282851383A3A3A3A3E8F0A3E912328081
:1029F300851282851383A3A3A3A3A3A3A3124E6665
:102A0300851282851383A3A3A3A3A3A3F0EE12408D
:102A1300BB3F122BF1120851EE1240C73F125DF972
:102A2300851282851383A31255FD120E3F74031280
:102A330008327428120B02124332E5121247613531
:102A430013125DCD742A120B02E0C0E0E5121240AE
:102A5300BB3513F583D0E0F07514007423120B0219
:102A6300E0F5167424120B02780C120AB7022B231A
:102A7300851082851183125603121DC9850882852C
:102A83000983A3EAF0A3EB122C02A3A31261C412DD
:102A93002BFCA2E6500F850882850983A3A3A3A379
:102AA300A3E0D2E1F0E515706685088285098312FB
:102AB3004331901048E0687003A3E06970518508C2
:102AC30082850983A3A3A31239DD75100078101240
:102AD3000859780C12084DE516F5107810120859AC
:102AE3007426120B021206A89010551206A879003C
:102AF3007410120B021261A41217FF740A12083227
:102B0300850882850983A3A3A3A3A3E04405F074E6
:102B1300012514FC122BE0121DE18A108B11051400
:102B2300E5104511604EC3E514950AE4950B504436
:102B3300E51475F006A4F8A9F0E51228F8E51339B1
:102B4300F9E8240FF508E439F509850882F583E4EB
:102B5300127475E064016003022A73751501850818
:102B6300828509837401122C02125086A3E8F0A314
:102B7300E9022A8AAA12AB131215C5781212085554
:102B8300AD167424120B02E0FCA917EEFAEFFB1248
:102B930016797402120832803A8E828F83A3A3A31C
:102BA300E0C0E07403120B02D0E0123280C0E07484
:102BB30004120B02D0E0F0E50A450B70097405120C
:102BC3000B0274B980077405120B027410125E0AAB
:102BD3001217F974081208327F1002061F8E828FB3
:102BE300831256098E828F83A3A3A3E0F922F58370
:102BF300124DF7750E00780C22A31261EDE022123C
:102C03007479A32274E91203B074F31208E68A0CF0
:102C13008B0D89168C148D157424120B0212550119
:102C2300AA08FB1215B3E9F513AA08AB091215B9E3
:102C3300E5137003022E4D750E00800F8E828F8375
:102C4300A3A3A3A3A3E0D2E3F0050E123E12E0F880
:102C5300E50EC3984003022E44E5137003022E448D
:102C6300E50E75F006A4F8A9F0E50828F8E509399A
:102C7300F9E8240FFEE439FF8E828F83A3A3A3A375
:102C8300A3E0A2E040C3750F00750A08750B00E5C9
:102C9300156003750F207C087D007900AA18AB1915
:102CA300120E4B8E828F83E06037901098E06401A0
:102CB3007017E50FD2E3F50F750B108E828F831219
:102CC3002E6F1257E874FF8028430F0C750A0C8E81
:102CD300828F83A3122E65A3A3A3A3126873A38079
:102CE30010E5166009E50FD2E6F50F750A0A122EF4
:102CF3006FF07402120B02E50FF01240C5350DF5AB
:102D030083E0C0E07404120B02D0E0F07405120BF0
:102D130002125E081217D5740C120B02E060030254
:102D23002E277408120B021256678E828F83A3A379
:102D3300A3A3F07408120B02124E1BE50AF0A3E5DD
:102D43000BF0124DCBE514122BFD6011901098E09F
:102D5300C0E07408120B02124E0BD0E0F07408129C
:102D63000B02123E32A3A3A3122E60124DC2124EC7
:102D7300A91268DE122E60124DB9EAF0A3EB1264B9
:102D830010C0E0124DAFD0E01264D4C0E07408125A
:102D93000B02124901D0E01260BDC0E07408120BAF
:102DA300021248F5D0E0F07408120B02122E6512DD
:102DB30048E4122FB8122E60242CF582E439F583EF
:102DC300124EA9E50C124741350DF583E0C0E01220
:102DD30048DCD0E0F07408120B02125605850C8211
:102DE300850D83122E572428F582E43B125DCDE531
:102DF3000C1240BB350DF58312688E7512007810E6
:102E03001208511240C5350D125DF9EA12603A3BC2
:102E1300F583125605120E3F7403120832AA18AB3B
:102E2300191217DB8E828F83A3A3A3A3A3E0D2E09F
:102E3300F0740C120B02E06003022C3F1513022CFA
:102E43004C7900AA08AB09121685740D1208327F5B
:102E53000F02061FA3A3A3A3124336EA2212560F9F
:102E6300E822124336850C82850D8322A3122E7429
:102E730022125D8FE8F0A3E92274EE1203B074E925
:102E83001208E68A088B09890A8A828B83A3A3A383
:102E9300A3A3A3A3A3E0F91215DD8A0C8B0DEA45C6
:102EA3000D7003022F471254CD123AC8E50A60038E
:102EB300022F4C7C04850882850983A3A3A3A3A3C3
:102EC300A3A3A3E0F91215E3EE4F60788E828F83FC
:102ED300A3A3A31243317406120B02E8F0A3E91271
:102EE30061D3F8A3E0F97408120B02124E9CC0E000
:102EF3007410120B02D0E0122FB8124331740E1269
:102F03000B02125DCF7411120B02E412568AC8240D
:102F13001FF582E438F5831252CAC413135403FC19
:102F230070027C048E828F83E0F9780C120855744A
:102F33002059FD744059F974021208BE12167974AF
:102F430002120832741702687E7C0885088285099C
:102F530083A3A3A3A3A3A3A3A3E0F91215E38B0F56
:102F6300EA450F7003022ECBEE4F60D8E50AF50B4E
:102F7300780B120859850C82850D83A3A3A3A3A301
:102F8300A3A3E0F50B780B1208598A828B83A3A3C2
:102F9300A3E0FB8A82850F83123AB08A82850F836E
:102FA300E0FA8E828F83A3A3E0F9121EA1740212AA
:102FB3000832022ECFF0850C82850D83A3A3A3A331
:102FC300A3A3A3A32274F71203B074FA1208E6E9C9
:102FD300FE7C017D017F0080037D000F125110E014
:102FE300F8EFC3985028EF75F006A4F885F008A908
:102FF30008EA28F8EB39F9E82414125AB2A2E0508F
:10300300D8540C60D4E0A2E250D17C0080CD8A82F7
:103013008B83A3A3A3A3A3A3E0703DEDA2E040058C
:1030230074016E70338A828B83A3A3A3A3A3A374B7
:10303300011247A9E0C0E07403120B02D0E012476B
:10304300A1E0C0E07404120B02D0E0F07405120B8F
:1030530002EC125E0A1217F974060249D9C082C043
:10306300837901121685025BFC74F41203B0EA4BF8
:103073009012426022E4F08A088B09F50AF50B7876
:103083000812084D7A027B00900FF7E0F9120FB394
:103093007404120832800F7401F07A027B00900FDF
:1030A300F7E0F9120FBF800574021208327F0402A1
:1030B300061FC082C0839011B0E075F005A4FCAD7B
:1030C300F079007AE67B05120E4B7A00800A123201
:1030D3005974FEF0A304F00A9011B0E0F8EAC39823
:1030E30040EC025BFCC082C0837A007B0080037AE1
:1030F300010B9011B0E0F8EBC3985056EB75F00557
:10310300A4F8ACF0EC1232707003A3E0F460E27444
:10311300E628F8740539F9E82403F8500109888290
:103123008983E024FFF0A3E034FF125912F9E84940
:1031330070BDEB75F005A4F8ECF974E628F8740596
:1031430039F98882898374FEF0A3041234C0E4F051
:10315300809FEAA2E050179081561206A47A047B5E
:1031630000900FF7E0F9120FB37404120832025BF8
:10317300FC74F71203B0EAFEEBFF9011B0E07003AA
:10318300023250EE241112511B70030232508E8210
:103193008F83A31255FD1219F7E96402600F8E8223
:1031A3008F83A3A3A3A3A3E070030232507A00800A
:1031B30027123278123AB1123259E06C7003A3E04D
:1031C3006D7014EE241212511BFC74E828F58274FE
:1031D30005125AB56C607B0A9011B0E0F8EAC39807
:1031E30040CF7A0080010A9011B0E0F8EAC398500A
:1031F30061EA75F005A4F8ABF0EB1232707003A32B
:10320300E0F470E274E628F874053BF912327812A0
:10321300606AEAF0A3EB123280888289831234B9A0
:10322300740C124E667A04FB900FF7E0F9120FC587
:10323300EA4B4C4D70179081561206A47A047B001A
:10324300900FF7E0F9120FB37404120832790102F8
:1032530049DC790080F9EA75F005A4F8A9F0123287
:10326300652274E628F582740539F58322F9123252
:1032730065E064FE22EE1261803FF58322F0126660
:103283005CE02274E81203B074FC1208E6740212C4
:103293000B02E4F0A3F0901012123AC8851882854D
:1032A3001983E4F0A3F0751401901042E0A2E350F7
:1032B3000302333C120FD78A088B098C0A8D0B8AC1
:1032C3000C8B0D8C0E8D0F901014780C1208CE12EF
:1032D30033B77810790C120A6950077A017B000220
:1032E30033AB850C14850D15850E16850F177814D1
:1032F3007910120341A814A915901234E0C398E47D
:10330300995003E08001E8F5141233B7780C791073
:10331300120341E4F512F51378087910120951905C
:1033230010147808120A9980101233B0125201FA5D
:10333300EFFB120EF3AE08AF09EE4F60638E828F80
:1033430083A3A3A3E0F8E514C3985029EE2403F55F
:1033530082E43FF583A814E0C398F060217402125D
:103363000B021244B1124E6BEEF0A3EF1260C2FED9
:10337300A3E0FF80C48E828F83A3A3A3E4F08E8295
:103383008F831254FD8518828519831256858E8288
:103393008F83A3A3A3A36091125D871258D8808C57
:1033A3007402120B021256057404022BD812433610
:1033B30090101222901232E0F510A3E0F511E4F51B
:1033C30012F5132274F21203B08A0A8B0BE9FE7A08
:1033D300007B009010121255019010121256856056
:1033E3001E0A850882850983A3A3A3A312568560B9
:1033F3000E0AEA70010B88088909E8450970E39011
:103403001235124332C3EA98EB9940030234B67A79
:10341300067B00120EED8A0C8B0DA80CA90DE84952
:1034230070030234B688828983E50AF0A3E50BF0C2
:10343300EE88828983A3A3F0901234125B0CA3124B
:1034430034B9A3E4F0A3F0901012124342600F8545
:103453000882850983A3A3A3A3125DCF801F9010C5
:1034630012125DCF901042E0A2E34011120FD7EA8F
:10347300F8EBF9ECFAEDFB901014120AD39010421A
:10348300E0A2E3502E7A087B00900FF7E0F9120FC9
:10349300C5EA4B4C4D701C901232126EB378081271
:1034A300084D7A087B00900FF7E0F9120FB9740406
:1034B300120832022803A3A31234C0A322125A977C
:1034C300A3A322C082C083E9901243F090100C742E
:1034D300CDF0A37416F090100E74DFF0A37416F001
:1034E30090101074F1F0A37416F0025BFC74F712E1
:1034F30003B0EAFEEBFF8908EE4F7003121D7590CF
:1035030010181256857008901018802212433288C2
:10351300828983A3A3A3A3A3A3A3A3A31243428840
:10352300828983A3A3A3A3A3A3A3A3A370DEEEF023
:10353300A3EF123547A3A3A3E4F0A3123547E5088D
:10354300F00249DC12354B2212354F22F08E828F66
:1035530083A3A3A3A3A3A32274F71203B090101809
:10356300800D8E828F83A3A3A3A3A3A3A3A3A312DC
:103573003AC8EE4F60348E828F83A3A3A3A3A3A381
:10358300A3E06970DD8E828F83A3A3A3A3E06A7097
:1035930003A3E06B70CC8E828F83A3A3A3A3A3A307
:1035A300E06C70BEEEFAEFFB80047A007B00024908
:1035B300DC74F71203B0901018123AC89010181266
:1035C3002E5B687002EB69701EE0C82409F582E483
:1035D30038F583124332901018125DCF90101812F1
:1035E3003AC88027123ABBEE4F60208E828F83A3A6
:1035F300A3A3A3A3122E57687002EB6970E68A8215
:103603008B83A3A3A3123618125DCF120EF3EEFA27
:10361300EFFB0249DCA3A3A3A3A3A3123E26A3A308
:10362300A3A3A32274F01203B074FA1208E68A0863
:103633008B098A828B83A3A3A3A3A3A3A3A3E06081
:10364300336401602F8A828B831256051219F7E9BE
:103653007022850882850983A3A3A3A3A3A3A3A39D
:10366300E06403701474041208C6AA08AB091217A5
:103673006FE970167902023823850882850983125F
:1036830043327404120B02125DCF12664F243412BC
:103693005D42120EED8A0A8B0BAE0AAF0BEE4F7032
:1036A300030238217C347D007900120E4B74021220
:1036B30008BE850882850983A3A3A3A3A3A3A3A309
:1036C300A3E0F9121E597402120B02E0C0E0123893
:1036D30032D0E0F0EE242EF50AE43FF50B7403122A
:1036E3000B02E0850A82850B83F07901EEFAEFFB8A
:1036F3001216BB85080C85090D750E00780C12088F
:10370300517C1E7D0012383A120E3F7403120832A8
:10371300EE2432123BE02434F8E43FF98A828B83AF
:10372300125DCFE5082411F8E43509F9E8FCE9FD59
:103733008C828D83124E272430125DC9123BD8121E
:10374300716C1208518C828D8312384912560512FE
:103753000E3F74031208327404120B02123E22123B
:103763005DCF900FF8123842A3A3A3F0900FF8E0B7
:1037730004F0120FD78E828F83124E5F242C1240D7
:10378300F4750D00850A82850B83E0780C1209FF1E
:103793008A828B83E50CF0123828E50C124E6BE419
:1037A300F0E5082415126653A2E074015007120BCA
:1037B3000274018004120B02E4F0EE24291254F483
:1037C300AA18AB19121E77E924FE8508828509839E
:1037D300F0EE2430F8E43FF9E8FCE9FD1238511229
:1037E3000268E88E828F83A3A3A3A3A3A3A3A3F05A
:1037F3001238511202688B09EA4509600F8E828FD5
:1038030083A3A3A3A3A3A3A3A3E004F0EE24201202
:10381300511B4408124140120E9F79008002791017
:103823007406023C14EE242BF582E43FF58322EE6A
:1038330012603A3FF58322EE240BFAE43FFB221297
:1038430061B4A3A3A322123AB58A828B83228C820A
:103853008D8312508AE0FA7B002274F41203B0EADB
:10386300FEEBFF120FD7124EA5901228E0F8EE24BC
:103873002D12511BC39840030239BD12410070132E
:10388300EE242D12511B04123C05E0C0E01238282F
:10389300D0E0F0EE242A12511BFC7900800109EEDE
:1038A300242E12511BF8E9C3985026750801750997
:1038B30000E978081209FF124100550860E0E92C7D
:1038C300FC750801750900E978081209FFE045084D
:1038D300F0EE24291239CFEE2430F582E43FF5834C
:1038E300EC8AF0A4F8ABF0E42BF9E098F8A3E099A4
:1038F300F9C3E89AE99400EE4034242912511BF8E5
:10390300124100602F1238321239DDA3E4F0EC705B
:103913004AEE242012511B4420124EA0C0E0125143
:1039230039D0E0F0EE24321239CFA3E080521238BE
:103933002974FFF0901038E0FA90122B1239D4ABAF
:10394300F075F064A4FAADF075F064EBA42DFB8E72
:10395300828F83A3A3EAF0A3EB80B2EE242012515B
:103963001B54DF125134ECF0FAEE2429F582E43FC4
:10397300F5831239D4FAABF0EE124DA93F1241167A
:10398300FB1264B8EAF0A3EB1261DCC0E0EE24257D
:10399300F582E43FF583D0E0124E37E8124E66908D
:1039A300101A125685600BECF9127084121ECAE9C4
:1039B300701712383A121745800F7BE9123BF61243
:1039C3001EA7EEFAEFFB1216C70230B0124DDFFA54
:1039D30022E0F508EA8508F0A4221261B4A3F022DC
:1039E30074F41203B0901018123AC8120FD78A0A4F
:1039F3008B0B78FF79FF8020E0C39AFCA3E09BFD4B
:103A0300C3EC98ED99500E8E828F83A3A3E0C39AE3
:103A1300F8A3E09BF9123ABBEE4F605C8E828F8372
:103A2300125605E50AC39AFAE50B9BFB8E828F8338
:103A3300123AAFC3EA9CEB9D8E828F83A3A340B857
:103A4300A3A3A3A3E06402701AEE240B1241036044
:103A5300091240DB125605120E63EEFAEFFB121643
:103A6300C78007EEFAEFFB1216D37A017B009012A0
:103A730043E0F9120E9F802974FF68700374FF6995
:103A8300601F88088909E4F50AF50B780812084DC8
:103A93007A017B00901243E0F9120FB37404120809
:103AA300320230B0A3A3A3A3A3A3A3A3A3A3123A55
:103AB300B522E0FCA3E0FD228E828F83A3A3A3A300
:103AC300A3A3A3A3A3E0FEA3E0FF2274F01203B019
:103AD3008A088B09ECFAEDFB890A7C0112664FF91F
:103AE3001216C18A0C8B0DAE0CAF0DEE4F70030294
:103AF3003BD6E50A6003023BD6123BD8123BEE6885
:103B03006003023BD6123BD8E0FAEE242E12511B7F
:103B1300F8EA28FAE43400FB8E828F83A3A3A3A3DD
:103B2300A3A3A3A3E0F8EA98EB9400C365D03340C2
:103B33001CE5082414126653F470127B00123BF642
:103B4300121EA7EEFAEFFB1216C7023BD6E50824B6
:103B530014126653F47041EE242B123BE0242EF82A
:103B6300E43FF9E8FCE9FD7508FF7509008C828DD7
:103B730083E078081209FF8A828B83E508123C05EB
:103B8300E508F08C828D83123BEE28F0EE242DF5B0
:103B930082E43FF583E4801BE5082414F8E4350947
:103BA300F9E0C0E0123C0AD0E012590EC0E012382E
:103BB30028D0E0F0120FD78E828F83124E5F123817
:103BC30033123BEAA3124E667A01FB901243E0F9EB
:103BD300120E9F803FE5082413123E1A22F8E43F99
:103BE300F9E8FAE9FBEE221261B422E0F8EE125A88
:103BF3009DE022EE2422124DDFFAEE2414124DDF53
:103C0300F922F0123C0A22EE242CF582E43FF583DC
:103C1300221208327F0802061F74EC1203B074FEEE
:103C23001208E68A0A8B0B8C0E8D0F89108A828B01
:103C330083A3A3E0F9121E838A088B09AE08AF0998
:103C4300EE4F70077A007B00023DFE7A127B001272
:103C53000EED8A088B09EA45097003023DFA7C12CE
:103C63007D007900120E4BAA18AB19850A82850BC9
:103C730083A3A3E0F9121E59E508240FF50CE435DC
:103C830009F50D7401120B02E0850C82850D83F09A
:103C93007902AA08AB091216BB850E82850F83121F
:103CA3003E32123E401240B41261BBF07512FF75F2
:103CB3001300850C82850D83E078121209FF1268C8
:103CC300DEE51212490D127082E0C0E0123E12D0FE
:103CD300E0F01240D1F50CE508240D1268E2E50C82
:103CE300F0E50A1240E3850CF0A4A9F02427FAE4D6
:103CF30039FB120E5D8A0C8B0DAE0CAF0DE508126D
:103D030063D0EEF0A3EFF0EE4F7003023DED8E8231
:103D13008F83741A124E668E828F83A3A3F0A3122D
:103D23003E46123E22125DCFAC0EAD0F1264C2129C
:103D33001E65850A82850B83A3A3A3E0C0E012520C
:103D4300BCD0E0F0901055124E272410123E3A12C8
:103D53004E15350B124E25125DECE8F0A3E9123E29
:103D630046A3A3A3A3124E272412125DC9850A8278
:103D7300850B83A3A3E0C0E0123E08D0E0F0E50A80
:103D83001247611240EFE0C0E0126173D0E0F074BB
:103D930016120B021263EAC0E012663DD0E0126114
:103DA300CEC0E01263D6D0E01263F3C0E01263E04A
:103DB300D0E0124E2CE510F07418120B02120ADF39
:103DC300EE241AF582E43FF583120AD3EE2427F892
:103DD300E43FF9EE2422123E3A125D3A1240EFE03C
:103DE300C0E01264CAD0E0F0800DAA08AB09121635
:103DF300C7750800750900AA08AB097402120832D6
:103E03007F0C02061FEE2414F582E43FF583221291
:103E13003E1622E508240BF582E43509F5832212C8
:103E23003E262212656C8E828F83A3A3A3A3221244
:103E3300508AA3A3A3A322F582E43FF583124E96EF
:103E4300E50A22F0850A82850B83A3A3A3A3A3A378
:103E53002274ED1203B08A0A8B0B8C108D11891218
:103E6300750900EA1240E3F50890101A12568560AE
:103E73000EA908127084121ECAE960030240AF7CC7
:103E830002851082851183125605E50A1240B4E0BB
:103E9300F91216C18A0C8B0DAE0CAF0DEE4F705498
:103EA300850A82850B83A3E0A2E040030240AF743E
:103EB30015120B021206A47417120B021206A8A9FC
:103EC30012AC10AD11AA0AAB0B1216E57406120858
:103ED300328A0C8B0DAE0CAF0DEE4F70030240AF68
:103EE3008E828F83A3A3A3A3A3A3A3A3E508124155
:103EF30040120E9FA8088E828F83A3A3A3A3A3A31C
:103F0300A3A3E024FFFAE434FFFBEA684B700375D4
:103F13000901EE240B1241037003024064850A82F7
:103F2300850B83A3E0A2E0500375080012412DE541
:103F3300089AE49BC365D033401CE0F8EE240E12CC
:103F4300511B28F0750CFF750D00E8780C1209FF62
:103F5300125C2EE50CF0E50A1240BB350B122BF177
:103F6300120851E50A1240C7350B125DF9EE240D14
:103F730012511BF50CE508850CF0A4FAABF01240C6
:103F8300DB12561D2422F582E438124116FB120E71
:103F93003F7403120832750C01124108780C1209A0
:103FA300FF125118450CF0E509A2E05063EE240C12
:103FB3001240F412410804780C1209FF8A828B83A1
:103FC300E0450C124E4A85080C850CF0A4F8A9F0C4
:103FD3001240D1FCE82CFCE439FD1240DB12561DE3
:103FE3002420F582E438F583ECF0A3ED124E77F448
:103FF300701EEE240BF50CE43FF50DEE1240C73FA7
:1040030012411F120E69850C82850D8374FF805047
:10401300120FD7124EA5901038E0FA90122BE0F54C
:104023000CEA850CF0A4FAABF0F8EBF9901228E057
:10403300F50CE8850CF0A4F8ACF0850CF0E9A42CA1
:10404300F9EA28F8EB39F9E875F064A4F8AAF075F1
:10405300F064E9A42AF98E828F83A3A3E8F0A3E98D
:10406300F0A80812412DEA24FF1AEB34FFFBEA689B
:104073007001EB600EEE240C1241036006E509A209
:10408300E05029E50A1240E8ECF0125118C0E0E5CF
:104093000A2414F582E41240EFD0E0F0AC0AAD0B31
:1040A3008510828511831256051217337F0B020682
:1040B3001F1247411240EF221240BF22240EF58205
:1040C300E422E50C1240CB222410F582E422E50A17
:1040D3001240CB1240EFE022EE1240CB3FF5832299
:1040E3001240E8E02212473B1240EF22350BF583E2
:1040F30022F8E43FF9E8FAE9FB750CFF22EE242BE2
:10410300124DDFF422750D00124DDCF5F0E5088445
:10411300E5F022F583E02AFAA3E03B22F583125669
:104123000F850C82850D83E0F922EE240E124DDFFC
:10413300FC124DDCFAEC2AFAE43400FB22F07A019B
:104143007B00901243E0F922C082C083901243E0C7
:10415300F9120E69025BFC74F41203B08A088B092E
:10416300EB5480703BEAA2E050531216D9E5086481
:1041730001FAAB09804B8E828F83E06401701A12BF
:1041830041D31206A41241C7120855EE241212415C
:10419300DB1216EB7406120832EEFAEFFB120E6313
:1041A300901243E0F9120E758A0A8B0BAE0AAF0B1D
:1041B300EE4F70C2AA08E5096480FB80047A007B95
:1041C300000230B0EE240FF50AE43FF50B780A2223
:1041D300EE12473B3FF58322124DDFF9EE2402FC3A
:1041E300E43FFDEE2419FAE43FFB2274F11203B01D
:1041F300890A8A088B098A828B8312560512170350
:104203008B0DEA450D600579B802429612170FE946
:10421300F89024ADE493F9E8C399400479B280732C
:104223007A157B00120EED8A0C8B0DAE0CAF0DEEE2
:104233004F70047910805C8E828F83E4F0A3126147
:10424300E8A3E50A1264031208517C127D00EE24F0
:1042530003FAE43FFB120E3F740312083290101C62
:1042630012568590101C7006EEF0A3EF801FE0FA43
:10427300A3E08003E8FAE9FB8A828B8312568570F8
:10428300F3EEF8EFF98A828B83E8F0A3E9F01217D3
:104293002179000257F3C082C08390101C80048CE4
:1042A300828D83123AB1EC4D60288C828D83A3A357
:1042B300E069600574FF6970E68C828D83A3A3A314
:1042C300E06A7003A3E06B70D6EC2403FAE43DFBD1
:1042D30080047A007B00025BFC74F71203B0E9FDF3
:1042E30074FE6D70047C0180027C0090101C8009B8
:1042F3006D70027C0188828983125685601F8882D3
:104303008983A3A3A3E06A7003A3E06B70E7ECA225
:10431300E088828983A3A3E050D6F9800279FE0264
:1043230049DCEEF90247DBA3A3125505EE22A312E3
:1043330043362212656C221208327F0302061F12D3
:10434300560FEA4B22C082C083790090101C800173
:10435300091256058A828B83E582458370F2025BDC
:10436300FC74F61203B0E4F508F509780812085551
:104373009024ADE49375F013A4A9F01244A6120F90
:10438300657402120832E9FE600312171B0243250B
:1043930074F61203B074FE1208E685188285198339
:1043A300E4F0A3F0A818A919880889097808120865
:1043B3005575080275090078081208557C007D00C0
:1043C3007A427B00120F7174041208320247D674CA
:1043D300F51203B074EB1208E6851882851983E49D
:1043E300F0A3F090101CE0FEA3E0807E8E828F830A
:1043F300A3A3E0C0E07402120B02D0E01257E8A9B5
:1044030082AA8389088A09750A0078081208517CF0
:10441300127D007406120B02AA82AB83120E3F7444
:104423000312083274021208B68808890978081240
:104433000855750813750900780812085574041295
:104443000B0212551175F013A4F8AAF075F013E9D5
:104453001244A2120F71740412083285188285194E
:10446300831244B1126561E8FEE9FFEE4F60030277
:1044730043EFA818A91988088909780812085575FF
:10448300080275090078081208557C007D007A42FD
:104493007B00120F717404120832741502433AA49C
:1044A3002AF9E82402FCE439FD7A427B0022E02465
:1044B30001F0A3E034002274F41203B074EB120889
:1044C300E67E007F00A818A91988088909780812D0
:1044D30008557508028E0978081208557C007D007E
:1044E3007A427B00120F777404120832E9706E8EE1
:1044F30008805874021208B6880A890B780A1208D1
:1045030055750A13750B00780A120855E50875F0FE
:1045130013A4F8AAF075F013E5091244A2120F7759
:104523007404120832E9701B7403120B02AA82ABE3
:10453300837402120B02E0F91216FDE970050EEE08
:1045430070010F0508E508700205098518828519B1
:1045530083124332C3E50898E509994096EEFAEFD2
:10456300FB74150230AD74F61203B08C828D83A3F5
:10457300A3124797F0EA2417F582E43BF583E0C0E2
:10458300E0124767D0E0F012474712433212475117
:10459300124797A3F0A3F0EA241FF582E43BF583C7
:1045A300123AC8EC124E153DF583EEF0A3EFF0EA94
:1045B300125C283BF583124778A3A3A3A3A3A3EE1E
:1045C300F0A3EF12590EFE8C828D831247C1740340
:1045D3005EFEC39403400302472EEE600574026E31
:1045E30070798C828D83E0540CFE740C6E70030220
:1045F300469BE0A2E4400D88828983E08C828D8310
:10460300A31247C974086E600302469B124759748C
:1046130001F08A828B83A3A3A3A3A31257E270148E
:104623008C828D83E0440C1247A1A3A3124778EE3A
:10463300F0A3EFF08C828D83E0A2E4401E12478644
:104643001247B2500109124786A3A31247B2500181
:10465300098882898312476F1247C188828983E060
:10466300C0E0EC1247413DF583D0E01247C18C8294
:104673008D83E0A2E7507888828983E0FE8C828D67
:10468300831247C974FC5E700C8C828D83A3E05443
:10469300036403701B02472E124759E4F0740C6E37
:1046A30060030246151247861247B4508709808477
:1046B3008C828D83A3E05403603888828983E0C0B1
:1046C300E0EC12473B3DF583D0E01247CA8C828D64
:1046D30083E054036402701A88828983E0C0E0ECAB
:1046E3002414F582E43DF583D0E01247CA8003A386
:1046F300E4F0EC1240BB3D125DCDEC2410FEE43D32
:10470300FF124747E0F5088E828F83E0C3982508A0
:10471300F508F0EA2417125D7DC39508C0E012473F
:1047230051D0E012590EC39508500A124751E4F0D4
:10473300124767E4F00247DB2413F582E4222411D5
:10474300F582E422EA241DF582E43BF58322EC1290
:104753005C283DF58322EC1247613DF58322240C4E
:10476300F582E422EC1240CB3DF58322E08C828D6E
:1047730083A3A3A322E0FEA3E0FF8C828D83A3A3E4
:10478300A3A32288828983E0F508A3E0FFE5088CD0
:10479300828D8322E4F08C828D83A3A3A32212470C
:1047A300A9A3A3A3A322F08A828B83A3A3A322A3F7
:1047B300A3A3A3A3A3F0A3EFF0E82402F8221247D4
:1047C300D1A882A98322A31247D108A98322125A0E
:1047D30097A32274021208327F0202061F74F41296
:1047E30003B074F31208E68A0A8B0BECFEEDFF8E1E
:1047F300828F83E0540CF508E0A2E75006E508D267
:10480300E7F508E508D2E1F5081257E27006E50876
:10481300D2E4F508E0A2E55006E508D2E5F5087C08
:10482300087D007900AA18AB19120E4B7402120B03
:1048330002E50812490DC0E07403120B02D0E01226
:104843004E6BE50AF0A3E50BF07405120B02125E42
:10485300081217D5740C120B02E070787408120B4F
:104863000212561D125D3A381261F3C0E074081249
:104873000B02124901D0E01260BDC0E07408120BB4
:10488300021248F5D0E0F07408120B02125E001217
:1048930048E4124EA0124E52241112511BC0E012D2
:1048A30048DCD0E0F0EE241412511BC0E07408126F
:1048B3000B0212561D2435F582E438F583D0E0123D
:1048C3004E42C0E07408120B02124DFFD0E0125E9C
:1048D3000A1217DB740D0230ADE8124DA939F583C6
:1048E30022125609E8242AF582E439F583EAF0A373
:1048F300EB221260B32427F582E438F58322126099
:10490300B32426F582E438F583221261E8E02274A9
:10491300F71203B07E008A828B83A3A3A3A3A3A36E
:10492300A3A3A3E0640460030249BE12569EE060A1
:10493300030249BE1249C23B125683607E888289B4
:1049430083E054037075E8240C125AB2FA8C828DFA
:1049530083A3A3E0FBA3E0CB1247413BF583E06ACB
:10496300705988828983A3A3A3A3A31249CDE06AC4
:104973007003A3E06B7044888289831249CDA3A39B
:10498300125AC7240612511B6A7003A3E06B702BE3
:1049930088828983A3A3E0F88C828D83A3A3E0F9A3
:1049A300A3E0F5838982A3A3E068600D8C828D83E5
:1049B3001252C8540C640470027E01EEF9801AEAA4
:1049C3001249C722240FF582E422A3A3A3A31256FC
:1049D3000F8C828D83221208327F0102061F74F628
:1049E3001203B074FC1208E6EAFEEBFFECFAEDFBEF
:1049F3008A828B83A3E05403601690100E125685AF
:104A030060597900EEFCEFFD127084121ECA804BD0
:104A1300851882851983EEF0A3EFF07402120B025E
:104A2300124EA9AC18AD197A397B171219318A08BD
:104A33008B09A808A909E849602188828983A3A36F
:104A4300A3A3A3A3A3A3A37406F07A0088828983F4
:104A530012561D126049E0F912189B74040247D8DC
:104A630074F21203B074F31208E6EAFEEBFF8E82CF
:104A73008F83A3A3A3A3A3A3A3A3A3A3E0F50A9054
:104A83001242E0700579BA024DA475080175090058
:104A9300750C00750D007C087D007900AA18AB1910
:104AA300120E4B7405120B027401124E7E540460F5
:104AB300127402120B02E0D2E6124E7E5408700307
:104AC300750803E05410600674404508F508E05487
:104AD3000860227402120B02E044C0124E7E54207E
:104AE300600A7403120B02E0D2E080087403120B15
:104AF30002E0D2E1F0EE241512511B124DE77003D0
:104B0300740169700674084508F5088E828F83A3C3
:104B1300A3A3A3A3A3A3A3E07016121985851882E8
:104B2300851983124EA97402120B02E0D2E2802C83
:104B3300640F70107402120B02124E86740445083F
:104B4300F508807B8E828F83A3A3A3A3A3A3A3A330
:104B5300E064028E828F837006122E70F08060A351
:104B6300A3A3A3A3A3A3A3E06403700DAC18AD197F
:104B7300EEFAEFFB12176F80468E828F83A3A3A3F7
:104B8300A3A3A3A3A3E064017035901098E0601081
:104B93007402120B02124E86750910750AFF8018F3
:104BA3007402120B02E0440C124E6B74FDF0A374FA
:104BB300FFF074044508F5088E828F83124DF3EEDF
:104BC300241512511BA2E0503F7402120B02E05451
:104BD3000C701B8E828F831256051213BBE970056E
:104BE30079BB024DA47402120B02E0D2E5F0EE246D
:104BF3001512511BA2E050107402120B02E0540C68
:104C030064047004E0D2E5F0EE241112511BC0E0FD
:104C13007404120B02D0E0125E0A1217D5740C1240
:104C23000B02E06003024D9D7408120B02124E1B2F
:104C3300E508F0A3E509F0EE241812511BC0E012B9
:104C43004DCBD0E0124E2CE0C0E07408120B0212E0
:104C5300561D12473B38F583D0E0124EA064017015
:104C630011901098E0C0E07408120B02124E0BD0A2
:104C7300E0F07408120B02124E2724171239CFE802
:104C8300124DC2EA124E66EE2415FAE43FFB8A8205
:104C93008B83123AB1E8124DB9ECF0A3ED124E3703
:104CA300E0C0E0124DAFD0E0124E77124DE7700333
:104CB30074016970137408120B02125667FAEE241A
:104CC3001D12511BF91215E98E828F83A3A3A3A38F
:104CD300A3A3A3A3A3E0C0E07408120B021249012B
:104CE300D0E0F07408120B021248F5E50AF07408DC
:104CF300120B021255112428F582E439F583E50CD1
:104D0300F0A3E50D124E4AFAA3E0FBE8242A124E63
:104D130059240F12511B124E52241712511BC0E07B
:104D2300E82433F582E439F583D0E0F0124DD5C0A1
:104D3300E07408120B02124DFFD0E0F0EE241A12B9
:104D4300511BC0E07408120B0212561D124DA938F4
:104D5300F583D0E0124E4212279D1208511263C808
:104D6300123AB1740B120B02126190FAA3E0FB1218
:104D73000E3F7403120832EE241512511B54406087
:104D830012901028125685600AAA18AB1912708463
:104D9300121ECAAA18AB191217DB740C120B02E00D
:104DA300F9740D0228002432F582E422E82420F568
:104DB30082E439F58322241EF582E439F583222423
:104DC3001CF582E439F58322E82412F582E439F5EF
:104DD3008322EE241B124DDF22EE240FF582E43FE3
:104DE300F583E0225480F8A3E05401F9748068222B
:104DF300124DF722E0F50CA3E0F50D221260B32467
:104E030034F582E438F583221260B3124E1538F577
:104E130083222415F582E4221255151249C739F568
:104E23008322F583124336EE22F0EE2419F582E451
:104E33003FF58322F0EE241CF582E43FF58322F054
:104E4300EE2413124DDF22F0EE240D124DDF22FA71
:104E5300A3E0FBE8242CF582E439F583EAF0A3EB25
:104E6300F0EE22F0A3E4F022124E6F22F0851882B6
:104E730085198322F08A828B83E022F0EE241512B7
:104E83004DDF22E0D2E3126565124E90228518822F
:104E9300851983E8F0A3E9F022E8F0A3E912609D05
:104EA300E0228E828F83EAF0A3EBF02274F71203E1
:104EB300B07E638A828B83E0600C7905121865E902
:104EC300F87456C398FE901040E0600CF912186510
:104ED300E9F8EEC39824F2FE0249BE74F61203B059
:104EE30074FE1208E6851882851983124EA9E9FE1D
:104EF300ECFAEDFB9003041256856035A818A91946
:104F03008808890978081208557D01740E120B026E
:104F1300E0FCEEF9900304126065121ECA740212DB
:104F230008328B09EA450960047900800679B2806A
:104F33000279B60247D674F71203B0E9FE90100463
:104F4300125685601F7409120B02E0F508780812E7
:104F53000859EEF9901004126065121ECA7401120A
:104F63000832800279B60249DC74F71203B089086B
:104F7300ECFEEDFF79B5E508245E601F146006249E
:104F8300F86033803C90030612434260349003067A
:104F9300126065121ECA124EA58024901006123AA2
:104FA300B1EC4D601CEEFCEFFD9010061260651233
:104FB3001ECAE9F9800B9010021261A4120FF57951
:104FC300000249DC74F71203B0E9FE79B574AB6EE5
:104FD300700B901002125605120FF579000249DC8E
:104FE30074F21203B08A088B09ECFEEDFF750A0117
:104FF300901048E065087004A3E065097014121965
:105003007F8A088B09AC08AD09EEFAEFFB120FF5A6
:10501300802A12198B8A0C8B0DE508650C7004E548
:1050230009650D7009EEFAEFFB121991800EEEFC83
:10503300EFFDAA08AB091214DBE9F50AA90A022855
:105043000374F21203B0EAFEEBFF8C088D09750AB4
:105053000112197F8A0C8B0DAC0CAD0DEEFAEFFB30
:10506300120FEFE96401700B901048125086125D25
:10507300CF800EAC08AD09EEFAEFFB1214E1E9F5AF
:105083000A80B912508A2212656C850882850983C9
:105093002274F61203B0EAFEEBFF7A0D7B00120EC8
:1050A300EDEA4B6065EE242412658CF0EE242512A4
:1050B300658CA3125134126592A3A31263F81251A3
:1050C3001FF0EE242A1251281251FD242C125128CC
:1050D3001251FB242EF582E43FF58312511FA3A343
:1050E300A3A3A3F0EE243312511BC0E0125110D03E
:1050F300E01261F712512BA3A3A31251FB24321226
:10510300511BC0E012569ED0E0F00247DBEA126169
:10511300803BF58322EE240C124DDF22E08A828B42
:1051230083A3A3A322124DDFF8A3E0F98A828B8322
:1051330022F012513922EE2426F582E43FF5832230
:1051430074F41203B074FE1208E6ECFEEDFFEE24D5
:105153001612511B64057010EE2406FCE43FFD1289
:105163001769E970030251F0AC18AD191264C21249
:1051730013C1851882851983125685606C8E828FC0
:1051830083E064017059E875F009A4F8AAF075F09A
:1051930009E9A42AF9748A28F874FD39F9E8FAE9C7
:1051A300FB8A828B837808120AB7EE1251F5120A32
:1051B300794028851882851983124E271252BD1211
:1051C30052011251F5120AB79081AE78081209A064
:1051D3008A828B837808120A99800A79A28010EE5A
:1051E300240F125DC97900800679A1800279C80273
:1051F30030AB12665D780822A3A3A3A3A3A3124E28
:1052030096EE2274F01203B08A088B09ECFEEDFFD0
:105213001252BCE4F0A3F0908162780C120AB71228
:105223006658780C12091270030252B4EE240E125F
:10523300511B6401703678B390103FE0702A9010D0
:1052430071E064017022EE241112511BF912184D02
:105253008A088B09A808A909EE240F125DC9E84939
:1052630060047800800278A1880A8048E0701712F1
:10527300177BE9F50A603D8E828F83A3A31252C880
:105283005403700E802E6402701512177BE9F50A21
:105293006022EEFCEFFDAA08AB091213E58008E0DB
:1052A3006403700812177BE9F50A8008750AA18068
:1052B30003750AA3A90A023C17EE1249C73FF583F7
:1052C300228A828B83A3A3125E362274F01203B068
:1052D30074F51208E6EAFEEBFFEE240AF508E43F54
:1052E300850882F5831255011254D574031208C63A
:1052F3008E828F83125605121769E970030253BD1C
:1053030074011208C674031208BE1213C174011289
:105313000B0212568570030253BDE875F009A4F819
:10532300AAF075F009E9A42AF9748628F874FD39FE
:10533300F9E8FCE9FD126886E4F004120B0212435B
:1053430032E5081249C33509125DCD8C828D831273
:105353000ADF1254E1120AD39081AE7808120AB719
:105363008C828D837808120A258C828D83780812AB
:105373000AB790814A780C120AB77808790C12039D
:1053830041E50C450D450E450F702F7401120B02BC
:1053930012551175F009A4F8AAF075F009E9A42AC9
:1053A300F9748E28F58274FD39F5837401F07A005F
:1053B3007B08900EE7E0F9120E9F1254E9E02406F1
:1053C300FCA3E03400FD8E828F8312560512176909
:1053D30085088285098312567A705212563B120F42
:1053E300EFE9701D12197F8A088B09AC08AD09908B
:1053F3001002125605120FEFE970061217EDE9605D
:105403002C8E828F83123AA78E828F8312560512B7
:1054130013EBE960138E828F83A3A31256151249EF
:10542300C338F583E4F0A3F01258F1E4F012566C9C
:1054330060030254C88E828F83A3A3A3A3A3A312E2
:1054430054FD90103FE07072901071E06401706A37
:10545300750A3A750B00780A12085574021208B6D9
:10546300880A890B780A1208557C017D007A007B33
:1054730000121AA57404120832E9703B126886748C
:1054830001124E6BE0C0E0E50824111268E2D0E09F
:10549300F01254CD743A124E6690102A120ADF129B
:1054A30054E1120AD39081AE7808120AB790102AF9
:1054B3007808120A2580031254D512566C7006120E
:1054C3005C2E74A1F0740B023C14E508240F123E09
:1054D3001A22E508240F123E1AE4F0A3F022E5088D
:1054E3002412123E1A22EE240A1254F48882F583FF
:1054F30022F8E43FF98808890922A3A3A3A312553C
:105503000522E0F508A3E0F509228C828D8312556C
:10551300152212656CE82274F61203B0EAFEEBFF63
:10552300EE240A1254F47A187B00120EED850882D9
:10553300850983EAF0A3EB125699E84970030255F3
:10554300DBEEFAEFFB12178712566C607412565992
:1055530064018E828F83A3A3A3A3A3A37007125610
:105563002B740E8020125685700F12563B120FEFCC
:10557300E970061217EDE96007125621740D8005D4
:1055830012562174051261F7540364017007125512
:10559300E27405800B901040E0C0E01255E2D0E0C9
:1055A30012568AF5838882A3E0F91218658508826A
:1055B30085098312561D2417F582E438F583E980A3
:1055C3001A850882850983125605120EF38508820F
:1055D300850983E4F0A38003126050F00247DB8E59
:1055E300828F83A3A3A3A3A3A3A3A31255F222A3EE
:1055F300A3125E3BA3228E828F83A3A3A3A3A3A3A1
:10560300A3A312560F22A3A3A3A3A3A3E0FAA3E089
:10561300FB22A3A3A3A3A3A3A3A31260B3228E82FB
:105623008F83A3A3A3A3A3A3A3A3A3A31260B324BE
:1056330016F582E438F58322901002123AB58E8271
:105643008F83A3A3A3A3A3A3A3A3A3A3E02406FAE3
:10565300A3E03400FB228E828F83A3A3A3A3A3A37F
:10566300A3A3A3A3125903E0228E828F83A3A3A330
:10567300A3A3A3A3A3A3A31260B3240FF582E438C7
:10568300F583125515492212568E22125692221272
:10569300666AF8A3E02212568EF922EA1247613BAA
:1056A300F5832274F11203B08A0A8B0B8C088D09DF
:1056B3007A187B00120EED8A0C8B0DAE0CAF0DEE3B
:1056C3004F70030257DB1219858A0C8B0DA80CA9A6
:1056D3000DE5082415126653687003A3E0698E82F2
:1056E3008F837004740280027401F0E508240DF8BE
:1056F300E43509F988828983E0FAC3E49AFA95E0EC
:10570300FBE5081240BB3509124116FB8E828F83DD
:10571300A3A3A3A3125D498E828F83A3A3F0EEFA02
:10572300EFFB1218178508828509831257E2700967
:105733008E828F83A374058006901040123BEAF09B
:10574300EE2417F8E43FF9880C890D8E828F83A32A
:10575300E0F9121865E9850C82850D83F0EE2416B5
:10576300F8E43FF9E508240EFAE43509FB88828959
:105773008312607EE5082410FAE43509FB850C8268
:10578300850D83E0FC88828983E0F88A828B83E03D
:10579300C398C39CF81257E8F0EEFCEFFDAA0AABDE
:1057A3000B121781E9F5088E828F83E06402701172
:1057B30012197F8A0A8B0BAC0AAD0B1264C2120F4B
:1057C300F5E508700AEEFAEFFB121823E9F508EE87
:1057D300FAEFFB120EF38003750810A9088011E09D
:1057E30054036401221257EC221261EDA3A3A322F6
:1057F3007F0702061F79010207FD74F41203B0EA62
:10580300FEEBFF8E828F831256152424F582E43833
:10581300F5831257E2702A12565970251258DEE0AA
:105823006405701D1258DEA3E0F874016860057406
:10583300066870071258F1740280051258F1740358
:10584300F01254E9126065E4F0EE2408F8E43F1224
:1058530058BD2431F582E43AF583E0C0E01258C81C
:10586300D0E012590EFAA3E0CA242EF582E43AF5E9
:1058730083E0C0E01258C8A3D0E0125912C81261E5
:105883007C38F5831250861258D8125DCF12197FD7
:105893008A0A8B0BAC0AAD0B850882850983E02449
:1058A30006125D42120FF58508828509831256059B
:1058B300121823126122F00230B0F988828983E042
:1058C300FAA3E0CA228508828509831258D22212DC
:1058D3006040A3A3221258D2A3A3228E828F83A354
:1058E300A3A3A3A3A3A3A3126194125C3C228E825D
:1058F3008F83A3A3A3A3A3A3A3A3A3A312590322A5
:105903001260B8C81240BF38F58322125D552212C7
:105913005D55F8A3E0220257F8C082C08390101EA1
:10592300748DF0A37417F09010207499F0A374177A
:10593300F0901022749FF0A37417F09010247493C6
:10594300F0A37417F0025BFC74F41203B0EA2408AA
:10595300FCE43BFD12550D2424125AB2FE74035E7F
:10596300F50912617B39124E2588828983F0A3A839
:1059730082A983E5096009740265096003025A1765
:10598300740C5EF50860177408650860117404658B
:10599300087013740265097005EEA2E4402C125AD4
:1059A300CD2427125B12740C65087018125ABF2499
:1059B30028125AF7FCA3E0CC2428F582E43CF583B3
:1059C300A3125B18740265097005EEA2E440451248
:1059D3005ABF242A125AF7FFA3E0CF125A9DA312EB
:1059E3005B18125AC3242C125B27242CF582E43C47
:1059F300F583A3125B18E508601274086508600C50
:105A0300740C65086006740465087008125ACD2486
:105A130026125B12125ACD125AA67015EEA2E1405D
:105A230010125ACD241EF582E43CF583E0548060C5
:105A330008125ADF125ABA801A900FF8E0C0E01227
:105A43005ADFD0E0F0900FF8125ABA900FF8E00442
:105A5300125A97A3A882A983EEA2E75034125ABF21
:105A63002425125B27125AA66027125ACD2434121A
:105A73005B12EEA2E1501A8A828B83A3A3A3A3A392
:105A8300A3A3A31258C22435F582E43AF583125A2C
:105A9300BA0230B0F08882898322242AF582E43F57
:105AA300F583222425F582E43CF583E0540322F5B3
:105AB30082E439F583E022125B0CF022EA2408FC2D
:105AC3008C828D83E0FFA3E0CF228A828B83A3A302
:105AD300A3A3A3A3A3A3E0FCA3E0CC228A828B838A
:105AE300A3A3A3A3A3A3A3A3E0FCA3E0CC124DA968
:105AF3003CF58322F582E43FF583125B0CF0A3A807
:105B030082A9838C828D83E022E08882898322F5B7
:105B130082E43CF583125B1C22E088828983F0A334
:105B230008A98322F582E43FF583125B1C8C828DE6
:105B330083E0FCA3E0CC22C082C0838A828B8312E1
