:020000040000FA
:06000000020A890202035E
:03002B00020815B3
:0300530002013275
:1000830002019401010020FD00020612FFFF089FF8
:100093000E000000016F117B110000000000000042
:1000A300000000000000000000102020202020207D
:1000B30020202020202020202020010804010000EF
:1000C3000002728101B6810101010400E70E000004
:1000D3000010270000FFFF3B0F102700006400649F
:1000E30000B801A0BB0D00A0BB0D00020200080078
:1000F300000502070401051E02051E020A0A010883
:100103000803B80B02803E0102FEFFE8030A050064
:1001130001FFFF020A1401E005030101FF062200AB
:10012300000000DA2000000000FF000000FF00C014
:10013300E074F1120482A2AFE433F509D2AF85A7CC
:1001430008AFA1EF5508FE74105E6006120BB1757F
:10015300A1EF74085E6008120BB775A1F78024EF56
:10016300A2E092F0E508A2E082F05017906198E0D7
:10017300F8900349E0C398A2D265D0335002E8F067
:1001830075A1FE751A00E509A2E092AF7F02020491
:10019300E1C0E074F2120482A2AFE433FED2AF9066
:1001A30061A4E0F8759B00E59158540860087591C7
:1001B300F7120BFF8023E59158541060087591EFF7
:1001C300120C058014E591A2E092F0E8A2E082F01F
:1001D3005007E0C2E0F0120D5B9061A3E0F8E5E99F
:1001E300585404600E120D3175E9FB906193E0A23F
:1001F300E640F2751A00EEA2E092AF7F010204E13D
:10020300C0E074F2120482A2AFE433FED2AF906175
:10021300A5E0F8E5BF585404600675BFFB120D73E3
:1002230080D1C3E498F8E499F91202668026C3E406
:100233009AFAE49BFBE920E7E9120266E498F8E402
:1002430099F922C3E498F8E499F9120266E498F85C
:10025300E499F9C3E49AFAE49BFB22EB20E7CFE9A4
:1002630020E7E0B90010BB0008E88AF084F8AAF0A0
:1002730022E4FBC8FA22EB70227B10C833C8C933CF
:10028300C9335007C39AC3DBF280069A50012ADBB5
:10029300EAC833F4C8C933F4C9FA2275F008E4C8CC
:1002A30033C8C933C933C99AC99B5004C92AC93B46
:1002B300D5F0ECFBC833F4C8E4C9FA22080808EA0D
:1002C300C0E0EBC0E086F0E7A4FA180986F0E7A4E3
:1002D3002AFA180986F0E7A42AFA180986F0E7A48F
:1002E3002AFA1986F0E7A4FBE5F02AFA190886F042
:1002F300E7A42BFBE5F03AFA190886F0E7A42BFBF9
:10030300E5F03AFA18180986F0E7A4C5F02BFBE4E8
:100313003AFA1908E7C5F0C6A426F6E5F03BFBE474
:100323003AFA1886F0E7A4F6E5F00826F6E43B0867
:10033300F6E43A08F6D0E0FBD0E0FA22E4CFC0E0DE
:10034300E4CEC0E0E4CDC0E0E4CCC0E075F020E64C
:1003530026F608E633F608E633F608E633F6181809
:1003630018EC33FCED33FDEE33FEEF33FFC3EC97B4
:1003730009ED9709EE9709EF97191919400FFFEC4B
:1003830097FC09ED97FD09EE97FE191906D5F0BF05
:10039300ECF709EDF709EEF709EFF7191919D0E0B2
:1003A300FCD0E0FDD0E0FED0E0FF222518C582C0DE
:1003B300E0E51934FFC583C0E0E518C3958224F84E
:1003C30010AF088583198582188008858319858273
:1003D30018D2AFCEF0A3E520F0A37808E608F0A387
:1003E300DEFAEFF0A3E58124FAF8E608F0A3E608C5
:1003F300F0A3E608F0A30808E608F0A3E608F0A3D4
:1004030015811581D0E0FED0E0F8158115811581A5
:10041300E8C0E0EEC0E022120AF7B9000302046C60
:10042300E490030178A9790F8002F0A3D8FCD9FAEC
:10043300781A9000867A01BA00028007E493A3F643
:1004430008DAF97AA97B1190008778AC79018015D5
:10045300E493A3AD82AE838A828B83F0A3AA82AB9B
:10046300838D828E83D8E9D9E77582087583EC740E
:10047300031207F77582D775831E74001207F7C03E
:10048300D02518C582C0E0E51934FFC583C0E0E577
:1004930018C3958224F310AF0885831985821880C9
:1004A30008858319858218D2AFC8F0A3E9F0A3EABF
:1004B300F0A3EBF0A37908E709F0A3D8FAECF0A3D3
:1004C300EDF0A3EEF0A3EFF0A3D0E0F0A3D0E0F0C3
:1004D300A3D0E0F0A3E520F0A3E5F0F0A322851973
:1004E30083851882E0C0E0A3E0F9A3E0FAA3E0FB70
:1004F300A37808E0F608A3DFFAE0FCA3E0FDA3E09D
:10050300FEA3E0FFA3E0C0E0A3E0C0E0A3E0F5D0DA
:10051300A3E0F520A3E0A3F5F010AF0885831985C8
:1005230082188008858319858218D2AFD082D08340
:10053300D0E0F8D0E032E473FF75F0108E218F2203
:10054300858226858325851882851983E0CEA3E0DD
:10055300CF852682852583EBC9EAC8EDCBECCAC3D8
:10056300E833C8E933C9EA33CAEB33CBC3EA9EF5B0
:1005730024EB9FF523B35004AB23AA24EC33CCED37
:1005830033CDD5F0DAAE21AF2222D083D082ECC0B6
:10059300E0EDC0E0E493A3FCE493A3FDED4C600D18
:1005A300120665EC24FFFCED34FFFD80EFE493A31A
:1005B300FCE493A3FDED4C600D120702EC24FFFC59
:1005C300ED34FFFD80EFD0E0FDD0E0FCE493A3C069
:1005D300E0E493C0E022D083D082E9C0E0E493A3B7
:1005E300C386F0C5F095F0F908E493A386F0C5F04F
:1005F30095F0700BE493A3C3994005E9048002A32B
:10060300E475F002A42582F582E5F03583F583D005
:10061300E0F9E493A3C0E0E493C0E0228519838565
:100623001882E0A3FEE0A3F5207808E0A3F608DF34
:10063300FAE0A3FFE0A3C0E0E0A3C0E0E0A3C0E0D2
:10064300E0A3C0E0E0A3C0E010AF08858218858373
:10065300198008858218858319D2AFD083D082028E
:1006630007FDC0E0C3E49396087401939618400F06
:10067300E49366700808740193661870007019A3F8
:10068300A3C3E49396087401939618A3A3400DD0D3
:10069300E0D0E0D0E00205C9A3A3A3A3A3A3D0E0C5
:1006A300227404800474028000CCC0E0EDC0E0E555
:1006B30018C39CCCAD1950011D10AF068C188D19B1
:1006C30080068C188D19D2AF120779D0E0FDD0E0E7
:1006D300FC2274028000CCC0E0EDC0E0E518C39CAE
:1006E300CCAD1950011D10AF068C188D1980068CE6
:1006F300188D19D2AF120757D0E0FDD0E0FC22C00D
:10070300E0C0F088F0E493667008087401936618FB
:100713007000A8F0A3A3700BD0F0D0E0D0E0D0E03D
:100723000205C9A3A3D0F0D0E022D083D082CCC0ED
:10073300E0E493A360061207B91470FAE493A3608C
:10074300061208FC1470FAD0E0FCE493A3C0E0E4C2
:1007530093C0E022CAC0E0E493A3C582CCC582C59E
:1007630083CDC583F0A3C582CCC582C583CDC583A4
:10077300DAE5D0E0CA22CAC0E0E0A3C582CCC582D4
:10078300C583CDC583F0A3C582CCC582C583CDC542
:1007930083DAE6D0E0CA22C008C3E096F50808A3CE
:1007A300E096420808A3E096420808A3E0964508AD
:1007B3007001D3D00822C0E0E493A3D39C5010E48B
:1007C30093A3C39C400AD0E0D0E0D0E002074AA341
:1007D300A3A3D0E02270090808082260161818188D
:1007E300C6C333C608C633C608C633C608C633C62F
:1007F300D5E0EA22C09FF59FE473D09F22D083D037
:1008030082C09FE493C0E0740193C0E0740293F547
:100813009F22C0E0C0D0E8C0E0A8A8D2AFC2C7758D
:100823001A00E8A2E792AFD0E0F8D0D0D0E03200CF
:10083300C0D0251810AF08F518500C05198008F51D
:100843001850020519D2AFD0D0227404800A740361
:100853008006740280027401C0E0F404120868D0B8
:10086300E0120AC6222518F58210AF08F518400CCD
:1008730015198008F51840021519D2AF851983227E
:10088300BB0102E722C082C08389828A83BB000343
:10089300E08002E493D083D082226016080808C661
:1008A300C313C618C613C618C613C618C613C6D5AF
:1008B300E0EA222518F8E43519F9222518FAE43577
:1008C30019FB222518FCE43519FD22C3E0C696F670
:1008D30008A3E0C696F608A3E0C696F608A3E0C60A
:1008E30096F622251810AF08F518400C1519800844
:1008F300F51840021519D2AF22C0E0E493A36C703F
:1009030009D0E0D0E0D0E002074AA3A3D0E022E080
:1009130066701008A3E066700A08A3E06670040816
:10092300A3E06622C3E09608A3E09608A3E0960836
:10093300A3E096A2D265D03322E76670100809E7D8
:1009430066700A0809E76670040809E76622C3E6C9
:1009530097F60809E697F60809E697F60809E69771
:10096300F622C3E49396087401939608740293964F
:10097300087403939622C3E096F008A3E096F00868
:10098300A3E096F008A3E096F022E657F60809E6FE
:1009930057F60809E657F60809E657F622E026F661
:1009A30008A3E036F608A3E036F608A3E036F622FD
:1009B300E493F608740193F608740293F60874033B
:1009C30093F622E056F608A3E056F608A3E056F69F
:1009D30008A3E056F622E056F008A3E056F008A379
:1009E300E056F008A3E056F022E647F60809E6478A
:1009F300F60809E647F60809E647F622700422607E
:100A03000D18C6C333C608C633C6D5E0F41822E6AC
:100A130027F60809E637F60809E637F60809E63740
:100A2300F622E026F008A3E036F008A3E036F0084B
:100A3300A3E036F022E4C396F608E496F608E496BB
:100A4300F608E496F622600D08C6A2E713C618C698
:100A530013C6D5E0F322C6F4C608C6F4C608C6F426
:100A6300C608C6F4C622C3E7960809E7960809E74D
:100A7300960809E79622C3E09608A3E09608A3E048
:100A83009608A3E0962275D00075813F751801750D
:100A930019030002041AE6F008A3E6F008A3E6F03F
:100AA30008A3E6F022600C08C6C313C618C613C613
:100AB300D5E0F422E0F608A3E0F608A3E0F608A3E5
:100AC300E0F622CAC0E0E6F0A308DAFAD0E0FA22A0
:100AD300E8F0A3E9F0A3EAF0A3EBF022E0F8A3E047
:100AE300F9A3E0FAA3E0FB22E0FAA3E0FBA3E0FC16
:100AF300A3E0FD22E5C754F84401F5C77901222597
:100B030018F582E43519F58322C2AF75D69F02002A
:100B13000022120800EBFF02120800EEFF02120887
:100B230000F1FF02120800F87F00120800D3F0035F
:100B33001208000BF1031208004DF203120800D152
:100B4300F203120800BBC603120800E7C60312082B
:100B53000058C90312080098C903120800D8C90332
:100B6300120800ECC90312080005CA03120800F6B4
:100B7300CA031208009BCB03120800AFCB03120871
:100B830000B4F403120800D8F403120800F1F403CC
:100B930012080023F50312080053F503120800801E
:100BA300F5031208008AF503120800ECF503120896
:100BB30000FBF50312080005F60312080012F60302
:100BC30012080045FD0212080065FD02120800A488
:100BD300FD02120800BFFD02120800DEFD0212082A
:100BE3000044FE021208004DFE02120800AAFE0293
:100BF300120800CEFE021208008FFF021208009CAA
:100C0300FF02120800ADFF021208004AFF03120898
:100C13000062FF031208008EFF0312080005CC03D5
:100C23001208005FCD031208006DCD031208008087
:100C3300CD0312080095CD03120800AACD031208B4
:100C430000BDCD0312080031CE0312080096CE0377
:100C53001208001ECF031208009ACF031208005E89
:100C6300D0031208006ED0031208007DD0031208CF
:100C730000CFFC03120800F3FC031208001BFD0362
:100C830012080043FD03120800DCFD0112080003F3
:100C9300FE0112080021FE0112080094FE01120851
:100CA300003FE90312080058E90312080064E9034E
:100CB30012080078E90312080096E903120800A05D
:100CC300E903120800AAE903120800BDE9031208A8
:100CD3000043EA03120800B8EA03120800E7EA0334
:100CE30012080035EB0312080084EB031208009F7F
:100CF300EB03120800A9EB03120800BAEB03120876
:100D030000FDEB03120800A8FE03120800F3FE0324
:100D130012080064B6031208008EB603120800AB73
:100D2300B603120800BEB603120800D4B6031208B5
:100D33000032B7031208006AB7031208005EBB0350
:100D4300120800A3BC03120800D6BC031208003922
:100D5300BD0312080099BE03120800C1BE031208A6
:100D630000D6BE03120800E6BE031208002ABF0322
:100D730012080085BF0312080095BF031208005C28
:100D8300F70312080076F7031208009EF703120810
:100D930000B7F703120800DBF703120800F9F703A3
:100DA30012080010F8031208003EF8031208005955
:100DB300F80312080016FC031208005AFC03120879
:100DC3000073D90312080083D90312080088DA03D9
:100DD300120800BADA03120800E0DA03120800036B
:100DE300DB031208001ADB0312080054DB031208AA
:100DF30000B9DB03120800FBDB031208003ADC0333
:100E03001208006BDC03120800A2DC03120800D4F2
:100E1300F203120800E6F203120800F9F3031208C2
:100E23000086F40312080007FE0312080044FE03C1
:100E330012080086FE0312080096FE03120800C57E
:100E4300BF03120800FFBF0312080068C0031208A3
:100E53000085C00312080027C10312080030C10334
:100E630012080075C1031208009EC103120800ABEB
:100E7300C1031208001CC203120800A7C203120810
:100E830000F5C20312080033C30312080098C3031A
:100E9300120800BBC30312080032C40312080089FE
:100EA300C403120800C4C403120800F9C4031208DF
:100EB300000BC5031208001DC5031208003CC5033F
:100EC30012080045C50312080005C60312080051A5
:100ED300C6031208008FC6031208001CF60312088B
:100EE300009DEE03120800D3EE031208001BEF036C
:100EF30012080074F0031208000080031208002493
:100F030081031208005E810312080008830312089C
:100F130000328303120800A78503120800E7850344
:100F23001208007D87031208001A88031208006C58
:100F330088031208000F8903120800478903120867
:100F430000898903120800F88A03120800468C03FB
:100F5300120800778E03120800A58E03120800CC36
:100F63008E03120800D58E03120800258F03120882
:100F730000B78F03120800E6920312080069930377
:100F830012080068FD031208007EFD0312080088A2
:100F9300FD03120800DCFD03120800B6D00312089B
:100FA30000CCD0031208006DD103120800ACD103AA
:100FB300120800C9D103120800FAD103120800472E
:100FC300D2031208007AD203120800B5D203120822
:100FD30000B0D40312080018D503120800FFFE0363
:100FE3001208008EF903120800EDF9031208002B12
:100FF300FA031208006CFA0312080006C301120870
:101003000012C30112080074C3011208007EC30159
:101013001208000DC40112080049C401120800FEA1
:10102300C40112080071C50112080005C6011208A7
:10103300007EC6011208002AC801120800B9CA01BD
:101043001208000DCC011208009ECC01120800DD2D
:10105300CD01120800D4CE0112080020D0011208DD
:1010630000EAD401120800D3D50112080066D601A4
:101073001208008BD601120800B0D60112080048EE
:10108300D7011208005ED701120800C4D701120865
:1010930000E0D7011208000CD8011208001DD90185
:1010A300120800EFD9011208006ADB011208008B55
:1010B300DB011208000EDC01120800B4DC01120887
:1010C30000FCDC011208006ADD01120800F5DD01F5
:1010D30012080051DE01120800E2DE011208003B93
:1010E300E0011208007EE10112080009E201120882
:1010F300006CE201120800B6E4011208004EE6019A
:101103001208005EE60112080092E60112080007C9
:10111300E70112080041E701120800AFE7011208D6
:101123000044E80112080044EA0112080008EB0138
:101133001208000AEC01120800BFED011208004773
:10114300E00312080001E10312080067E10312083B
:101153000013E20312080091FF03120800FADC03F4
:1011630012080067DD0312080031DE03120800C312
:10117300DF0312080003E0031208002BE003120848
:101183000006D0021208005BD002120800E1D00270
:10119300120800F1D1021208003ED202120800FB2D
:1011A300D20212080012D30212080064D3021208FA
:1011B30000A1D302120800B4D3021208000AD40219
:1011C3001208009AD60212080031D7021208005BF7
:1011D300D70212080093D702120800C9D9021208D5
:1011E300000FDA0212080059DA021208002DDB029E
:1011F3001208006EDB0212080091DB02120800D80D
:10120300DB02120800EEDB021208006FDC02120898
:1012130000FCDC0212080056DD0212080091DD0218
:10122300120800A7DE021208002CE102120800587F
:10123300E20212080093E20212080060E3021208BD
:1012430000AAE302120800ADE302120800B6E302AB
:10125300120800C8E30212080049E4021208007FE2
:10126300E402120800ABE402120800D2E4021208FE
:1012730000F6E4021208008DE502120800A6E5025A
:10128300120800D9E502120800F9E5021208003637
:10129300E6021208006DE6021208006CE70212086B
:1012A300009FE802120800767F00120800827F0088
:1012B300120800BE7F00120800E8FF03120800E0D6
:1012C300EF0112080003F001120800E7F001120811
:1012D3000030F10112080088F101120800E4F10165
:1012E30012080030F201120800A6F20112080034BD
:1012F300F301120800ACF301120800EFF301120826
:101303000000F80112080047FA0112080074FB01FB
:101313001208000AFC0112080045A003120800E5A8
:10132300A0031208004FA103120800F6A10312083C
:10133300005AA2031208008DA303120800B3A403EA
:101343001208002CA50312080004A703120800AC1E
:10135300A703120800DEA80312080086A9031208D7
:10136300009BAA03120800B5E8021208002DE90247
:1013730012080075E902120800B9E9021208000216
:10138300EA021208004CEA0212080081EA0212087B
:1013930000FFEA0212080059EB02120800B2EC0245
:1013A3001208003BED0212080097ED02120800B18B
:1013B300ED02120800D8ED0212080030EE02120806
:1013C300009AEF02120800B9EF02120800E1F002DE
:1013D3001208005EF102120800CBF1021208002D80
:1013E300F202120800DDF202120800AFF402120842
:1013F300009AF50212080094F6021208009AF70206
:10140300120800B6F802120800C4F8021208009D80
:10141300F9021208003DFA0212080081FA021208CA
:101423000096FA02120800A7FB021208004AFC0207
:10143300120800A2FC0212080071E6031208007FE2
:10144300FB0312080067E803120800CBE803120845
:10145300006EE30312080089E303120800CDE303DF
:10146300120800F3E30312080019E4031208003121
:10147300E40312080094E403120800A9E403120829
:1014830000CBE503120800D4E503120800DDE503F1
:10149300120800E6E50312080025D503120800052B
:1014A300D903120800DBFF021208000CD90312084B
:1014B300002AED0312080000800412080017AC0292
:1014C3001208006EAC02120800DAAC0212080066C1
:1014D300AD021208001CAE0212080064AE0212082C
:1014E300007DAE02120800A0AE02120800C2AE02D6
:1014F30012080000AF021208004FAF021208007A70
:10150300AF02120800D8AF021208007FB00212081F
:101513000027B102120800A3B10212080070B20240
:10152300120800BCB20212080044B3021208007D84
:10153300B3021208000EB4021208001FB40212080C
:101543000091B4021208002AB50212080094B502F1
:1015530012080084B602120800A9B602120800A6F7
:10156300B702120800B3B702120800BCB702120890
:1015730000A5B902120800C1BA0212080052BB0248
:10158300120800C3BB021208009DBD0212080068C6
:10159300C1021208007CC1021208008CC1021208A9
:1015A3000096C1021208009FC102120800A8C102DE
:1015B300120800B2C102120800E1C1021208000FB2
:1015C300C2021208001AC2021208003EC202120826
:1015D3000062C202120800D4C2021208001DC30234
:1015E30012080039C302120800AAC302120800F647
:1015F300C3021208003FC4021208007DC40212088D
:1016030000FEC402120800C9C60212080068C7021D
:1016130012080030C802120800BCCA0212080011E6
:10162300CB0212080039CB021208006CCC0212085C
:1016330000B1CC0212080006CD02120800B4CD029C
:1016430012080059CE021208008ECE021208002E94
:10165300CF02120800AACF02120800B32400120816
:1016630000E52400120800192500120800CD260009
:10167300120800A127001208000028001208001613
:101683002900120800622900120800FF2B0012082B
:1016930000742E00120800C02F00120800583000FA
:1016A300120800643000120800AD3000120800E098
:1016B30030001208006C31001208007E320012085C
:1016C30000BF3300120800BE3400120800E83400E3
:1016D300120800533500120800AC35001208001F31
:1016E3003600120800553800120800DB39001208D2
:1016F30000C63A00120800143C001208004C3E00D9
:10170300120800434100120800524100120800E68B
:101713004100120800914200120800D4420012084E
:10172300004043001208005C43001208008B430092
:10173300120800CA4300120800B2440012080061F4
:101743004500120800D847001208000A4900120891
:1017530000D949001208005B4A00120800A74E0096
:10176300120800D64E00120800314F001208006420
:101773004F00120800BF4F00120800DB4F00120891
:10178300003C50001208008C50001208003B51002E
:10179300120800FE5100120800C65200120800127F
:1017A30055001208009E5600120800F55700120853
:1017B300001159001208001459001208004359007F
:1017C300120800325B00120800FB5B001208003CA9
:1017D3005C00120800925D00120800085E00120807
:1017E300003B5E001208009F5E00120800C060000C
:1017F3001208001F6100120800F5610012080009B9
:1018030062001208001D62001208004A62001208FA
:10181300007A62001208001E64001208001B6500B3
:101823001208006965001208009065001208006B39
:10183300660012080011670012080097680012087A
:1018430000DE68001208004B6900120800A06A005D
:10185300120800496B001208007D6B001208009506
:101863006B00120800386C00120800B46E001208F6
:10187300005C70001208008070001208009E700067
:101883001208006A7100120800B87400120800BC44
:101893008101120800EE81011208006E8601120810
:1018A30000BD8601120800038701120800A6870104
:1018B3001208000B88011208004F8801120800B6B5
:1018C3008901120800E28A01120800DF8E01120862
:1018D300005E8F01120800849001120800E7900156
:1018E300120800339201120800CB94011208005829
:1018F30095011208006295011208008A95011208E9
:1019030000529601120800E7960112080010970191
:101913001208003D97011208009299011208005F16
:101923009A011208009E9A01120800209B011208D6
:1019330000CB9B01120800FD9B01120800489C018B
:10194300120800819C01120800D09C011208002C8F
:101953009D01120800AE9D01120800139E0112089A
:10196300008B9E0112080034A0011208002CA10173
:101973001208006DA201120800C1A5011208001D82
:10198300A801120800D6A8011208001EA901120816
:1019930000FFAA011208003AAB0112080043AB0191
:1019A3001208004CAB0112080057AB011208007675
:1019B300AB0112080029AC0112080086AC01120821
:1019C3000090AC011208009AAC01120800E6AC01C9
:1019D3001208002EAD0112080032AE01120800CB2E
:1019E300AE0112080092AF01120800BCB001120848
:1019F30000E7B101120800DDB201120800F5B201DF
:101A030012080029B30112080047B3011208008F1E
:101A1300B301120800C8B3011208007FB401120811
:101A23000040B501120800B3B5011208002FB6013A
:101A3300120800CBB601120800F1B701120800AD7D
:101A4300B8011208004DB9011208003ABA01120890
:101A53000092BA0112080058BB011208007BBB01B7
:101A630012080090BC01120800DBBC011208003709
:101A7300BD011208009FBD01120800C3BD01120879
:101A830000EBBD0112080030BE0112080054BE0174
:101A9300120800D8BE01120800C1BF0112080006D7
:101AA300C0011208002FC001120800CDC0011208A6
:101AB3000038C10112080064C10112080045C201C7
:101AC300120800E4AB031208001CAC031208003D2B
:101AD300AC031208007FAC03120800E3AC03120846
:101AE30000EDAC03120800FDAC0312080034AD0393
:101AF300120800DDB003120800A5B2031208008922
:101B0300B4031208002BB503120800B5B50312087D
:101B1300002F8102120800938102120800F1810252
:101B23001208003C82021208005782021208007E4B
:101B330082021208009B8202120800A78202120886
:101B430000388402120800518402120800CD840276
:101B5300120800E08402120800F0840212080094C4
:101B63008502120800008702120800138802120877
:101B730000B38802120800BD88021208003C8902E3
:101B83001208004D89021208008C8902120800BA5B
:101B93008902120800878A02120800DE8A021208EC
:101BA30000178B021208006D8B021208008B8B0248
:101BB300120800D98B02120800A48C02120800F24A
:101BC3008C021208003F8D02120800C28D02120817
:101BD30000EC8D02120800228E02120800318E02E0
:101BE300120800908E02120800088F0212080049A2
:101BF3008F02120800998F02120800C48F02120884
:101C030000DE8F02120800F88F02120800CD900246
:101C1300120800D790021208001291021208002243
:101C230091021208002B91021208007C9102120803
:101C330000909102120800B29202120800C99202A7
:101C4300120800DE9202120800719302120800E5E6
:101C530093021208008A9402120800959402120853
:101C630000F595021208001196021208005D960213
:101C7300120800CB9602120800FD96021208001704
:101C83009702120800599702120800AC9902120831
:101C930000449A02120800BB9A02120800189D021F
:101CA300120800309D02120800339D021208003F03
:101CB3009D02120800539D021208005B9D02120848
:101CC30000929D02120800869E02120800109F02D5
:101CD300120800929F0212080012A002120800E9E3
:101CE300A0021208000BA102120800A4A10212080C
:101CF3000001A20212080004A20212080031A2028B
:101D030012080046A202120800B5A202120800013E
:101D1300A40212080014A5021208009FA5021208CB
:101D230000B2A60212080077A702120800A8A702B1
:101D3300120800CEA702120800D7A7021208000655
:101D4300A802120800B6A80212080066A902120827
:101D530000D9A9021208007CAA02120800EFAA0205
:101D63001208002EAB0212080077AB02120800AC77
:101D7300AB0212080070FB0312080060FB03120899
:101D830000D5FF03120800EBFF0312080048FB0312
:101D93001208003DFB031208009FFA031208008E8D
:101DA300FA031208006C9F03120800929E031208A4
:101DB30000C89D03120800379C03120800009C030F
:101DC300120800D29B03120800869B03120800EF3F
:101DD3009A031208005F9A03120800399A03120843
:101DE30000EE9903120800B899031208003B990307
:101DF300120800D69803120800859803120800AD54
:101E03009703120800FDFF021208001D9703120832
:101E130000FAFF02120800F7FF02120800F4FF02A3
:101E2300120800F37F0012080075F903120800D1AD
:101E330096031208004C9603120800079603120833
:101E430000EB95031208000FF903120800939403A3
:101E5300120800659403120800329403120800B6B6
:101E630093031208008CF8031208002B7F0012085A
:101E7300000AD903120800D27E001208009D7E00DA
:101E8300120800687E00120800347E00120800C7A2
:101E93007D00120800AF7D001208008A7D00120841
:101EA30000637A001208003678001208003D7600BD
:101EB300120800C975001208007A75001208003470
:101EC3007500120800D6740012080010FC031208F3
:101ED30000AAE70300000080FB8F000100D90F87F1
:101EE300000100381235000400FE11250002000233
:101EF3001226000200041227000200061228000125
:101F0300001012290001001112840004001212862D
:101F130000010016122A00010017122B00010018FD
:101F2300122C0001001C122D000800BB0F2E000113
:101F3300001D122F0001001E12300001001F12317C
:101F4300000100201232000100C30F33000100C45E
:101F53000F34000100211236000100C50F380001C3
:101F6300002212390001001B1283000200361263A3
:101F7300000100D60F640001001912650001001A68
:101F8300126D000100D70F71000800B30F66000146
:101F930000351243000100261244000200271245B7
:101FA3000001002912460002002A1247000800CE51
:101FB3000F480001002C124B0001002D12040001F8
:101FC300003912A10001003C12370001003B1288C6
:101FD3000001003A123C000100C60F3D000100233E
:101FE30012490002002E1267000100D80F4D0002B3
:101FF3000030124E00010032124F00020033123E35
:10200300000100CD0F51000100C70F520001002451
:102013001253000100251254000100C80F000000F4
:102023000000000001363601010001020100010336
:10203300010001040106060502000007010034083F
:1020430001000F090401010D0100FF0E0800001734
:10205300020000190100FF1A0100011B0100FE1C10
:102063000100081D0200001F0100012001000121E1
:102073000200002301000F240200002601000127B3
:10208300010008280200FF2A0100072B0102402C4F
:102093000100002D0100012E0100012F0100FF307E
:1020A300010B1D310800003A0100083B01000F3C01
:1020B3000100013D0100FF3E040000420400004610
:1020C3000400004A0400004E0400005204000056BD
:1020D3000400005A0400000103710301030103011A
:1020E300030103010322030203010310030003009E
:1020F300030003000300030003000342030003245F
:10210300030603000300030403120325032303252B
:102113000323030403040300030003000344030035
:102123000300032303000365032100350381030038
:102133000305030003000300030003250323030334
:1021430002710230016002110270020102020202F6
:10215300028002100261023A0041006302730272BC
:10216300026202430200021302380000020002046A
:1021730002120200020002000200020402040237FB
:102183000037003C024402000239000002000265ED
:10219300020002350281020002050282028302006C
:1021A300020101710101010101110101013101016B
:1021B3000101018001100161013B001400630173FF
:1021C300017201620143010001130106013D013562
:1021D30000040112010001000100010001040104D7
:1021E30001330133013C0144013201360000010097
:1021F30001650100013500810100010501820183B0
:102203000100010300710030016000110070003112
:1022130002200350048000100061000000140063DA
:102223000073007200620043000000130006000008
:102233000000000400120000000000000000000481
:10224300000400370037003C024400000000000097
:10225300000000650000003500810000000500005B
:10226300008300000036000100060000000F00009C
:10227300000000000000000000000003FFFF00005A
:102283000403FFFF0000FFFF0FF4010005C4040374
:1022930020000100000B000000000000000003010B
:1022A3000F0000000000000000000000000000001C
:1022B300000000000000000000000000000000001B
:1022C300000000D3102111D91019100000000000E4
:1022D3000000000000000000000000DF101910E5FE
:1022E300101910EB101910F1101910F7101910FD37
:1022F3001019100311271109111910000000000013
:10230300000000000000000F113911151119100F02
:1023130011391115111910031127111B111910006F
:102323000003002001B981000000002001B88100F2
:10233300000400420196800000050042013881003C
:1023430000060042012680000007002001BB810037
:102353000010004203CE11000011002003BA0E004A
:102363000012002003DF11030000002103BB0E0A4B
:10237300000000020000000400000008000000103C
:10238300000000200000004000000080000000006A
:10239300010000000200000004000000080000002B
:1023A300100000002000000040000007ECFDFDFDD0
:1023B300ECDCDCCCBCACAC9C9C8C7C7C6C6C5C5C4A
:1023C3005C4C4C3C3C2C2C1C1C03EAF5E5D5D5C5D8
:1023D300B5A595958585757565655555454535351A
:1023E3002525151505010031130200DD120300E355
:1023F300120400E9120500EF120600FB12FFFF00B2
:10240300000A011902D11805E31807D7180CB918E7
:102413000DC518FF000000160F00000B150B02007E
:1024230002220F3300000E01030507090B0D0F00F5
:10243300020406080A0C0D5A6967426565416C6C13
:1024430069616E6365303900393D3F373C3C362C5A
:10245300442D00034A49434E181A25050200011969
:102463001618161618230300303017181921301BBD
:102473001D1F30303016181920231A1C1E300C0E65
:10248300020B040B0A0708000F02040201010101F9
:102493000902E803000000BE040AE8030E001E0A56
:1024A3000409101E030A040C0408280C050803047D
:1024B300C082C083121E5F9010047473F0A374165D
:1024C300F09010067479F0A37416F0901008747FDE
:1024D300F0A37416F090100A7485F0A37416F0023A
:1024E3005BF474F71203AEE9FE900FF8E4F0EE909C
:1024F3000FF7F07CCE7D0F7AF97B0F120FF5901258
:102503002CE0901001F090100274B3F0A3740FF05C
:102513001216A90249D474F01203AE8A088B09EB90
:1025230054807003022671900FF7E0F9120E758A3A
:102533000A8B0BAE0AAF0BEE4F7003022668124DE7
:10254300CD707EEE241F12511364137002A3E0704A
:10255300708E828F83A3A3E0F50EA3E0F50F901096
:10256300121255FD750A00750B00800D1233A81267
:102573005DC7120EF3AA0CAB0DEA4B60448A828B43
:1025830083E0650E7004A3E0650F70288A828B8355
:10259300A3A3A3A3124DEBE50A450B8A828B83A366
:1025A300A3A3A360C712432A850A82850B83A3A32F
:1025B300A3A380BB8A0A8B0B8A828B831255F98073
:1025C300B8EE242A125113F91261809010121238B6
:1025D30041A3A3A3A3A3A3A3A3E0640270378A82A6
:1025E3008B831255FD80078C828D83123AA5EC4DA7
:1025F30060208C828D83E06A7003A3E06B70E88CAB
:10260300828D83A3A3E06970DE901232124767F0D4
:10261300804C1216C18E828F83E064017034EE24E5
:10262300181226C51208591241CB1206A4EE241221
:102633001226C51208591241BF12085512327012E0
:1026430006A8EE24171241D3121EAD740A120832E3
:10265300800CE064027007EEFAEFFB1217E1EEFA6A
:10266300EFFB120E63AA08E5096480FB8051EA546C
:1026730002600C9012407401F0EA6402FA8040EAAE
:10268300540460091216AFE50864048029EA54086B
:1026930060291216BB8B0BEA450B7016901014E4DD
:1026A300F0A3F0A3F0A3F07A08FB900FF7E0F91280
:1026B3000FBFE5086408FAAB0980047A007B0002C7
:1026C3003C0F124DD7F50A780A2274F41203AE8A2E
:1026D300088B098A828B831256121240BF38F58306
:1026E300E02409FA7B00120E5D8A0A8B0BAE0AAF57
:1026F3000BEE4F70030227918E828F837402F0A337
:10270300E4126504A3A3A3A3E8F0A3E91261A4A3BD
:10271300A3A3A3A3A3A3F0E5082403F8E4350912B4
:1027230058B51240BF3AF58312383AF0EE2409FA4D
:10273300E43FFB8E828F83A3A3125D52F5838882CD
:10274300E0A2E58E828F83A3A3A3A3A35004740105
:102753008001E4F0E5082403F8888289831255FD9B
:10276300EA1240B33BF583122794120851EA24106E
:10277300125DED8E828F831255FB120E3F7403128E
:102783000832EEFAEFFB900FF7E0F9120E69023010
:10279300A8E0F508A3E0F509750A0078082274F2A9
:1027A3001203AE8A088B09ECFAEDFB740E120B02CE
:1027B300E0FC121E0B8A0C8B0DAE0CAF0DEE4F60BE
:1027C30030AC08AD09121E3BE96026AC08AD09EE3A
:1027D300FAEFFB121E35E970148E828F83124322A7
:1027E300FAEFFB121E41AA08AB09121DED79008016
:1027F3000279B480031208327F0602061F74EE12B8
:1028030003AE74F71208E68A0A8B0BECFEEDFF7534
:102813000CB3750D00750E008002050E9024B2E412
:1028230093F8E50EC398400302290FAA0E7B00120A
:102833001DC98A088B09EA450960DF8A828B83A355
:10284300A3A3A3A3E0250DF50DF8C3E50A98E50BB3
:10285300940050C67C157D007900EEFAEFFB120E52
:102863004B850882850983A3A3A3A3A3E0F8E50A04
:10287300C3950D2825E0F8E433F9E50828F582E54A
:102883000939F583123610125DC71219918A0A8B22
:102893000BAC0AAD0BEEFAEFFB120FF58508828540
:1028A3000983A3E06401700B1241CB7401127047DA
:1028B300A3803DAC18AD198508828509831255FBA9
:1028C300121DE1E9602D7408120B02E0C0E0124111
:1028D300CBD0E0F07408120B02E06403700CAC1868
:1028E300AD19123832120FF58009851882851983C4
:1028F300125DBB850882850983123BE2A3A31264A0
:10290300DBC0E0123E00D0E0F0750C00A90C7409A6
:1029130002687674F71203AEE9FE8A828B83A3A35F
:10292300A3A3A3A3E0540860338A828B83A3A3A346
:10293300A3A3A3E0540260218A828B83A3A3A3A34E
:10294300A3A3A3A3A3E06406600F74E96E600A74F3
:10295300CD6E600574F06E70031216910249D47443
:10296300E81203AE74F81208E67406120B02124E54
:10297300A1ECFEEDFF8917751500122BD8121DF976
:102983008A0A8B0BEA450B7003022B94EE24101278
:1029930039C7A90A1215D18A128B13EA451370039A
:1029A300022B94EE2403F50CE43FF50DEE2406F51B
:1029B30008E43FF5097C00850882124117121DF3D4
:1029C3008A108B11850C82850D83E0851282851315
:1029D30083A3A3A3125691851282851383A3A3A372
:1029E300A3E8F0A3E9123278851282851383A3A3A7
:1029F300A3A3A3A3A3124E5E851282851383A3A36D
:102A0300A3A3A3A3F0EE1240B33F122BE912085184
:102A1300EE1240BF3F125DF1851282851383A3122C
:102A230055F5120E3F74031208327428120B02126A
:102A3300432AE5121247593513125DC5742A120B46
:102A430002E0C0E0E5121240B33513F583D0E0F0A5
:102A53007514007423120B02E0F5167424120B0292
:102A6300780C120AB7022B1B85108285118312552D
:102A7300FB121DDB850882850983A3EAF0A3EB1211
:102A83002BFAA3A31261BC122BF4A2E6500F850804
:102A930082850983A3A3A3A3A3E0D2E1F0E5157084
:102AA30066850882850983124329901048E068707F
:102AB30003A3E0697051850882850983A3A3A31248
:102AC30039D57510007810120859780C12084DE5A5
:102AD30016F51078101208597426120B021206A864
:102AE3009010551206A879007410120B0212619C03
:102AF300121811740A120832850882850983A3A368
:102B0300A3A3A3E04405F074012514FC122BD812EF
:102B13001DF38A108B110514E5104511604EC3E5B2
:102B230014950AE4950B5044E51475F006A4F8A92E
:102B3300F0E51228F8E51339F9E8240FF508E4392C
:102B4300F509850882F583E412746DE0640160037E
:102B5300022A6B7515018508828509837401122B7E
:102B6300FA12507EA3E8F0A3E9022A82AA12AB1359
:102B73001215D77812120855AD167424120B02E001
:102B8300FCA917EEFAEFFB12168B740212083280BF
:102B93003A8E828F83A3A3A3E0C0E07403120B02D7
:102BA300D0E0123278C0E07404120B02D0E0F0E5FA
:102BB3000A450B70097405120B0274B9800774057A
:102BC300120B027410125E0212180B7408120832F0
:102BD3007F1002061F8E828F831256018E828F838F
:102BE300A3A3A3E0F922F583124DEF750E00780C31
:102BF30022A31261E5E022127471A32274E9120385
:102C0300AE74F31208E68A0C8B0D89168C148D159D
:102C13007424120B021254F9AA08FB1215C5E9F524
:102C230013AA08AB091215CBE5137003022E4575E1
:102C33000E00800F8E828F83A3A3A3A3A3E0D2E30E
:102C4300F0050E123E0AE0F8E50EC3984003022E8B
:102C53003CE5137003022E3CE50E75F006A4F8A9BB
:102C6300F0E50828F8E50939F9E8240FFEE439FF0F
:102C73008E828F83A3A3A3A3A3E0A2E040C3750F17
:102C830000750A08750B00E5156003750F207C08B5
:102C93007D007900AA18AB19120E4B8E828F83E048
:102CA3006037901098E064017017E50FD2E3F50FD9
:102CB300750B108E828F83122E671257E074FF807C
:102CC30028430F0C750A0C8E828F83A3122E5DA3EB
:102CD300A3A3A312686BA38010E5166009E50FD2C6
:102CE300E6F50F750A0A122E67F07402120B02E55D
:102CF3000FF01240BD350DF583E0C0E07404120BF4
:102D030002D0E0F07405120B02125E001217E77492
:102D13000C120B02E06003022E1F7408120B021246
:102D2300565F8E828F83A3A3A3A3F07408120B02B2
:102D3300124E13E50AF0A3E50BF0124DC3E514128E
:102D43002BF56011901098E0C0E07408120B02128A
:102D53004E03D0E0F07408120B02123E2AA3A3A381
:102D6300122E58124DBA124EA11268D6122E5812B4
:102D73004DB1EAF0A3EB126408C0E0124DA7D0E016
:102D83001264CCC0E07408120B021248F9D0E012AE
:102D930060B5C0E07408120B021248EDD0E0F07485
:102DA30008120B02122E5D1248DC122FB0122E589D
:102DB300242CF582E439F583124EA1E50C12473930
:102DC300350DF583E0C0E01248D4D0E0F07408126A
:102DD3000B021255FD850C82850D83122E4F24287C
:102DE300F582E43B125DC5E50C1240B3350DF58366
:102DF30012688675120078101208511240BD350D05
:102E0300125DF1EA1260323BF5831255FD120E3F5B
:102E13007403120832AA18AB191217ED8E828F832E
:102E2300A3A3A3A3A3E0D2E0F0740C120B02E0600F
:102E330003022C371513022C447900AA08AB09129C
:102E43001697740D1208327F0F02061FA3A3A3A3C4
:102E530012432EEA22125607E82212432E850C82D1
:102E6300850D8322A3122E6C22125D87E8F0A3E95D
:102E73002274EE1203AE74E91208E68A088B0989FC
:102E83000A8A828B83A3A3A3A3A3A3A3A3E0F91218
:102E930015EF8A0C8B0DEA450D7003022F3F125478
:102EA300C5123AC0E50A6003022F447C04850882F8
:102EB300850983A3A3A3A3A3A3A3A3E0F91215F5F1
:102EC300EE4F60788E828F83A3A3A31243297406E7
:102ED300120B02E8F0A3E91261CBF8A3E0F974083E
:102EE300120B02124E94C0E07410120B02D0E012C7
:102EF3002FB0124329740E120B02125DC774111204
:102F03000B02E4125682C8241FF582E438F58312BB
:102F130052C2C413135403FC70027C048E828F8349
:102F2300E0F9780C120855742059FD744059F9746E
:102F3300021208BE12168B7402120832741702684A
:102F4300767C08850882850983A3A3A3A3A3A3A3EF
:102F5300A3E0F91215F58B0FEA450F7003022EC398
:102F6300EE4F60D8E50AF50B780B120859850C82F1
:102F7300850D83A3A3A3A3A3A3A3E0F50B780B124F
:102F830008598A828B83A3A3A3E0FB8A82850F83DC
:102F9300123AA88A82850F83E0FA8E828F83A3A3D5
:102FA300E0F9121EB37402120832022EC7F0850C28
:102FB30082850D83A3A3A3A3A3A3A3A32274F712C0
:102FC30003AE74FA1208E6E9FE7C017D017F0080FE
:102FD300037D000F125108E0F8EFC3985028EF75F6
:102FE300F006A4F885F008A908EA28F8EB39F9E80F
:102FF3002414125AAAA2E050D8540C60D4E0A2E2DE
:1030030050D17C0080CD8A828B83A3A3A3A3A3A3E7
:10301300E0703DEDA2E0400574016E70338A828B4F
:1030230083A3A3A3A3A3A374011247A1E0C0E074E5
:1030330003120B02D0E0124799E0C0E07404120BB4
:1030430002D0E0F07405120B02EC125E0212180BB0
:1030530074060249D1C082C0837901121697025BBC
:10306300F474F41203AEEA4B9012406022E4F08A47
:10307300088B09F50AF50B780812084D7A027B00D4
:10308300900FF7E0F9120FB37404120832800F7433
:1030930001F07A027B00900FF7E0F9120FBF800571
:1030A30074021208327F0402061FC082C08390118B
:1030B300B0E075F005A4FCADF079007AE67B05126B
:1030C3000E4B7A00800A12325174FEF0A304F00A08
:1030D3009011B0E0F8EAC39840EC025BF4C082C000
:1030E300837A007B0080037A010B9011B0E0F8EB48
:1030F300C3985056EB75F005A4F8ACF0EC123268A7
:103103007003A3E0F460E274E628F8740539F9E883
:103113002403F850010988828983E024FFF0A3E0A7
:1031230034FF12590AF9E84970BDEB75F005A4F8AC
:10313300ECF974E628F8740539F98882898374FEFA
:10314300F0A3041234B8E4F0809FEAA2E050179091
:1031530081561206A47A047B00900FF7E0F9120F50
:10316300B37404120832025BF474F71203AEEAFE7E
:10317300EBFF9011B0E07003023248EE24111251BC
:103183001370030232488E828F83A31255F5121AED
:1031930009E96402600F8E828F83A3A3A3A3A3E034
:1031A30070030232487A008027123270123AA91251
:1031B3003251E06C7003A3E06D7014EE24121251CF
:1031C30013FC74E828F5827405125AAD6C607B0A0F
:1031D3009011B0E0F8EAC39840CF7A0080010A90DA
:1031E30011B0E0F8EAC3985061EA75F005A4F8ABB2
:1031F300F0EB1232687003A3E0F470E274E628F88F
:1032030074053BF9123270126062EAF0A3EB1232DA
:1032130078888289831234B1740C124E5E7A04FB6F
:10322300900FF7E0F9120FC5EA4B4C4D70179081E0
:10323300561206A47A047B00900FF7E0F9120FB33D
:10324300740412083279010249D4790080F9EA75CD
:10325300F005A4F8A9F012325D2274E628F5827411
:103263000539F58322F912325DE064FE22EE126124
:10327300783FF58322F0126654E02274E81203AE1D
:1032830074FC1208E67402120B02E4F0A3F090102F
:1032930012123AC0851882851983E4F0A3F07514DD
:1032A30001901042E0A2E35003023334120FD78A95
:1032B300088B098C0A8D0B8A0C8B0D8C0E8D0F904D
:1032C3001014780C1208CE1233AF7810790C120A4E
:1032D3006950077A017B000233A3850C14850D1511
:1032E300850E16850F177814791012033FA814A9B9
:1032F30015901232E0C398E4995003E08001E8F599
:10330300141233AF780C791012033FE4F512F5135E
:10331300780879101209519010147808120A9980CC
:10332300101233A81251F9FAEFFB120EF3AE08AFE5
:1033330009EE4F60638E828F83A3A3A3E0F8E514A5
:10334300C3985029EE2403F582E43FF583A814E0E3
:10335300C398F060217402120B021244A9124E6347
:10336300EEF0A3EF1260BAFEA3E0FF80C48E828F5B
:1033730083A3A3A3E4F08E828F831254F58518826E
:1033830085198312567D8E828F83A3A3A3A3609195
:10339300125D7F1258D0808C7402120B021255FDFD
:1033A3007404022BD012432E90101222901230E09C
:1033B300F510A3E0F511E4F512F5132274F21203EC
:1033C300AE8A0A8B0BE9FE7A007B0090101212542E
:1033D300F990101212567D601E0A850882850983B2
:1033E300A3A3A3A312567D600E0AEA70010B8808FB
:1033F3008909E8450970E390123312432AC3EA9816
:10340300EB9940030234AE7A067B00120EED8A0C70
:103413008B0DA80CA90DE84970030234AE8882898C
:1034230083E50AF0A3E50BF0EE88828983A3A3F07A
:10343300901232125B04A31234B1A3E4F0A3F09010
:10344300101212433A600F850882850983A3A3A350
:10345300A3125DC7801F901012125DC7901042E047
:10346300A2E34011120FD7EAF8EBF9ECFAEDFB9067
:103473001014120AD3901042E0A2E3502E7A087B74
:1034830000900FF7E0F9120FC5EA4B4C4D701C90FA
:103493001230126EAB780812084D7A087B00900F39
:1034A300F7E0F9120FB974041208320227FBA3A341
:1034B3001234B8A322125A8FA3A322C082C083E975
:1034C300901241F090100C74DFF0A37416F090107A
:1034D3000E74F1F0A37416F09010107403F0A3743B
:1034E30017F0025BF474F71203AEEAFEEBFF8908F0
:1034F300EE4F7003121D8790101812567D700890BE
:103503001018802212432A88828983A3A3A3A3A32A
:10351300A3A3A3A312433A88828983A3A3A3A3A348
:10352300A3A3A3A370DEEEF0A3EF12353FA3A3A3DF
:10353300E4F0A312353FE508F00249D412354322E3
:1035430012354722F08E828F83A3A3A3A3A3A322C2
:1035530074F71203AE901018800D8E828F83A3A38D
:10356300A3A3A3A3A3A3A3123AC0EE4F60348E82F6
:103573008F83A3A3A3A3A3A3A3E06970DD8E828F8C
:1035830083A3A3A3A3E06A7003A3E06B70CC8E8232
:103593008F83A3A3A3A3A3A3E06C70BEEEFAEFFBF8
:1035A30080047A007B000249D474F71203AE9010B2
:1035B30018123AC0901018122E53687002EB6970FB
:1035C3001EE0C82409F582E438F58312432A9010DB
:1035D30018125DC7901018123AC08027123AB3EE42
:1035E3004F60208E828F83A3A3A3A3A3122E4F68C1
:1035F3007002EB6970E68A828B83A3A3A312361051
:10360300125DC7120EF3EEFAEFFB0249D4A3A3A394
:10361300A3A3A3123E1EA3A3A3A3A32274F0120386
:10362300AE74FA1208E68A088B098A828B83A3A3F5
:10363300A3A3A3A3A3A3E060336401602F8A828BB7
:10364300831255FD121A09E97022850882850983C0
:10365300A3A3A3A3A3A3A3A3E064037014740412FA
:1036630008C6AA08AB09121781E970167902023855
:103673001B85088285098312432A7404120B0212E4
:103683005DC71266472434125D3A120EED8A0A8B27
:103693000BAE0AAF0BEE4F70030238197C347D007A
:1036A3007900120E4B74021208BE850882850983C5
:1036B300A3A3A3A3A3A3A3A3A3E0F9121E6B740262
:1036C300120B02E0C0E012382AD0E0F0EE242EF50F
:1036D3000AE43FF50B7403120B02E0850A82850BA3
:1036E30083F07901EEFAEFFB1216CD85080C8509FC
:1036F3000D750E00780C1208517C1E7D00123832B5
:10370300120E3F7403120832EE2432123BD82434D3
:10371300F8E43FF98A828B83125DC7E5082411F828
:10372300E43509F9E8FCE9FD8C828D83124E1F24F0
:1037330030125DC1123BD01271641208518C828D1C
:10374300831238411255FD120E3F7403120832746E
:1037530004120B02123E1A125DC7900FF812383A88
:10376300A3A3A3F0900FF8E004F0120FD78E828F7B
:1037730083124E57242C1240EC750D00850A828566
:103783000B83E0780C1209FF8A828B83E50CF0121D
:103793003820E50C124E63E4F0E508241512664B5D
:1037A300A2E074015007120B0274018004120B0291
:1037B300E4F0EE24291254ECAA18AB19121E89E97D
:1037C30024FE850882850983F0EE2430F8E43FF96E
:1037D300E8FCE9FD123849120266E88E828F83A362
:1037E300A3A3A3A3A3A3A3F01238491202668B09D0
:1037F300EA4509600F8E828F83A3A3A3A3A3A3A388
:10380300A3E004F0EE2420125113440812413812AD
:103813000E9F7900800279107406023C0CEE242B73
:10382300F582E43FF58322EE1260323FF58322EE08
:10383300240BFAE43FFB221261ACA3A3A322123AA6
:10384300AD8A828B83228C828D83125082E0FA7B35
:10385300002274F41203AEEAFEEBFF120FD7124EEE
:103863009D901226E0F8EE242D125113C3984003C5
:103873000239B51240F87013EE242D1251130412BD
:103883003BFDE0C0E0123820D0E0F0EE242A1251D4
:1038930013FC7900800109EE242E125113F8E9C3B9
:1038A300985026750801750900E978081209FF1276
:1038B30040F8550860E0E92CFC750801750900E93A
:1038C30078081209FFE04508F0EE24291239C7EE03
:1038D3002430F582E43FF583EC8AF0A4F8ABF0E4FE
:1038E3002BF9E098F8A3E099F9C3E89AE99400EE7C
:1038F30040342429125113F81240F8602F12382A49
:103903001239D5A3E4F0EC704AEE2420125113448B
:1039130020124E98C0E0125131D0E0F0EE24321262
:1039230039C7A3E0805212382174FFF0901038E0B9
:10393300FA9012291239CCABF075F064A4FAADF009
:1039430075F064EBA42DFB8E828F83A3A3EAF0A30F
:10395300EB80B2EE242012511354DF12512CECF001
:10396300FAEE2429F582E43FF5831239CCFAABF061
:10397300EE124DA13F12410EFB1264B0EAF0A3EB2D
:103983001261D4C0E0EE2425F582E43FF583D0E054
:10399300124E2FE8124E5E90101A12567D600BECF9
:1039A300F912707C120539E9701712383212175761
:1039B300800F7BE9123BEE121EB9EEFAEFFB1216F3
:1039C300D90230A8124DD7FA22E0F508EA8508F0AB
:1039D300A4221261ACA3F02274F41203AE90101867
:1039E300123AC0120FD78A0A8B0B78FF79FF802017
:1039F300E0C39AFCA3E09BFDC3EC98ED99500E8EB7
:103A0300828F83A3A3E0C39AF8A3E09BF9123AB38E
:103A1300EE4F605C8E828F831255FDE50AC39AFADE
:103A2300E50B9BFB8E828F83123AA7C3EA9CEB9D27
:103A33008E828F83A3A340B8A3A3A3A3E0640270E1
:103A43001AEE240B1240FB60091240D31255FD12EB
:103A53000E63EEFAEFFB1216D98007EEFAEFFB12B4
:103A630016E57A017B00901241E0F9120E9F80293E
:103A730074FF68700374FF69601F88088909E4F59F
:103A83000AF50B780812084D7A017B00901241E089
:103A9300F9120FB374041208320230A8A3A3A3A32C
:103AA300A3A3A3A3A3A3123AAD22E0FCA3E0FD22A8
:103AB3008E828F83A3A3A3A3A3A3A3A3A3E0FEA3A5
:103AC300E0FF2274F01203AE8A088B09ECFAEDFBD7
:103AD300890A7C01126647F91216D38A0C8B0DAE44
:103AE3000CAF0DEE4F7003023BCEE50A6003023BC1
:103AF300CE123BD0123BE6686003023BCE123BD0B2
:103B0300E0FAEE242E125113F8EA28FAE43400FB0B
:103B13008E828F83A3A3A3A3A3A3A3A3E0F8EA980E
:103B2300EB9400C365D033401CE508241412664BA4
:103B3300F470127B00123BEE121EB9EEFAEFFB1289
:103B430016D9023BCEE508241412664BF47041EEFD
:103B5300242B123BD8242EF8E43FF9E8FCE9FD7549
:103B630008FF7509008C828D83E078081209FF8AAB
:103B7300828B83E508123BFDE508F08C828D83126E
:103B83003BE628F0EE242DF582E43FF583E4801B29
:103B9300E5082414F8E43509F9E0C0E0123C02D04A
:103BA300E0125906C0E0123820D0E0F0120FD78E91
:103BB300828F83124E5712382B123BE2A3124E5EB2
:103BC3007A01FB901241E0F9120E9F803FE5082431
:103BD30013123E1222F8E43FF9E8FAE9FBEE22124F
:103BE30061AC22E0F8EE125A95E022EE2422124D47
:103BF300D7FAEE2414124DD7F922F0123C0222EE2A
:103C0300242CF582E43FF583221208327F08020652
:103C13001F74EC1203AE74FE1208E68A0A8B0B8C37
:103C23000E8D0F89108A828B83A3A3E0F9121E9550
:103C33008A088B09AE08AF09EE4F70077A007B0044
:103C4300023DF67A127B00120EED8A088B09EA45D3
:103C5300097003023DF27C127D007900120E4BAA1B
:103C630018AB19850A82850B83A3A3E0F9121E6B97
:103C7300E508240FF50CE43509F50D7401120B0268
:103C8300E0850C82850D83F07902AA08AB09121630
:103C9300CD850E82850F83123E2A123E381240AC28
:103CA3001261B3F07512FF751300850C82850D83C5
:103CB300E078121209FF1268D6E512124905127054
:103CC3007AE0C0E0123E0AD0E0F01240C9F50CE5FC
:103CD30008240D1268DAE50CF0E50A1240DB850CC6
:103CE300F0A4A9F02427FAE439FB120E5D8A0C8BA9
:103CF3000DAE0CAF0DE5081263C8EEF0A3EFF0EEC6
:103D03004F7003023DE58E828F83741A124E5E8ECE
:103D1300828F83A3A3F0A3123E3E123E1A125DC705
:103D2300AC0EAD0F1264BA121E77850A82850B831F
:103D3300A3A3A3E0C0E01252B4D0E0F09010551258
:103D43004E1F2410123E32124E0D350B124E1D1211
:103D53005DE4E8F0A3E9123E3EA3A3A3A3124E1F22
:103D63002412125DC1850A82850B83A3A3E0C0E000
:103D7300123E00D0E0F0E50A1247591240E7E0C0D6
:103D8300E012616BD0E0F07416120B021263E2C012
:103D9300E0126635D0E01261C6C0E01263CED0E017
:103DA3001263EBC0E01263D8D0E0124E24E510F0AA
:103DB3007418120B02120ADFEE241AF582E43FF59F
:103DC30083120AD3EE2427F8E43FF9EE2422123EAD
:103DD30032125D321240E7E0C0E01264C2D0E0F07C
:103DE300800DAA08AB091216D9750800750900AA37
:103DF30008AB0974021208327F0C02061FEE24146A
:103E0300F582E43FF58322123E0E22E508240BF5EA
:103E130082E43509F58322123E1E221265648E82E6
:103E23008F83A3A3A3A322125082A3A3A3A322F548
:103E330082E43FF583124E8EE50A22F0850A8285DD
:103E43000B83A3A3A3A3A3A32274ED1203AE8A0A35
:103E53008B0B8C108D118912750900EA1240DBF56A
:103E63000890101A12567D600EA90812707C120574
:103E730039E960030240A77C028510828511831211
:103E830055FDE50A1240ACE0F91216D38A0C8B0DEE
:103E9300AE0CAF0DEE4F7054850A82850B83A3E001
:103EA300A2E040030240A77415120B021206A47489
:103EB30017120B021206A8A912AC10AD11AA0AAB75
:103EC3000B1216F774061208328A0C8B0DAE0CAF68
:103ED3000DEE4F70030240A78E828F83A3A3A3A38B
:103EE300A3A3A3A3E508124138120E9FA8088E824C
:103EF3008F83A3A3A3A3A3A3A3A3E024FFFAE43480
:103F0300FFFBEA684B7003750901EE240B1240FBBB
:103F1300700302405C850A82850B83A3E0A2E05014
:103F230003750800124125E5089AE49BC365D03365
:103F3300401CE0F8EE240E12511328F0750CFF75A7
:103F43000D00E8780C1209FF125C26E50CF0E50A77
:103F53001240B3350B122BE9120851E50A1240BF88
:103F6300350B125DF1EE240D125113F50CE50885A6
:103F73000CF0A4FAABF01240D31256152422F582AA
:103F8300E43812410EFB120E3F7403120832750C13
:103F930001124100780C1209FF125110450CF0E593
:103FA30009A2E05063EE240C1240EC1241000478A5
:103FB3000C1209FF8A828B83E0450C124E4285085E
:103FC3000C850CF0A4F8A9F01240C9FCE82CFCE421
:103FD30039FD1240D31256152420F582E438F583B7
:103FE300ECF0A3ED124E6FF4701EEE240BF50CE40F
:103FF3003FF50DEE1240BF3F124117120E69850CBB
:1040030082850D8374FF8050120FD7124E9D90103E
:1040130038E0FA901229E0F50CEA850CF0A4FAAB2B
:10402300F0F8EBF9901226E0F50CE8850CF0A4F813
:10403300ACF0850CF0E9A42CF9EA28F8EB39F9E89F
:1040430075F064A4F8AAF075F064E9A42AF98E82E5
:104053008F83A3A3E8F0A3E9F0A808124125EA247B
:10406300FF1AEB34FFFBEA687001EB600EEE240CE1
:104073001240FB6006E509A2E05029E50A1240E080
:10408300ECF0125110C0E0E50A2414F582E412406A
:10409300E7D0E0F0AC0AAD0B851082851183125591
:1040A300FD1217457F0B02061F1247391240E72204
:1040B3001240B722240EF582E422E50C1240C322FB
:1040C3002410F582E422E50A1240C31240E7E022FD
:1040D300EE1240C33FF583221240E0E02212473341
:1040E3001240E722350BF58322F8E43FF9E8FAE9B9
:1040F300FB750CFF22EE242B124DD7F422750D0015
:10410300124DD4F5F0E50884E5F022F583E02AFAB0
:10411300A3E03B22F583125607850C82850D83E0CD
:10412300F922EE240E124DD7FC124DD4FAEC2AFAE2
:10413300E43400FB22F07A017B00901241E0F92283
:10414300C082C083901241E0F9120E69025BF474DD
:10415300F41203AE8A088B09EB5480703BEAA2E0A9
:1041630050531216EBE5086401FAAB09804B8E82BB
:104173008F83E06401701A1241CB1206A41241BF6F
:10418300120855EE24121241D31216FD74061208BA
:1041930032EEFAEFFB120E63901241E0F9120E7544
:1041A3008A0A8B0BAE0AAF0BEE4F70C2AA08E50961
:1041B3006480FB80047A007B000230A8EE240FF5B4
:1041C3000AE43FF50B780A22EE1247333FF58322C8
:1041D300124DD7F9EE2402FCE43FFDEE2419FAE474
:1041E3003FFB2274F11203AE890A8A088B098A8283
:1041F3008B831255FD1217158B0DEA450D6005795A
:10420300B802428E121721E9F89024A5E493F9E845
:10421300C399400479B280737A157B00120EED8A3C
:104223000C8B0DAE0CAF0DEE4F70047910805C8ECD
:10423300828F83E4F0A31261E0A3E50A1263FB1209
:1042430008517C127D00EE2403FAE43FFB120E3F7B
:10425300740312083290101C12567D90101C7006C5
:10426300EEF0A3EF801FE0FAA3E08003E8FAE9FB96
:104273008A828B8312567D70F3EEF8EFF98A828B74
:1042830083E8F0A3E9F012173379000257EBC082F9
:10429300C08390101C80048C828D83123AA9EC4D4C
:1042A30060288C828D83A3A3E069600574FF697025
:1042B300E68C828D83A3A3A3E06A7003A3E06B70F3
:1042C300D6EC2403FAE43DFB80047A007B00025B16
:1042D300F474F71203AEE9FD74FE6D70047C018083
:1042E300027C0090101C80096D70027C0188828919
:1042F3008312567D601F88828983A3A3A3E06A701B
:1043030003A3E06B70E7ECA2E088828983A3A3E0B8
:1043130050D6F9800279FE0249D4EEF90247D3A3BD
:10432300A31254FDEE22A312432E2212656422121D
:1043330008327F0302061F125607EA4B22C082C0CF
:1043430083790090101C8001091255FD8A828B83AA
:10435300E582458370F2025BF474F61203AEE4F572
:1043630008F50978081208559024A5E49375F0130D
:10437300A4A9F012449E120F657402120832E9FEDA
:10438300600312172D02431D74F61203AE74FE125E
:1043930008E6851882851983E4F0A3F0A818A91903
:1043A3008808890978081208557508027509007884
:1043B300081208557C007D007A427B00120F71744D
:1043C300041208320247CE74F51203AE74EB1208DE
:1043D300E6851882851983E4F0A3F090101CE0FEB3
:1043E300A3E0807E8E828F83A3A3E0C0E0740212D9
:1043F3000B02D0E01257E0A982AA8389088A0975C3
:104403000A0078081208517C127D007406120B0210
:10441300AA82AB83120E3F7403120832740212088D
:10442300B6880889097808120855750813750900B4
:1044330078081208557404120B0212550975F0130B
:10444300A4F8AAF075F013E912449A120F717404D8
:104453001208328518828519831244A9126559E816
:10446300FEE9FFEE4F60030243E7A818A919880885
:104473008909780812085575080275090078081229
:1044830008557C007D007A427B00120F7174041280
:1044930008327415024332A42AF9E82402FCE439F1
:1044A300FD7A427B0022E02401F0A3E03400227471
:1044B300F41203AE74EB1208E67E007F00A818A97D
:1044C300198808890978081208557508028E097831
:1044D300081208557C007D007A427B00120F777426
:1044E30004120832E9706E8E08805874021208B6FE
:1044F300880A890B780A120855750A13750B007818
:104503000A120855E50875F013A4F8AAF075F0131C
:10451300E50912449A120F777404120832E9701BEA
:104523007403120B02AA82AB837402120B02E0F92A
:1045330012170FE970050EEE70010F0508E50870FC
:1045430002050985188285198312432AC3E5089851
:10455300E509994096EEFAEFFB74150230A574F65F
:104563001203AE8C828D83A3A312478FF0EA241724
:10457300F582E43BF583E0C0E012475FD0E0F01240
:10458300473F12432A12474912478FA3F0A3F0EA89
:10459300241FF582E43BF583123AC0EC124E0D3D25
:1045A300F583EEF0A3EFF0EA125C203BF5831247AC
:1045B30070A3A3A3A3A3A3EEF0A3EF125906FE8C4B
:1045C300828D831247B974035EFEC39403400302D2
:1045D3004726EE600574026E70798C828D83E054F9
:1045E3000CFE740C6E7003024693E0A2E4400D8847
:1045F300828983E08C828D83A31247C174086E6025
:10460300030246931247517401F08A828B83A3A35A
:10461300A3A3A31257DA70148C828D83E0440C1287
:104623004799A3A3124770EEF0A3EFF08C828D831A
:10463300E0A2E4401E12477E1247AA500109124726
:104643007EA3A31247AA5001098882898312476770
:104653001247B988828983E0C0E0EC1247393DF5FF
:1046630083D0E01247B98C828D83E0A2E75078882B
:10467300828983E0FE8C828D831247C174FC5E7055
:104683000C8C828D83A3E054036403701B024726C2
:10469300124751E4F0740C6E600302460D12477E1C
:1046A3001247AC50870980848C828D83A3E0540326
:1046B300603888828983E0C0E0EC1247333DF5839C
:1046C300D0E01247C28C828D83E054036402701AD7
:1046D30088828983E0C0E0EC2414F582E43DF5830D
:1046E300D0E01247C28003A3E4F0EC1240B33D12C2
:1046F3005DC5EC2410FEE43DFF12473FE0F5088E54
:10470300828F83E0C3982508F508F0EA2417125D29
:1047130075C39508C0E0124749D0E0125906C39506
:1047230008500A124749E4F012475FE4F00247D306
:104733002413F582E4222411F582E422EA241DF5F0
:1047430082E43BF58322EC125C203DF58322EC12DC
:1047530047593DF58322240CF582E422EC1240C331
:104763003DF58322E08C828D83A3A3A322E0FEA3E5
:10477300E0FF8C828D83A3A3A3A32288828983E095
:10478300F508A3E0FFE5088C828D8322E4F08C8298
:104793008D83A3A3A3221247A1A3A3A3A322F08AD9
:1047A300828B83A3A3A322A3A3A3A3A3A3F0A3EF17
:1047B300F0E82402F8221247C9A882A98322A3128F
:1047C30047C908A98322125A8FA3227402120832FE
:1047D3007F0202061F74F41203AE74F31208E68A12
:1047E3000A8B0BECFEEDFF8E828F83E0540CF508F1
:1047F300E0A2E75006E508D2E7F508E508D2E1F5BF
:10480300081257DA7006E508D2E4F508E0A2E5508D
:1048130006E508D2E5F5087C087D007900AA18AB07
:1048230019120E4B7402120B02E508124905C0E07F
:104833007403120B02D0E0124E63E50AF0A3E50BFA
:10484300F07405120B02125E001217E7740C120BC0
:1048530002E070787408120B02125615125D32389A
:104863001261EBC0E07408120B021248F9D0E01297
:1048730060B5C0E07408120B021248EDD0E0F0748A
:1048830008120B02125DF81248DC124E98124E4ABF
:104893002411125113C0E01248D4D0E0F0EE2414D6
:1048A300125113C0E07408120B021256152435F589
:1048B30082E438F583D0E0124E3AC0E07408120B5C
:1048C30002124DF7D0E0125E021217ED740D0230A2
:1048D300A5E8124DA139F58322125601E8242AF5E1
:1048E30082E439F583EAF0A3EB221260AB2427F5C7
:1048F30082E438F583221260AB2426F582E438F58E
:1049030083221261E0E02274F71203AE7E008A82F2
:104913008B83A3A3A3A3A3A3A3A3A3E06404600320
:104923000249B6125696E060030249B61249BA3BF1
:1049330012567B607E88828983E054037075E82475
:104943000C125AAAFA8C828D83A3A3E0FBA3E0CBBB
:104953001247393BF583E06A705988828983A3A3A0
:10496300A3A3A31249C5E06A7003A3E06B70448854
:104973008289831249C5A3A3125ABF240612511375
:104983006A7003A3E06B702B88828983A3A3E0F88A
:104993008C828D83A3A3E0F9A3E0F5838982A3A38B
:1049A300E068600D8C828D831252C0540C640470D5
:1049B300027E01EEF9801AEA1249BF22240FF58222
:1049C300E422A3A3A3A31256078C828D8322120889
:1049D300327F0102061F74F61203AE74FC1208E65E
:1049E300EAFEEBFFECFAEDFB8A828B83A3E0540330
:1049F300601690100E12567D60597900EEFCEFFDA3
:104A030012707C120539804B851882851983EEF06C
:104A1300A3EFF07402120B02124EA1AC18AD197A77
:104A23004B7B171219438A088B09A808A909E8497F
:104A3300602188828983A3A3A3A3A3A3A3A3A374AD
:104A430006F07A0088828983125615126041E0F9D4
:104A53001218AD74040247D074F21203AE74F31249
:104A630008E6EAFEEBFF8E828F83A3A3A3A3A3A38F
:104A7300A3A3A3A3E0F50A901240E0700579BA025C
:104A83004D9C750801750900750C00750D007C08B7
:104A93007D007900AA18AB19120E4B7405120B0294
:104AA3007401124E76540460127402120B02E0D2A7
:104AB300E6124E7654087003750803E0541060063E
:104AC30074404508F508E0540860227402120B0292
:104AD300E044C0124E765420600A7403120B02E0C5
:104AE300D2E080087403120B02E0D2E1F0EE241549
:104AF300125113124DDF7003740169700674084577
:104B030008F5088E828F83A3A3A3A3A3A3A3A3E083
:104B13007016121997851882851983124EA1740293
:104B2300120B02E0D2E2802C640F70107402120B9D
:104B330002124E7E74044508F508807B8E828F83B3
:104B4300A3A3A3A3A3A3A3A3E064028E828F837072
:104B530006122E68F08060A3A3A3A3A3A3A3A3E0DC
:104B63006403700DAC18AD19EEFAEFFB12178180D8
:104B7300468E828F83A3A3A3A3A3A3A3A3E064016D
:104B83007035901098E060107402120B02124E7E82
:104B9300750910750AFF80187402120B02E0440CA9
:104BA300124E6374FDF0A374FFF074044508F50816
:104BB3008E828F83124DEBEE2415125113A2E05017
:104BC3003F7402120B02E0540C701B8E828F83120F
:104BD30055FD1213CDE9700579BB024D9C74021289
:104BE3000B02E0D2E5F0EE2415125113A2E05010AF
:104BF3007402120B02E0540C64047004E0D2E5F07A
:104C0300EE2411125113C0E07404120B02D0E0120F
:104C13005E021217E7740C120B02E06003024D955B
:104C23007408120B02124E13E508F0A3E509F0EE27
:104C33002418125113C0E0124DC3D0E0124E24E0E9
:104C4300C0E07408120B0212561512473338F5836D
:104C5300D0E0124E9864017011901098E0C0E07497
:104C630008120B02124E03D0E0F07408120B02126A
:104C73004E1F24171239C7E8124DBAEA124E5EEEE0
:104C83002415FAE43FFB8A828B83123AA9E8124D7A
:104C9300B1ECF0A3ED124E2FE0C0E0124DA7D0E02F
:104CA300124E6F124DDF7003740169701374081292
:104CB3000B0212565FFAEE241D125113F91215FB63
:104CC3008E828F83A3A3A3A3A3A3A3A3A3E0C0E084
:104CD3007408120B021248F9D0E0F07408120B02A8
:104CE3001248EDE50AF07408120B02125509242844
:104CF300F582E439F583E50CF0A3E50D124E42FA93
:104D0300A3E0FBE8242A124E51240F125113124E32
:104D13004A2417125113C0E0E82433F582E439F52D
:104D230083D0E0F0124DCDC0E07408120B02124D97
:104D3300F7D0E0F0EE241A125113C0E07408120BFE
:104D430002125615124DA138F583D0E0124E3A12D5
:104D530027951208511263C0123AA9740B120B0261
:104D6300126188FAA3E0FB120E3F7403120832EEBD
:104D730024151251135440601290102812567D606E
:104D83000AAA18AB1912707C120539AA18AB1912AA
:104D930017ED740C120B02E0F9740D0227F824329C
:104DA300F582E422E82420F582E439F58322241EE7
:104DB300F582E439F58322241CF582E439F5832254
:104DC300E82412F582E439F58322EE241B124DD731
:104DD30022EE240FF582E43FF583E0225480F8A30A
:104DE300E05401F974806822124DEF22E0F50CA320
:104DF300E0F50D221260AB2434F582E438F583220A
:104E03001260AB124E0D38F583222415F582E4228D
:104E130012550D1249BF39F58322F58312432EEE45
:104E230022F0EE2419F582E43FF58322F0EE241CF0
:104E3300F582E43FF58322F0EE2413124DD722F0DE
:104E4300EE240D124DD722FAA3E0FBE8242CF582C1
:104E5300E439F583EAF0A3EBF0EE22F0A3E4F022C9
:104E6300124E6722F085188285198322F08A828B7D
:104E730083E022F0EE2415124DD722E0D2E312652F
:104E83005D124E8822851882851983E8F0A3E9F024
:104E930022E8F0A3E9126095E0228E828F83EAF084
:104EA300A3EBF02274F71203AE7E638A828B83E056
:104EB300600C7905121877E9F87456C398FE9010C0
:104EC30040E0600CF9121877E9F8EEC39824F2FE7B
:104ED3000249B674F61203AE74FE1208E685188210
:104EE300851983124EA1E9FEECFAEDFB900304123F
:104EF300567D6035A818A919880889097808120809
:104F0300557D01740E120B02E0FCEEF990030412BE
:104F1300605D12053974021208328B09EA45096093
:104F2300047900800679B2800279B60247CE74F71D
:104F33001203AEE9FE90100412567D601F7409122D
:104F43000B02E0F5087808120859EEF990100412E4
:104F5300605D1205397401120832800279B6024984
:104F6300D474F71203AE8908ECFEEDFF79B5E508BA
:104F7300245E601F14600624F86033803C900306AF
:104F830012433A603490030612605D120539124EE3
:104F93009D8024901006123AA9EC4D601CEEFCEFA4
:104FA300FD90100612605D120539E9F9800B90102F
:104FB3000212619C120FF579000249D474F71203AF
:104FC300AEE9FE79B574AB6E700B9010021255FD0D
:104FD300120FF579000249D474F21203AE8A088BDA
:104FE30009ECFEEDFF750A01901048E065087004B6
:104FF300A3E0650970141219918A088B09AC08ADF6
:1050030009EEFAEFFB120FF5802A12199D8A0C8B19
:105013000DE508650C7004E509650D7009EEFAEFFE
:10502300FB1219A3800EEEFCEFFDAA08AB091214C4
:10503300EDE9F50AA90A0227FB74F21203AEEAFEB0
:10504300EBFF8C088D09750A011219918A0C8B0DDF
:10505300AC0CAD0DEEFAEFFB120FEFE96401700B30
:1050630090104812507E125DC7800EAC08AD09EE59
:10507300FAEFFB1214F3E9F50A80B91250822212F7
:1050830065648508828509832274F61203AEEAFEFD
:10509300EBFF7A0D7B00120EEDEA4B6065EE2424E4
:1050A300126584F0EE2425126584A312512C126537
:1050B3008AA3A31263F0125117F0EE242A1251208F
:1050C3001251F5242C1251201251F3242EF582E4AF
:1050D3003FF583125117A3A3A3A3A3F0EE24331226
:1050E3005113C0E0125108D0E01261EF125123A313
:1050F300A3A31251F32432125113C0E0125696D0D7
:10510300E0F00247D3EA1261783BF58322EE240CE8
:10511300124DD722E08A828B83A3A3A322124DD7F9
:10512300F8A3E0F98A828B8322F012513122EE2414
:1051330026F582E43FF5832274F41203AE74FE1263
:1051430008E6ECFEEDFFEE24161251136405701011
:10515300EE2406FCE43FFD12177BE970030251E8DD
:10516300AC18AD191264BA1213D38518828519834A
:1051730012567D606C8E828F83E064017059E875EE
:10518300F009A4F8AAF075F009E9A42AF9748A28A9
:10519300F874FD39F9E8FAE9FB8A828B83780812FF
:1051A3000AB7EE1251ED120A794028851882851943
:1051B30083124E1F1252B51251F91251ED120AB752
:1051C3009081AE78081209A08A828B837808120A2C
:1051D30099800A79A28010EE240F125DC1790080B4
:1051E3000679A1800279C80230A312665578082295
:1051F300A3A3A3A3A3A3124E8EEE2274F01203AEB5
:105203008A088B09ECFEEDFF1252B4E4F0A3F09090
:105213008162780C120AB7126650780C1209127068
:10522300030252ACEE240E1251136401703678B3AC
:1052330090103FE0702A901071E064017022EE2418
:1052430011125113F912185F8A088B09A808A909CA
:10525300EE240F125DC1E84960047800800278A152
:10526300880A8048E0701712178DE9F50A603D8EB1
:10527300828F83A3A31252C05403700E802E640244
:10528300701512178DE9F50A6022EEFCEFFDAA08EE
:10529300AB091213F78008E06403700812178DE955
:1052A300F50A8008750AA18003750AA3A90A023CBE
:1052B3000FEE1249BF3FF583228A828B83A3A31289
:1052C3005E2E2274F01203AE74F51208E6EAFEEBCA
:1052D300FFEE240AF508E43F850882F5831254F9AA
:1052E3001254CD74031208C68E828F831255FD1299
:1052F300177BE970030253B574011208C6740312D5
:1053030008BE1213D37401120B0212567D700302EE
:1053130053B5E875F009A4F8AAF075F009E9A42AD1
:10532300F9748628F874FD39F9E8FCE9FD12687E02
:10533300E4F004120B0212432AE5081249BB3509B3
:10534300125DC58C828D83120ADF1254D9120AD3DF
:105353009081AE7808120AB78C828D837808120A7E
:10536300258C828D837808120AB790814A780C12B3
:105373000AB77808790C12033FE50C450D450E4535
:105383000F702F7401120B0212550975F009A4F85E
:10539300AAF075F009E9A42AF9748E28F58274FD40
:1053A30039F5837401F07A007B08900EE7E0F91277
:1053B3000E9F1254E1E02406FCA3E03400FD8E822C
:1053C3008F831255FD12177B850882850983125638
:1053D300727052125633120FEFE9701D1219918A2F
:1053E300088B09AC08AD099010021255FD120FEF9E
:1053F300E970061217FFE9602C8E828F83123A9FA1
:105403008E828F831255FD1213FDE960138E828FF6
:1054130083A3A312560D1249BB38F583E4F0A3F01E
:105423001258E9E4F012566460030254C08E828F6E
:1054330083A3A3A3A3A3A31254F590103FE0707218
:10544300901071E06401706A750A3A750B00780A6E
:1054530012085574021208B6880A890B780A1208D2
:10546300557C017D007A007B00121AB77404120880
:1054730032E9703B12687E7401124E63E0C0E0E5CE
:105483000824111268DAD0E0F01254C5743A124EAF
:105493005E90102A120ADF1254D9120AD39081AEF9
:1054A3007808120AB790102A7808120A2580031286
:1054B30054CD1256647006125C2674A1F0740B026C
:1054C3003C0CE508240F123E1222E508240F123E7D
:1054D30012E4F0A3F022E5082412123E1222EE2475
:1054E3000A1254EC8882F58322F8E43FF98808898C
:1054F3000922A3A3A3A31254FD22E0F508A3E0F518
:1055030009228C828D8312550D22126564E8227460
:10551300F61203AEEAFEEBFFEE240A1254EC7A18FD
:105523007B00120EED850882850983EAF0A3EB1256
:105533005691E84970030255D3EEFAEFFB1217991F
:10554300125664607412565164018E828F83A3A332
:10555300A3A3A3A37007125623740E802012567DB3
:10556300700F125633120FEFE970061217FFE9603E
:1055730007125619740D800512561974051261EF3E
:105583005403640170071255DA7405800B901040C0
:10559300E0C0E01255DAD0E0125682F5838882A388
:1055A300E0F91218778508828509831256152417A6
:1055B300F582E438F583E9801A8508828509831228
:1055C30055FD120EF3850882850983E4F0A3800359
:1055D300126048F00247D38E828F83A3A3A3A3A3B1
:1055E300A3A3A31255EA22A3A3125E33A3228E829E
:1055F3008F83A3A3A3A3A3A3A3A312560722A3A3A7
:10560300A3A3A3A3E0FAA3E0FB22A3A3A3A3A3A3BF
:10561300A3A31260AB228E828F83A3A3A3A3A3A30E
:10562300A3A3A3A31260AB2416F582E438F5832267
:10563300901002123AAD8E828F83A3A3A3A3A3A3D8
:10564300A3A3A3A3E02406FAA3E03400FB228E82E3
:105653008F83A3A3A3A3A3A3A3A3A3A31258FBE092
:10566300228E828F83A3A3A3A3A3A3A3A3A3A31283
:1056730060AB240FF582E438F58312550D492212ED
:1056830056862212568A22126662F8A3E022125626
:1056930086F922EA1247593BF5832274F11203AECD
:1056A3008A0A8B0B8C088D097A187B00120EED8AFF
:1056B3000C8B0DAE0CAF0DEE4F70030257D31219C6
:1056C300978A0C8B0DA80CA90DE508241512664BBF
:1056D300687003A3E0698E828F8370047402800272
:1056E3007401F0E508240DF8E43509F9888289830B
:1056F300E0FAC3E49AFA95E0FBE5081240B33509F2
:1057030012410EFB8E828F83A3A3A3A3125D418E4E
:10571300828F83A3A3F0EEFAEFFB12182985088288
:105723008509831257DA70098E828F83A3740580EB
:1057330006901040123BE2F0EE2417F8E43FF9889C
:105743000C890D8E828F83A3E0F9121877E9850CFB
:1057530082850D83F0EE2416F8E43FF9E508240E64
:10576300FAE43509FB88828983126076E508241000
:10577300FAE43509FB850C82850D83E0FC88828978
:1057830083E0F88A828B83E0C398C39CF81257E0C6
:10579300F0EEFCEFFDAA0AAB0B121793E9F5088EA6
:1057A300828F83E0640270111219918A0A8B0BAC09
:1057B3000AAD0B1264BA120FF5E508700AEEFAEFA0
:1057C300FB121835E9F508EEFAEFFB120EF380032E
:1057D300750810A9088011E054036401221257E4EC
:1057E300221261E5A3A3A3227F0702061F79010208
:1057F30007FD74F41203AEEAFEEBFF8E828F831271
:10580300560D2424F582E438F5831257DA702A12F0
:10581300565170251258D6E06405701D1258D6A350
:10582300E0F8740168600574066870071258E9743B
:105833000280051258E97403F01254E112605DE42A
:10584300F0EE2408F8E43F1258B52431F582E43A27
:10585300F583E0C0E01258C0D0E0125906FAA3E085
:10586300CA242EF582E43AF583E0C0E01258C0A3BF
:10587300D0E012590AC812617438F58312507E12AF
:1058830058D0125DC71219918A0A8B0BAC0AAD0B63
:10589300850882850983E02406125D3A120FF58597
:1058A30008828509831255FD12183512611AF00218
:1058B30030A8F988828983E0FAA3E0CA22850882A6
:1058C3008509831258CA22126038A3A3221258CA28
:1058D300A3A3228E828F83A3A3A3A3A3A3A3A31211
:1058E300618C125C34228E828F83A3A3A3A3A3A310
:1058F300A3A3A3A31258FB221260B0C81240B73867
:10590300F58322125D4D22125D4DF8A3E02202576A
:10591300F0C082C08390101E749FF0A37417F090A0
:10592300102074ABF0A37417F090102274B1F0A39D
:105933007417F090102474A5F0A37417F0025BF4AD
:1059430074F41203AEEA2408FCE43BFD125505246B
:1059530024125AAAFE74035EF50912617339124EBA
:105963001D88828983F0A3A882A983E5096009744D
:105973000265096003025A0F740C5EF50860177420
:105983000865086011740465087013740265097072
:1059930005EEA2E4402C125AC52427125B0A740CAC
:1059A30065087018125AB72428125AEFFCA3E0CCEA
:1059B3002428F582E43CF583A3125B107402650985
:1059C3007005EEA2E44045125AB7242A125AEFFF9B
:1059D300A3E0CF125A95A3125B10125ABB242C12C8
:1059E3005B1F242CF582E43CF583A3125B10E508CE
:1059F300601274086508600C740C65086006740412
:105A030065087008125AC52426125B0A125AC51279
:105A13005A9E7015EEA2E14010125AC5241EF5825B
:105A2300E43CF583E054806008125AD7125AB280DE
:105A33001A900FF8E0C0E0125AD7D0E0F0900FF8B8
:105A4300125AB2900FF8E004125A8FA3A882A983C6
:105A5300EEA2E75034125AB72425125B1F125A9E46
:105A63006027125AC52434125B0AEEA2E1501A8A47
:105A7300828B83A3A3A3A3A3A3A3A31258BA2435FE
:105A8300F582E43AF583125AB20230A8F08882898B
:105A93008322242AF582E43FF583222425F582E438
:105AA3003CF583E0540322F582E439F583E02212C6
:105AB3005B04F022EA2408FC8C828D83E0FFA3E0E0
:105AC300CF228A828B83A3A3A3A3A3A3A3A3E0FCD4
:105AD300A3E0CC228A828B83A3A3A3A3A3A3A3A320
:105AE300E0FCA3E0CC124DA13CF58322F582E43F18
:105AF300F583125B04F0A3A882A9838C828D83E0D3
:105B030022E08882898322F582E43CF583125B14C8
:105B130022E088828983F0A308A98322F582E43FE7
:105B2300F583125B148C828D83E0FCA3E0CC22C04E
:105B330082C0838A828B83126070FC74035CF98A4F
