:020000040000FA
:06000000020A890202065B
:03002B00020815B3
:0300530002013572
:1000830002019701010020FD00020612FFFF960006
:100093000108A10E00000001B711C3110000000008
:1000A30000000000000000000000000010202020DD
:1000B3002020202020202020202020202001080490
:1000C3000100000002728101BA810101010400F7FD
:1000D3000E00000088130000FFFF4B0F8813000081
:1000E30064006400B801A0BB0D00A0BB0D000202B8
:1000F300000800000502070401051E02051E020A8E
:100103000A01080803B80B02803E0102FEFFE80360
:100113000A050001FFFF020A1401E005030101FFC4
:10012300D82200000000AC2100000000FF00000006
:10013300FF00C0E074F1120485A2AFE433F509D2E5
:10014300AF85A708AFA1EF5508FE74105E600612D5
:100153000BB175A1EF74085E6008120BB775A1F7B8
:100163008024EFA2E092F0E508A2E082F05017901D
:100173006198E0F8900349E0C398A2D265D0335068
:1001830002E8F075A1FE751A00E509A2E092AF7FBF
:10019300020204E4C0E074F2120485A2AFE433FE69
:1001A300D2AF9061A4E0F8759B00E59158540860C4
:1001B300087591F7120BFF8023E5915854106008DE
:1001C3007591EF120C058014E591A2E092F0E8A27C
:1001D300E082F05007E0C2E0F0120D5B9061A3E013
:1001E300F8E5E9585404600E120D3175E9FB90618E
:1001F30093E0A2E640F2751A00EEA2E092AF7F010F
:100203000204E4C0E074F2120485A2AFE433FED228
:10021300AF9061A5E0F8E5BF585404600675BFFBD5
:10022300120D7380D1C3E498F8E499F9120269803E
:1002330026C3E49AFAE49BFBE920E7E9120269E4A6
:1002430098F8E499F922C3E498F8E499F912026959
:10025300E498F8E499F9C3E49AFAE49BFB22EB20CF
:10026300E7CFE920E7E0B90010BB0008E88AF08493
:10027300F8AAF022E4FBC8FA22EB70227B10C83301
:10028300C8C933C9335007C39AC3DBF280069A50F7
:10029300012ADBEAC833F4C8C933F4C9FA2275F07A
:1002A30008E4C833C8C933C933C99AC99B5004C9C0
:1002B3002AC93BD5F0ECFBC833F4C8E4C9FA2208D9
:1002C3000808EAC0E0EBC0E086F0E7A4FA18098664
:1002D300F0E7A42AFA180986F0E7A42AFA1809868F
:1002E300F0E7A42AFA1986F0E7A4FBE5F02AFA1945
:1002F3000886F0E7A42BFBE5F03AFA190886F0E745
:10030300A42BFBE5F03AFA18180986F0E7A4C5F028
:100313002BFBE43AFA1908E7C5F0C6A426F6E5F084
:100323003BFBE43AFA1886F0E7A4F6E5F00826F674
:10033300E43B08F6E43A08F6D0E0FBD0E0FA22E426
:10034300CFC0E0E4CEC0E0E4CDC0E0E4CCC0E075D3
:10035300F020E626F608E633F608E633F608E63339
:10036300F6181818EC33FCED33FDEE33FEEF33FFD4
:10037300C3EC9709ED9709EE9709EF9719191940FF
:100383000FFFEC97FC09ED97FD09EE97FE1919068F
:10039300D5F0BFECF709EDF709EEF709EFF71919F7
:1003A30019D0E0FCD0E0FDD0E0FED0E0FF2225181C
:1003B300C582C0E0E51934FFC583C0E0E518C395E5
:1003C3008224F810AF0885831985821880088583F5
:1003D30019858218D2AFCEF0A3E520F0A37808E602
:1003E30008F0A3DEFAEFF0A3E58124FAF8E608F0BB
:1003F300A3E608F0A3E608F0A30808E608F0A3E6DE
:1004030008F0A315811581D0E0FED0E0F815811521
:10041300811581E8C0E0EEC0E022120AF7B90003BB
:1004230002046FE490030178B9790F8002F0A3D836
:10043300FCD9FA781A9000867A01BA00028007E4A0
:1004430093A3F608DAF97AB97B1190008778AF792C
:10045300018015E493A3AD82AE838A828B83F0A3DC
:10046300AA82AB838D828E83D8E9D9E77582D7754B
:1004730083F674031207F775821F75831F740012C6
:1004830007F7C0D02518C582C0E0E51934FFC5833E
:10049300C0E0E518C3958224F310AF08858319855E
:1004A30082188008858319858218D2AFC8F0A3E922
:1004B300F0A3EAF0A3EBF0A37908E709F0A3D8FAD5
:1004C300ECF0A3EDF0A3EEF0A3EFF0A3D0E0F0A3E4
:1004D300D0E0F0A3D0E0F0A3E520F0A3E5F0F0A393
:1004E30022851983851882E0C0E0A3E0F9A3E0FA2E
:1004F300A3E0FBA37808E0F608A3DFFAE0FCA3E09F
:10050300FDA3E0FEA3E0FFA3E0C0E0A3E0C0E0A3FF
:10051300E0F5D0A3E0F520A3E0A3F5F010AF088544
:1005230083198582188008858319858218D2AFD0F4
:1005330082D083D0E0F8D0E03275F0108E218F2284
:10054300858226858325851882851983E0CEA3E0DD
:10055300CF852682852583EBC9EAC8EDCBECCAC3D8
:10056300E833C8E933C9EA33CAEB33CBC3EA9EF5B0
:1005730024EB9FF523B35004AB23AA24EC33CCED37
:1005830033CDD5F0DAAE21AF2222D083D082ECC0B6
:10059300E0EDC0E0E493A3FCE493A3FDED4C600D18
:1005A300120665EC24FFFCED34FFFD80EFE493A31A
:1005B300FCE493A3FDED4C600D120702EC24FFFC59
:1005C300ED34FFFD80EFD0E0FDD0E0FCE493A3C069
:1005D300E0E493C0E022D083D082E9C0E0E493A3B7
:1005E300C386F0C5F095F0F908E493A386F0C5F04F
:1005F30095F0700BE493A3C3994005E9048002A32B
:10060300E475F002A42582F582E5F03583F583D005
:10061300E0F9E493A3C0E0E493C0E0228519838565
:100623001882E0A3FEE0A3F5207808E0A3F608DF34
:10063300FAE0A3FFE0A3C0E0E0A3C0E0E0A3C0E0D2
:10064300E0A3C0E0E0A3C0E010AF08858218858373
:10065300198008858218858319D2AFD083D082028E
:1006630007FDC0E0C3E49396087401939618400F06
:10067300E49366700808740193661870007019A3F8
:10068300A3C3E49396087401939618A3A3400DD0D3
:10069300E0D0E0D0E00205C9A3A3A3A3A3A3D0E0C5
:1006A300227404800474028000CCC0E0EDC0E0E555
:1006B30018C39CCCAD1950011D10AF068C188D19B1
:1006C30080068C188D19D2AF120779D0E0FDD0E0E7
:1006D300FC2274028000CCC0E0EDC0E0E518C39CAE
:1006E300CCAD1950011D10AF068C188D1980068CE6
:1006F300188D19D2AF120757D0E0FDD0E0FC22C00D
:10070300E0C0F088F0E493667008087401936618FB
:100713007000A8F0A3A3700BD0F0D0E0D0E0D0E03D
:100723000205C9A3A3D0F0D0E022D083D082CCC0ED
:10073300E0E493A360061207B91470FAE493A3608C
:10074300061208FC1470FAD0E0FCE493A3C0E0E4C2
:1007530093C0E022CAC0E0E493A3C582CCC582C59E
:1007630083CDC583F0A3C582CCC582C583CDC583A4
:10077300DAE5D0E0CA22CAC0E0E0A3C582CCC582D4
:10078300C583CDC583F0A3C582CCC582C583CDC542
:1007930083DAE6D0E0CA22C008C3E096F50808A3CE
:1007A300E096420808A3E096420808A3E0964508AD
:1007B3007001D3D00822C0E0E493A3D39C5010E48B
:1007C30093A3C39C400AD0E0D0E0D0E002074AA341
:1007D300A3A3D0E02270090808082260161818188D
:1007E300C6C333C608C633C608C633C608C633C62F
:1007F300D5E0EA22C09FF59FE473D09F22D083D037
:1008030082C09FE493C0E0740193C0E0740293F547
:100813009F22C0E0C0D0E8C0E0A8A8D2AFC2C7758D
:100823001A00E8A2E792AFD0E0F8D0D0D0E03200CF
:10083300C0D0251810AF08F518500C05198008F51D
:100843001850020519D2AFD0D0227404800A740361
:100853008006740280027401C0E0F404120868D0B8
:10086300E0120AC6222518F58210AF08F518400CCD
:1008730015198008F51840021519D2AF851983227E
:10088300BB0102E722C082C08389828A83BB000343
:10089300E08002E493D083D082226016080808C661
:1008A300C313C618C613C618C613C618C613C6D5AF
:1008B300E0EA222518F8E43519F9222518FAE43577
:1008C30019FB222518FCE43519FD22C3E0C696F670
:1008D30008A3E0C696F608A3E0C696F608A3E0C60A
:1008E30096F622251810AF08F518400C1519800844
:1008F300F51840021519D2AF22C0E0E493A36C703F
:1009030009D0E0D0E0D0E002074AA3A3D0E022E080
:1009130066701008A3E066700A08A3E06670040816
:10092300A3E06622C3E09608A3E09608A3E0960836
:10093300A3E096A2D265D03322E76670100809E7D8
:1009430066700A0809E76670040809E76622C3E6C9
:1009530097F60809E697F60809E697F60809E69771
:10096300F622C3E49396087401939608740293964F
:10097300087403939622C3E096F008A3E096F00868
:10098300A3E096F008A3E096F022E657F60809E6FE
:1009930057F60809E657F60809E657F622E026F661
:1009A30008A3E036F608A3E036F608A3E036F622FD
:1009B300E493F608740193F608740293F60874033B
:1009C30093F622E056F608A3E056F608A3E056F69F
:1009D30008A3E056F622E056F008A3E056F008A379
:1009E300E056F008A3E056F022E647F60809E6478A
:1009F300F60809E647F60809E647F622700422607E
:100A03000D18C6C333C608C633C6D5E0F41822E6AC
:100A130027F60809E637F60809E637F60809E63740
:100A2300F622E026F008A3E036F008A3E036F0084B
:100A3300A3E036F022E4C396F608E496F608E496BB
:100A4300F608E496F622600D08C6A2E713C618C698
:100A530013C6D5E0F322C6F4C608C6F4C608C6F426
:100A6300C608C6F4C622C3E7960809E7960809E74D
:100A7300960809E79622C3E09608A3E09608A3E048
:100A83009608A3E0962275D00075813F751801750D
:100A930019030002041DE6F008A3E6F008A3E6F03C
:100AA30008A3E6F022600C08C6C313C618C613C613
:100AB300D5E0F422E0F608A3E0F608A3E0F608A3E5
:100AC300E0F622CAC0E0E6F0A308DAFAD0E0FA22A0
:100AD300E8F0A3E9F0A3EAF0A3EBF022E0F8A3E047
:100AE300F9A3E0FAA3E0FB22E0FAA3E0FBA3E0FC16
:100AF300A3E0FD22E5C754F84401F5C77901222597
:100B030018F582E43519F58322C2AF75D69F02002A
:100B13000022120800E97F00120800EC7F0012088F
:100B230000EF7F00120800F87F00120800C5FD03E4
:100B3300120800FDFD031208003FFF03120800C363
:100B4300FF03120800D7D40312080003D5031208C9
:100B53000074D703120800B4D703120800F4D703B4
:100B630012080008D80312080021D8031208001243
:100B7300D903120800B7D903120800CBD90312080E
:100B830000E081041208000482041208001D82049C
:100B93001208004F82041208007F8204120800AC7E
:100BA3008204120800B68204120800188304120893
:100BB300002783041208003183041208003E8304D3
:100BC30012080045FD0212080065FD02120800A488
:100BD300FD02120800BFFD02120800DEFD0212082A
:100BE3000044FE021208004DFE02120800AAFE0293
:100BF300120800CEFE021208008FFF021208009CAA
:100C0300FF02120800ADFF02120800B38B041208A2
:100C130000CB8B04120800F78B0412080021DA03BF
:100C23001208007BDB0312080089DB031208009C17
:100C3300DB03120800B1DB03120800C6DB03120852
:100C430000D9DB031208004DDC03120800B2DC03F9
:100C53001208003ADD03120800B6DD031208007A19
:100C6300DE031208008ADE0312080099DE0312086D
:100C730000BB8804120800DF8804120800078904F7
:100C83001208002F8904120800A2FB03120800C9EE
:100C9300FB03120800E7FB031208005AFC031208C7
:100CA300000EF40312080027F40312080033F403C0
:100CB30012080047F40312080065F4031208006FDA
:100CC300F40312080079F4031208008CF4031208E9
:100CD3000012F50312080087F503120800B6F503A6
:100CE30012080004F60312080053F6031208006EFC
:100CF300F60312080078F60312080089F6031208B7
:100D030000CCF603120800118B041208005C8B045C
:100D130012080080C403120800AAC403120800C703
:100D2300C403120800DAC403120800F0C403120853
:100D3300004EC50312080086C5031208007AC903D2
:100D4300120800BFCA03120800F2CA0312080055B2
:100D5300CB03120800B5CC03120800DDCC03120844
:100D630000F2CC0312080002CD0312080046CD03A3
:100D7300120800A1CD03120800B1CD0312080048E8
:100D830083041208006283041208008A8304120891
:100D930000A38304120800C78304120800E5830438
:100DA300120800FC83041208002A84041208004578
:100DB30084041208000288041208004688041208FA
:100DC300008FE7031208009FE703120800A4E8035B
:100DD300120800D6E803120800FCE8031208001FFB
:100DE300E90312080036E90312080070E903120848
:100DF30000D5E90312080017EA0312080056EA03B4
:100E030012080087EA03120800BEEA031208000072
:100E130080041208001280041208002581041208BD
:100E230000B28104120800F38904120800308A0416
:100E3300120800728A04120800828A04120800E170
:100E4300CD031208001BCE0312080084CE03120840
:100E530000A1CE0312080043CF031208004CCF03B6
:100E630012080091CF03120800BACF03120800C77B
:100E7300CF0312080038D003120800C3D0031208AE
:100E83000011D1031208004FD103120800B4D1039B
:100E9300120800D7D1031208004ED203120800A58E
:100EA300D203120800E0D20312080015D30312087C
:100EB3000027D30312080039D30312080058D303C1
:100EC30012080061D30312080021D4031208006D35
:100ED300D403120800ABD403120800BDFE011208AC
:100EE300006CF903120800A2F903120800EAF903DF
:100EF30012080043FB0312080000800312080024B9
:100F030081031208005E810312080008830312089C
:100F130000328303120800A78503120800E7850344
:100F23001208007D87031208001A88031208006C58
:100F330088031208000F8903120800478903120867
:100F430000898903120800F88A03120800468C03FB
:100F5300120800778E03120800A58E03120800CC36
:100F63008E03120800D58E03120800258F03120882
:100F730000B78F03120800E6920312080069930377
:100F83001208005489041208006A890412080074C4
:100F93008904120800C88904120800D2DE0312086B
:100FA30000E8DE0312080089DF03120800C8DF032C
:100FB300120800E5DF0312080016E00312080063BD
:100FC300E00312080096E003120800D1E0031208C0
:100FD30000CCE20312080034E303120800688B0418
:100FE3001208007A8504120800D985041208001734
:100FF30086041208005886041208000AC301120866
:101003000016C30112080078C30112080082C3014D
:1010130012080015C40112080051C401120800117E
:10102300C50112080074C50112080009C60112089F
:101033000086C60112080026C801120800FAC90179
:1010430012080059CB01120800BECC01120800534C
:10105300CD0112080086CE011208007ACF011208D2
:1010630000B3D00112080049D50112080036D60199
:10107300120800CED601120800F3D6011208001898
:10108300D701120800B0D701120800C6D701120811
:1010930000E8D7011208004ED8011208006DD801EC
:1010A30012080096D801120800B6D9011208008C64
:1010B300DA0112080001DC0112080022DC01120827
:1010C30000A3DC0112080049DD0112080091DD01D3
:1010D30012080002DE011208008EDE01120800F27F
:1010E300DE0112080052DF0112080001E0011208BC
:1010F300006DE001120800A0E0011208001EE101EA
:101103001208007AE201120800EAE2011208007CE8
:10111300E301120800DFE40112080066E50112088A
:1011230000CBE501120800F9E70112080085E90187
:1011330012080095E901120800C9E90112080037F5
:10114300EA0112080072EA01120800D4EA01120847
:101153000069EB0112080044ED0112080000EF01E1
:101163001208000AF00112080007F401120800D463
:10117300F401120800ECF50112080096F7011208B9
:101183000016EB03120800D0EB0312080036EC0341
:10119300120800E2EC03120800FA8B04120800AAFA
:1011A300F90112080017FA0112080089FB0112085D
:1011B30000C4FC0112080039FE0112080079FE0187
:1011C300120800A1FE0112080006D0021208005BFB
:1011D300D002120800E1D002120800F1D102120875
:1011E300003ED202120800FBD20212080012D30200
:1011F30012080064D302120800A1D302120800B43B
:10120300D3021208000AD4021208009AD602120866
:101213000031D7021208005BD70212080093D702ED
:10122300120800C9D9021208000FDA021208005985
:10123300DA021208002DDB021208006EDB0212082C
:101243000091DB02120800D8DB02120800EEDB0279
:101253001208006FDC02120800FCDC0212080056C0
:10126300DD0212080091DD02120800A7DE02120857
:10127300002CE10212080058E20212080093E20275
:1012830012080060E302120800AAE302120800AD8C
:10129300E302120800B6E302120800C8E3021208D0
:1012A3000049E4021208007FE402120800ABE402E2
:1012B300120800D2E402120800F6E4021208008DBC
:1012C300E502120800A6E502120800D9E502120899
:1012D30000F9E50212080036E6021208006DE60284
:1012E3001208006CE7021208009FE8021208008C43
:1012F3008A04120800988A04120800D48A04120887
:1013030000F57F00120800B69303120800D9930377
:10131300120800BD94031208000695031208005E2C
:101323009503120800BA95031208000696031208E3
:10133300007C96031208000A9703120800829703A1
:10134300120800C59703120800D69B031208001D5C
:101353009E031208004A9F03120800E09F0312082D
:101363000041AE03120800E1AE031208004BAF03C5
:10137300120800F2AF0312080056B00312080089E6
:10138300B103120800AFB20312080028B303120816
:101393000000B503120800A8B503120800DAB6036B
:1013A30012080082B70312080097B803120800B5A9
:1013B300E8021208002DE90212080075E90212087A
:1013C30000B9E90212080002EA021208004CEA021C
:1013D30012080081EA02120800FFEA02120800590B
:1013E300EB02120800B2EC021208003BED021208F5
:1013F3000097ED02120800B1ED02120800D8ED02C9
:1014030012080030EE021208009AEF02120800B927
:10141300EF02120800E1F0021208005EF102120866
:1014230000CBF1021208002DF202120800DDF202D5
:10143300120800AFF4021208009AF5021208009491
:10144300F6021208009AF702120800B6F802120810
:1014530000C4F8021208009DF9021208003DFA02C6
:101463001208006B870412080096FA02120800A7FC
:10147300FB021208004AFC02120800A2FC02120836
:101483000040F10312080079F20312080036F30357
:101493001208009AF3031208003DEE0312080058E5
:1014A300EE031208009CEE03120800C2EE031208BA
:1014B30000E8EE0312080000EF0312080063EF03D5
:1014C30012080078EF03120800D97F00120800A366
:1014D300F003120800ACF003120800B5F003120881
:1014E3000041E30312080021E70312080026E70383
:1014F30012080028E703120800F9F703120800C6D0
:10150300FF0312080017AC021208006EAC021208A7
:1015130000DAAC0212080066AD021208001CAE022B
:1015230012080064AE021208007DAE02120800A089
:10153300AE02120800C2AE0212080000AF02120887
:10154300004FAF021208007AAF02120800D8AF02B0
:101553001208007FB00212080027B102120800A38C
:10156300B10212080070B202120800BCB2021208E3
:101573000044B3021208007DB3021208000EB40245
:101583001208001FB40212080091B4021208002AC4
:10159300B50212080094B50212080084B6021208BC
:1015A30000A9B602120800A6B702120800B3B702D8
:1015B300120800BCB702120800A5B902120800C144
:1015C300BA0212080052BB02120800C3BB0212087F
:1015D300009DBD0212080068C1021208007CC1020E
:1015E3001208008CC10212080096C1021208009F63
:1015F300C102120800A8C102120800B2C1021208F7
:1016030000E1C1021208000FC2021208001AC2024E
:101613001208003EC20212080062C202120800D47D
:10162300C2021208001DC30212080039C3021208C5
:1016330000AAC302120800F6C3021208003FC40244
:101643001208007DC402120800FEC402120800C979
:10165300C60212080068C70212080030C802120846
:1016630000BCCA0212080011CB0212080039CB02D7
:101673001208006CCC02120800B1CC02120800065A
:10168300CD02120800B4CD0212080059CE0212088E
:10169300008ECE021208002ECF02120800AACF023B
:1016A3001208003625001208006825001208009C65
:1016B30025001208005027001208002428001208F1
:1016C30000832800120800992900120800E5290068
:1016D300120800822C00120800F72E0012080043A3
:1016E3003000120800DB3000120800E73000120857
:1016F30000303100120800633100120800EF31009E
:10170300120800013300120800423400120800419D
:1017130035001208006B3500120800D63500120898
:10172300002F3600120800A23600120800D8380035
:101733001208005E3A00120800493B0012080097A5
:101743003C00120800CF3E00120800C641001208F8
:1017530000D541001208006942001208001443003A
:10176300120800574300120800C34300120800DFA9
:1017730043001208000E44001208004D44001208F2
:1017830000354500120800E445001208005B4800DC
:101793001208008D49001208005C4A00120800DE9E
:1017A3004A001208002A4F00120800594F0012087D
:1017B30000B44F00120800E74F0012080042500027
:1017C3001208005E5000120800BF50001208000FFC
:1017D3005100120800BE5100120800815200120885
:1017E30000495300120800955500120800215700C4
:1017F3001208007858001208009459001208009744
:101803005900120800C65900120800B55B001208FF
:10181300007E5C00120800BF5C00120800155E0029
:101823001208008B5E00120800BE5E001208002240
:101833005F00120800436100120800A26100120851
:10184300007862001208008C6200120800A0620097
:10185300120800CD6200120800FD6200120800A108
:1018630064001208009E6500120800EC650012086F
:1018730000136600120800EE660012080094670069
:101883001208001A6900120800616900120800CEEC
:101893006900120800236B00120800CC6B001208C9
:1018A30000006C00120800186C00120800BB6C00EA
:1018B300120800376F00120800DF700012080003DF
:1018C3007100120800217100120800ED7100120866
:1018D300003B7500120800C08101120800F281016B
:1018E300120800728601120800C18601120800075F
:1018F3008701120800AA87011208000F8801120845
:1019030000538801120800BA8901120800E68A010F
:10191300120800E38E01120800628F01120800888A
:101923009001120800EB900112080037920112088F
:1019330000CF94011208005C95011208006695011E
:101943001208008E9501120800569601120800EB4A
:10195300960112080014970112080041970112081A
:1019630000969901120800639A01120800A29A01D5
:10197300120800249B01120800CF9B0112080001EA
:101983009C011208004C9C01120800859C0112085E
:1019930000D49C01120800309D01120800B29D0181
:1019A300120800179E011208008F9E0112080038CA
:1019B300A00112080030A10112080071A20112084F
:1019C30000C5A50112080021A801120800DAA80128
:1019D30012080022A90112080003AB011208003EFD
:1019E300AB0112080047AB0112080050AB0112080B
:1019F300005BAB011208007AAB011208002DAC01A9
:101A03001208008AAC0112080094AC011208009E6F
:101A1300AC01120800EAAC0112080032AD01120851
:101A23000036AE01120800CFAE0112080096AF01D6
:101A3300120800C0B001120800EBB101120800E166
:101A4300B201120800F9B2011208002DB301120805
:101A5300004BB30112080093B301120800CCB30189
:101A630012080083B40112080044B501120800B73C
:101A7300B50112080033B601120800CFB6011208EF
:101A830000F5B701120800B1B80112080051B901FD
:101A93001208003EBA0112080096BA011208005C4F
:101AA300BB011208007FBB0112080094BC0112089D
:101AB30000DFBC011208003BBD01120800A3BD01F9
:101AC300120800C7BD01120800EFBD01120800345F
:101AD300BE0112080058BE01120800DCBE01120844
:101AE30000C5BF011208000AC00112080033C0017B
:101AF300120800D1C0011208003CC101120800689D
:101B0300C10112080049C2011208005975001208E8
:101B130000917500120800B27500120800F47500F8
:101B2300120800587600120800627600120800724C
:101B33007600120800A97600120800527A001208F3
:101B4300001A7C00120800FE7D00120800A07E002F
:101B53001208002A7F001208002F81021208009346
:101B63008102120800F181021208003C820212086D
:101B7300005782021208007E82021208009B820232
:101B8300120800A7820212080038840212080051CA
:101B93008402120800CD8402120800E084021208B5
:101BA30000F08402120800948502120800008702E4
:101BB300120800138802120800B38802120800BD3D
:101BC30088021208003C89021208004D890212089B
:101BD300008C8902120800BA8902120800878A025F
:101BE300120800DE8A02120800178B021208006D29
:101BF3008B021208008B8B02120800D98B02120889
:101C030000A48C02120800F28C021208003F8D021D
:101C1300120800C28D02120800EC8D021208002285
:101C23008E02120800318E02120800908E021208F2
:101C330000088F02120800498F02120800998F02D0
:101C4300120800C48F02120800DE8F02120800F887
:101C53008F02120800CD9002120800D790021208DA
:101C6300001291021208002291021208002B910225
:101C73001208007C9102120800909102120800B22F
:101C83009202120800C99202120800DE92021208A0
:101C930000719302120800E593021208008A94026D
:101CA300120800959402120800F59502120800111B
:101CB30096021208005D9602120800CB96021208E3
:101CC30000FD9602120800179702120800599702A6
:101CD300120800AC9902120800449A02120800BBD1
:101CE3009A02120800189D02120800309D02120881
:101CF30000339D021208003F9D02120800539D020B
:101D03001208005B9D02120800929D0212080086D1
:101D13009E02120800109F02120800929F021208EE
:101D23000012A002120800E9A0021208000BA1028F
:101D3300120800A4A10212080001A2021208000462
:101D4300A20212080031A20212080046A2021208DF
:101D530000B5A20212080001A40212080014A50291
:101D63001208009FA502120800B2A602120800770B
:101D7300A702120800A8A702120800CEA7021208A1
:101D830000D7A70212080006A802120800B6A8028C
:101D930012080066A902120800D9A9021208007CE1
:101DA300AA02120800EFAA021208002EAB021208C0
:101DB3000077AB02120800ACAB021208005C870488
:101DC3001208004C8704120800DBFF02120800FD12
:101DD300FF0112080034870412080029870412083F
:101DE300008B86041208007A860412080068AD038B
:101DF3001208008EAC03120800C4AB0312080033B0
:101E0300AA03120800FCA903120800CEA9031208B2
:101E13000082A903120800EBA8031208005BA803C1
:101E230012080035A803120800EAA703120800B439
:101E3300A70312080037A703120800D2A60312084B
:101E43000081A603120800A9A503120800F7FF02E8
:101E530012080019A503120800F4FF02120800F18A
:101E6300FF02120800EEFF02120800F27F001208C0
:101E730000618504120800CDA40312080048A403DE
:101E830012080003A403120800E7A303120800FBCF
:101E930084041208008FA20312080061A20312082F
:101EA300002EA203120800B2A103120800788404D2
:101EB30012080035C4031208009AF003120800DC6C
:101EC300C303120800A7C30312080072C303120856
:101ED300003EC303120800D1C203120800B9C203B3
:101EE30012080094C2031208006DBF0312080040D9
:101EF300BD0312080047BB03120800D3BA0312083C
:101F03000084BA031208003EBA03120800E0B903C2
:101F1300120800FC870412080081FA020000008006
:101F2300FBE4738F000100E90F870001004B1235BA
:101F330000040011122500020015122600020017EA
:101F430012270002001912280001002312290001A0
:101F53000024128400040025128600010029122A9D
:101F63000001002A122B0001002B122C0001002F6C
:101F7300122D000800CB0F2E00010030122F00019C
:101F830000311230000100321231000100331232ED
:101F9300000100D30F33000100D40F3400010034DB
:101FA3001236000100D50F38000100351239000147
:101FB300002E1283000200491263000100E60F6441
:101FC3000001002C12650001002D126D000100E7D5
:101FD3000F71000800C30F6600010048124300019F
:101FE300003912440002003A12450001003C124637
:101FF3000002003D1247000800DE0F480001003FC9
:10200300124B0001004012040001004C12A1000118
:10201300004F12370001004E12880001004D123CA0
:10202300000100D60F3D00010036124900020041B5
:102033001267000100E80F4D00020043124E000139
:102043000045124F00020046123E000100DD0F5111
:10205300000100D70F52000100371253000100386E
:102063001254000100D80F000000000000000136E8
:102073003601010001020100010301000104010610
:102083000605020000070100340801000F090401DE
:10209300010D0100FF0E08000017020000190100E6
:1020A300FF1A0100011B0100FE1C0100081D0200B4
:1020B300001F010001200100012102000023010093
:1020C3000F24020000260100012701000828020056
:1020D300FF2A0100072B0102402C0100002D010003
:1020E300012E0100012F0100FF30010B1D310800FB
:1020F300003A0100083B01000F3C0100013D0100D3
:10210300FF3E04000042040000460400004A0400AD
:10211300004E04000052040000560400005A04005C
:1021230000000003002001BC81000000002001BE6C
:10213300810000040042019680000005004201383E
:10214300810000060042012680000007002001BF35
:1021530081000010004203E111000011002003CAB6
:102163000E000012002003F211000093A11001A43D
:102173000E000097A11001A50E000094A12303A651
:102183000E000098A12303AA0E000095A12103C30A
:1021930011000096A12101AE0E000099A12101B00A
:1021A3000E030000002103CB0E01037103010301A1
:1021B30003010301030103220302030103100300CC
:1021C30003000300030003000300030003420300B2
:1021D300032403060300030003040312032503235C
:1021E3000325032303040304030003000300034440
:1021F3000300030003230300036503210035038168
:102203000300030503000300030003000325032366
:102213000303027102300160021102700201020223
:102223000202028002100261023A0041006302735B
:10223300027202620243020002130238000002002B
:10224300020402120200020002000200020402045D
:1022530002370037003C024402000239000002004A
:102263000265020002350281020002050282028336
:10227300020002010171010101010111010101319A
:1022830001010101018001100161013B00140063A0
:102293000173017201620143010001130106013D53
:1022A30001350004011201000100010001000104D5
:1022B300010401330133013C0144013201360000C2
:1022C3000100016501000135008101000105018262
:1022D30001830100010300710030016000110070EF
:1022E300003102200350048000100061000000143C
:1022F30000630073007200620043000000130006D5
:1023030000000000000400120000000000000000B4
:102313000004000400370037003C024400000000C2
:10232300000000000065000000350081000000058A
:102333000000008300000036000100060000000FCB
:102343000000000000000000000000000003FFFF89
:1023530000000403FFFF0000FFFF0FF4010005C4AA
:10236300040320000100000B000000000000000037
:1023730003010F0000000000000000000000000047
:10238300000000000000000000000000000000004A
:102393000000000000F7105111FD10191003115730
:1023A300110311631109111910031157110F111999
:1023B30010151119101B11191021111910271119BA
:1023C300102D111910331169113911191000000062
:1023D3000000000000000000003F117B11451119AF
:1023E300103F117B1145111910331169114B11194C
:1023F300100A0000000200000004000000080000B2
:1024030000100000002000000040000000800000D9
:1024130000000100000002000000040000000800AA
:102423000000100000002000000040000007ECFD49
:10243300FDFDECDCDCCCBCACAC9C9C8C7C7C6C6C87
:102443005C5C5C4C4C3C3C2C2C1C1C03EAF5E5D539
:10245300D5C5B5A595958585757565655555454569
:1024630035352525151505010079130200251303BC
:10247300002B13040031130500371306004313FF29
:10248300FF00000A4919021919052B19071F190C16
:1024930001190D0D19FF000000160F00000B150B9D
:1024A300020002220F3300000E01030507090B0D82
:1024B3000F00020406080A0C0D5A6967426565415C
:1024C3006C6C69616E6365303900393D3F373C3C64
:1024D300362C442D00034A49434E181A25050200A1
:1024E300011916181616182303003030171819216E
:1024F300301B1D1F30303016181920231A1C1E30B4
:102503000C0E020B040B0A0708000F020402010160
:1025130001010902E803000000BE040AE8030E00FB
:10252300FF1E110409101E030A040C0408280C05DD
:10253300080304C082C083121EA790101474BBF05A
:10254300A37416F090101674C1F0A37416F09010D3
:102553001874C7F0A37416F090101A74CDF0A37416
:1025630016F0025C7774F71203B1E9FE901008E4E9
:10257300F0EE901007F07CDE7D0F7A097B10120FCE
:10258300F590123FE0901011F090101274C3F0A375
:10259300740FF01216F1024A5774F01203B18A084D
:1025A3008B09EB548070030226F4901007E0F912B4
:1025B3000E758A0A8B0BAE0AAF0BEE4F7003022621
:1025C300EB124E50707EEE241F125196641370026C
:1025D300A3E070708E828F83A3A3E0F50EA3E0F5D2
:1025E3000F901022125680750A00750B00800D1291
:1025F300342B125E4A120EF3AA0CAB0DEA4B604465
:102603008A828B83E0650E7004A3E0650F70288ACD
:10261300828B83A3A3A3A3124E6EE50A450B8A8282
:102623008B83A3A3A3A360C71243AD850A82850B43
:1026330083A3A3A3A380BB8A0A8B0B8A828B8312F7
:10264300567C80B8EE242A125196F9126203901038
:10265300221238C4A3A3A3A3A3A3A3A3E064027079
:10266300378A828B8312568080078C828D83123B3C
:1026730028EC4D60208C828D83E06A7003A3E06BAD
:1026830070E88C828D83A3A3E06970DE90124512FB
:1026930047EAF0804C1217098E828F83E064017041
:1026A30034EE241812274812085912424E1206A477
:1026B300EE241212274812085912424212085512E8
:1026C30032F31206A8EE2417124256121EF5740AAC
:1026D300120832800CE064027007EEFAEFFB121866
:1026E30029EEFAEFFB120E63AA08E5096480FB806A
:1026F30051EA5402600C9012537401F0EA6402FA36
:102703008040EA540460091216F7E508640480293E
:10271300EA540860291217038B0BEA450B701690D5
:102723001024E4F0A3F0A3F0A3F07A08FB901007C1
:10273300E0F9120FBFE5086408FAAB0980047A00D8
:102743007B00023C92124E5AF50A780A2274F41264
:1027530003B18A088B098A828B83125695124142F0
:1027630038F583E02409FA7B00120E5D8A0A8B0B8D
:10277300AE0AAF0BEE4F70030228148E828F837460
:1027830002F0A3E4126587A3A3A3A3E8F0A3E912CD
:102793006227A3A3A3A3A3A3A3F0E5082403F8E458
:1027A30035091259381241423AF5831238BDF0EE19
:1027B3002409FAE43FFB8E828F83A3A3125DD5F530
:1027C300838882E0A2E58E828F83A3A3A3A3A35071
:1027D3000474018001E4F0E5082403F88882898306
:1027E300125680EA1241363BF5831228171208511C
:1027F300EA2410125E708E828F8312567E120E3F71
:102803007403120832EEFAEFFB901007E0F9120E90
:102813006902312BE0F508A3E0F509750A00780891
:102823002274F21203B18A088B09ECFAEDFB740EE1
:10283300120B02E0FC121E538A0C8B0DAE0CAF0D73
:10284300EE4F6030AC08AD09121E83E96026AC0878
:10285300AD09EEFAEFFB121E7DE970148E828F83B1
:102863001243A5FAEFFB121E89AA08AB09121E3503
:102873007900800279B480031208327F0602061FB2
:1028830074EE1203B174F71208E68A0A8B0BECFE9E
:10289300EDFF750CB3750D00750E008002050E90EB
:1028A3002535E493F8E50EC3984003022992AA0E56
:1028B3007B00121E118A088B09EA450960DF8A82B0
:1028C3008B83A3A3A3A3A3E0250DF50DF8C3E50A0A
:1028D30098E50B940050C67C157D007900EEFAEF65
:1028E300FB120E4B850882850983A3A3A3A3A3E050
:1028F300F8E50AC3950D2825E0F8E433F9E508283F
:10290300F582E50939F583123693125E4A1219D915
:102913008A0A8B0BAC0AAD0BEEFAEFFB120FF585AF
:102923000882850983A3E06401700B12424E74018F
:102933001270CAA3803DAC18AD198508828509833E
:1029430012567E121E29E9602D7408120B02E0C094
:10295300E012424ED0E0F07408120B02E064037000
:102963000CAC18AD191238B5120FF5800985188211
:10297300851983125E3E850882850983123C65A30F
:10298300A312655EC0E0123E83D0E0F0750C00A98F
:102993000C74090268F974F71203B1E9FE8A828B99
:1029A30083A3A3A3A3A3A3E0540860338A828B83E6
:1029B300A3A3A3A3A3A3E0540260218A828B83A3CE
:1029C300A3A3A3A3A3A3A3A3E06406600F74E96E68
:1029D300600A74CD6E600574F06E70031216D9022E
:1029E3004A5774E81203B174F81208E67406120B1E
:1029F30002124F24ECFEEDFF8917751500122C5BB4
:102A0300121E418A0A8B0BEA450B7003022C17EE48
:102A13002410123A4AA90A1216198A128B13EA458C
:102A2300137003022C17EE2403F50CE43FF50DEEAF
:102A33002406F508E43FF5097C0085088212419AD3
:102A4300121E3B8A108B11850C82850D83E0851243
:102A530082851383A3A3A31257148512828513833C
:102A6300A3A3A3A3E8F0A3E91232FB851282851383
:102A730083A3A3A3A3A3A3A3124EE1851282851369
:102A830083A3A3A3A3A3A3F0EE1241363F122C6C9E
:102A9300120851EE1241423F125E74851282851371
:102AA30083A3125678120E3F74031208327428124D
:102AB3000B021243ADE5121247DC3513125E487464
:102AC3002A120B02E0C0E0E5121241363513F583FA
:102AD300D0E0F07514007423120B02E0F516742491
:102AE300120B02780C120AB7022B9E8510828511F5
:102AF3008312567E121E23850882850983A3EAF07A
:102B0300A3EB122C7DA3A312623F122C77A2E650F3
:102B13000F850882850983A3A3A3A3A3E0D2E1F0D1
:102B2300E51570668508828509831243AC901058B9
:102B3300E0687003A3E0697051850882850983A367
:102B4300A3A3123A587510007810120859780C1282
:102B5300084DE516F51078101208597426120B0269
:102B63001206A89010651206A879007410120B02C1
:102B730012621F121859740A1208328508828509D5
:102B830083A3A3A3A3A3E04405F074012514FC12BB
:102B93002C5B121E3B8A108B110514E51045116046
:102BA3004EC3E514950AE4950B5044E51475F006FD
:102BB300A4F8A9F0E51228F8E51339F9E8240FF58C
:102BC30008E439F509850882F583E41274F0E064BA
:102BD300016003022AEE7515018508828509837455
:102BE30001122C7D125101A3E8F0A3E9022B05AADF
:102BF30012AB1312161F7812120855AD1674241255
:102C03000B02E0FCA917EEFAEFFB1216D3740212C3
:102C13000832803A8E828F83A3A3A3E0C0E07403BB
:102C2300120B02D0E01232FBC0E07404120B02D08C
:102C3300E0F0E50A450B70097405120B0274B980C4
:102C4300077405120B027410125E85121853740870
:102C53001208327F1002061F8E828F831256848ED3
:102C6300828F83A3A3A3E0F922F583124E72750E1C
:102C730000780C22A3126268E0221274F4A3227477
:102C8300E91203B174F31208E68A0C8B0D89168CD2
:102C9300148D157424120B0212557CAA08FB12160C
:102CA3000DE9F513AA08AB09121613E51370030215
:102CB3002EC8750E00800F8E828F83A3A3A3A3A3B8
:102CC300E0D2E3F0050E123E8DE0F8E50EC3984026
:102CD30003022EBFE5137003022EBFE50E75F00647
:102CE300A4F8A9F0E50828F8E50939F9E8240FFE66
:102CF300E439FF8E828F83A3A3A3A3A3E0A2E040C2
:102D0300C3750F00750A08750B00E5156003750F91
:102D1300207C087D007900AA18AB19120E4B8E8215
:102D23008F83E060379010A8E064017017E50FD23D
:102D3300E3F50F750B108E828F83122EEA12586300
:102D430074FF8028430F0C750A0C8E828F83A312A5
:102D53002EE0A3A3A3A31268EEA38010E5166009D7
:102D6300E50FD2E6F50F750A0A122EEAF074021285
:102D73000B02E50FF0124140350DF583E0C0E0741E
:102D830004120B02D0E0F07405120B02125E8312E0
:102D9300182F740C120B02E06003022EA2740812A7
:102DA3000B021256E28E828F83A3A3A3A3F07408AF
:102DB300120B02124E96E50AF0A3E50BF0124E46F3
:102DC300E514122C7860119010A8E0C0E07408128A
:102DD3000B02124E86D0E0F07408120B02123EADC5
:102DE300A3A3A3122EDB124E3D124F2412695912D4
:102DF3002EDB124E34EAF0A3EB12648BC0E0124ECA
:102E03002AD0E012654FC0E07408120B0212497C0D
:102E1300D0E0126138C0E07408120B02124970D07E
:102E2300E0F07408120B02122EE012495F123033E5
:102E3300122EDB242CF582E439F583124F24E50CA2
:102E43001247BC350DF583E0C0E0124957D0E0F0DE
:102E53007408120B02125680850C82850D83122E84
:102E6300D22428F582E43B125E48E50C1241363544
:102E73000DF5831269097512007810120851124179
:102E830040350D125E74EA1260B53BF5831256802D
:102E9300120E3F7403120832AA18AB191218358E9A
:102EA300828F83A3A3A3A3A3E0D2E0F0740C120B3D
:102EB30002E06003022CBA1513022CC77900AA089A
:102EC300AB091216DF740D1208327F0F02061FA31F
:102ED300A3A3A31243B1EA2212568AE8221243B1F2
:102EE300850C82850D8322A3122EEF22125E0AE83F
:102EF300F0A3E92274EE1203B174E91208E68A081A
:102F03008B09890A8A828B83A3A3A3A3A3A3A3A365
:102F1300E0F91216378A0C8B0DEA450D7003022F68
:102F2300C2125548123B43E50A6003022FC77C04D3
:102F3300850882850983A3A3A3A3A3A3A3A3E0F97D
:102F430012163DEE4F60788E828F83A3A3A31243A4
:102F5300AC7406120B02E8F0A3E912624EF8A3E088
:102F6300F97408120B02124F17C0E07410120B020F
:102F7300D0E01230331243AC740E120B02125E4ACD
:102F83007411120B02E4125705C8241FF582E438AA
:102F9300F583125345C413135403FC70027C048E4F
:102FA300828F83E0F9780C120855742059FD744020
:102FB30059F974021208BE1216D37402120832743D
:102FC300170268F97C08850882850983A3A3A3A354
:102FD300A3A3A3A3E0F912163D8B0FEA450F7003D9
:102FE300022F46EE4F60D8E50AF50B780B1208590D
:102FF300850C82850D83A3A3A3A3A3A3A3E0F50B51
:10300300780B1208598A828B83A3A3A3E0FB8A82DD
:10301300850F83123B2B8A82850F83E0FA8E828F82
:1030230083A3A3E0F9121EFB7402120832022F4A93
:10303300F0850C82850D83A3A3A3A3A3A3A3A3223B
:1030430074F71203B174FA1208E6E9FE7C017D01FC
:103053007F0080037D000F12518BE0F8EFC398507F
:1030630028EF75F006A4F885F008A908EA28F8EB1C
:1030730039F9E82414125B2DA2E050D8540C60D423
:10308300E0A2E250D17C0080CD8A828B83A3A3A3EC
:10309300A3A3A3E0703DEDA2E0400574016E70337D
:1030A3008A828B83A3A3A3A3A3A37401124824E05E
:1030B300C0E07403120B02D0E012481CE0C0E074BD
:1030C30004120B02D0E0F07405120B02EC125E85C1
:1030D3001218537406024A54C082C083790112162F
:1030E300DF025C7774F41203B1EA4B90125360224F
:1030F300E4F08A088B09F50AF50B780812084D7A73
:10310300027B00901007E0F9120FB3740412083227
:10311300800F7401F07A027B00901007E0F9120F20
:10312300BF800574021208327F0402061FC082C0EA
:10313300839011C0E075F005A4FCADF079007AE648
:103143007B05120E4B7A00800A1232D474FEF0A370
:1031530004F00A9011C0E0F8EAC39840EC025C77EF
:10316300C082C0837A007B0080037A010B9011C078
:10317300E0F8EBC3985056EB75F005A4F8ACF0EC0F
:103183001232EB7003A3E0F460E274E628F87405EE
:1031930039F9E82403F850010988828983E024FF80
:1031A300F0A3E034FF12598DF9E84970BDEB75F0D7
:1031B30005A4F8ECF974E628F8740539F9888289CE
:1031C3008374FEF0A30412353BE4F0809FEAA2E08F
:1031D30050179081761206A47A047B00901007E0C2
:1031E300F9120FB37404120832025C7774F71203F6
:1031F300B1EAFEEBFF9011C0E070030232CBEE2484
:103203001112519670030232CB8E828F83A3125612
:1032130078121A51E96402600F8E828F83A3A3A3ED
:10322300A3A3E070030232CB7A0080271232F31299
:103233003B2C1232D4E06C7003A3E06D7014EE24C7
:1032430012125196FC74E828F5827405125B306CF7
:10325300607B0A9011C0E0F8EAC39840CF7A0080FF
:10326300010A9011C0E0F8EAC3985061EA75F005CD
:10327300A4F8ABF0EB1232EB7003A3E0F470E2744A
:10328300E628F874053BF91232F31260E5EAF0A37D
:10329300EB1232FB88828983123534740C124EE1AF
:1032A3007A04FB901007E0F9120FC5EA4B4C4D70FE
:1032B300179081761206A47A047B00901007E0F938
:1032C300120FB374041208327901024A577900804D
:1032D300F9EA75F005A4F8A9F01232E02274E628A1
:1032E300F582740539F58322F91232E0E064FE2297
:1032F300EE1261FB3FF58322F01266D7E02274E8F9
:103303001203B174FC1208E67402120B02E4F0A378
:10331300F0901022123B43851882851983E4F0A3B1
:10332300F0751401901052E0A2E350030233B71278
:103333000FD78A088B098C0A8D0B8A0C8B0D8C0E88
:103343008D0F901024780C1208CE12343278107935
:103353000C120A6950077A017B00023426850C148B
:10336300850D15850E16850F1778147910120342F3
:10337300A814A915901245E0C398E4995003E0807E
:1033830001E8F514123432780C7910120342E4F593
:1033930012F5137808791012095190102478081245
:1033A3000A99801012342B12527CFAEFFB120EF39F
:1033B300AE08AF09EE4F60638E828F83A3A3A3E0B1
:1033C300F8E514C3985029EE2403F582E43FF5830E
:1033D300A814E0C398F060217402120B0212452C6A
:1033E300124EE6EEF0A3EF12613DFEA3E0FF80C4B0
:1033F3008E828F83A3A3A3E4F08E828F83125578EA
:103403008518828519831257008E828F83A3A3A305
:10341300A36091125E02125953808C7402120B0244
:103423001256807404022C531243B190102222903E
:103433001243E0F510A3E0F511E4F512F51322743D
:10344300F21203B18A0A8B0BE9FE7A007B0090101B
:103453002212557C901022125700601E0A850882A2
:10346300850983A3A3A3A3125700600E0AEA700180
:103473000B88088909E8450970E39012461243ADA9
:10348300C3EA98EB9940030235317A067B00120EAA
:10349300ED8A0C8B0DA80CA90DE849700302353198
:1034A30088828983E50AF0A3E50BF0EE888289839D
:1034B300A3A3F0901245125B87A3123534A3E4F063
:1034C300A3F09010221243BD600F85088285098303
:1034D300A3A3A3A3125E4A801F901022125E4A90F8
:1034E3001052E0A2E34011120FD7EAF8EBF9ECFA1D
:1034F300EDFB901024120AD3901052E0A2E3502E59
:103503007A087B00901007E0F9120FC5EA4B4C4D87
:10351300701C901243126F2E780812084D7A087BA4
:1035230000901007E0F9120FB97404120832022850
:103533007EA3A312353BA322125B12A3A322C08254
:10354300C083E9901254F090101C7427F0A37417F1
:10355300F090101E7439F0A37417F0901020744B80
:10356300F0A37417F0025C7774F71203B1EAFEEB71
:10357300FF8908EE4F7003121DCF901028125700D9
:10358300700890102880221243AD88828983A3A3F8
:10359300A3A3A3A3A3A3A31243BD88828983A3A345
:1035A300A3A3A3A3A3A3A370DEEEF0A3EF1235C2DC
:1035B300A3A3A3E4F0A31235C2E508F0024A57120D
:1035C30035C6221235CA22F08E828F83A3A3A3A30A
:1035D300A3A32274F71203B1901028800D8E828F5B
:1035E30083A3A3A3A3A3A3A3A3A3123B43EE4F606D
:1035F300348E828F83A3A3A3A3A3A3A3E06970DD67
:103603008E828F83A3A3A3A3E06A7003A3E06B70EE
:10361300CC8E828F83A3A3A3A3A3A3E06C70BEEE7F
:10362300FAEFFB80047A007B00024A5774F7120317
:10363300B1901028123B43901028122ED6687002C6
:10364300EB69701EE0C82409F582E438F583124360
:10365300AD901028125E4A901028123B4380271227
:103663003B36EE4F60208E828F83A3A3A3A3A312C6
:103673002ED2687002EB6970E68A828B83A3A3A3C0
:10368300123693125E4A120EF3EEFAEFFB024A571A
:10369300A3A3A3A3A3A3123EA1A3A3A3A3A322749F
:1036A300F01203B174FA1208E68A088B098A828B36
:1036B30083A3A3A3A3A3A3A3A3E060336401602F05
:1036C3008A828B83125680121A51E97022850882EE
:1036D300850983A3A3A3A3A3A3A3A3E064037014F3
:1036E30074041208C6AA08AB091217C9E97016793F
:1036F3000202389E8508828509831243AD74041241
:103703000B02125E4A1266CA2434125DBD120EED1C
:103713008A0A8B0BAE0AAF0BEE4F700302389C7C08
:10372300347D007900120E4B74021208BE850882A4
:10373300850983A3A3A3A3A3A3A3A3A3E0F9121EB1
:10374300B37402120B02E0C0E01238ADD0E0F0EE29
:10375300242EF50AE43FF50B7403120B02E0850AED
:1037630082850B83F07901EEFAEFFB1217158508BA
:103773000C85090D750E00780C1208517C1E7D0016
:103783001238B5120E3F7403120832EE2432123C83
:103793005B2434F8E43FF98A828B83125E4AE5089E
:1037A3002411F8E43509F9E8FCE9FD8C828D8312D4
:1037B3004EA22430125E44123C531271E712085198
:1037C3008C828D831238C4125680120E3F740312FA
:1037D30008327404120B02123E9D125E4A901008C6
:1037E3001238BDA3A3A3F0901008E004F0120FD782
:1037F3008E828F83124EDA242C12416F750D008551
:103803000A82850B83E0780C1209FF8A828B83E599
:103813000CF01238A3E50C124EE6E4F0E50824158B
:103823001266CEA2E074015007120B0274018004E9
:10383300120B02E4F0EE242912556FAA18AB1912E9
:103843001ED1E924FE850882850983F0EE2430F831
:10385300E43FF9E8FCE9FD1238CC120269E88E82F4
:103863008F83A3A3A3A3A3A3A3A3F01238CC120211
:10387300698B09EA4509600F8E828F83A3A3A3A3F3
:10388300A3A3A3A3E004F0EE24201251964408124C
:1038930041BB120E9F7900800279107406023C8F9F
:1038A300EE242BF582E43FF58322EE1260B53FF55B
:1038B3008322EE240BFAE43FFB2212622FA3A3A37D
:1038C30022123B308A828B83228C828D8312510594
:1038D300E0FA7B002274F41203B1EAFEEBFF120F4D
:1038E300D7124F20901239E0F8EE242D125196C3CF
:1038F300984003023A3812417B7013EE242D125183
:103903009604123C80E0C0E01238A3D0E0F0EE242D
:103913002A125196FC7900800109EE242E12519649
:10392300F8E9C3985026750801750900E97808126B
:1039330009FF12417B550860E0E92CFC750801750D
:103943000900E978081209FFE04508F0EE2429127E
:103953003A4AEE2430F582E43FF583EC8AF0A4F88A
:10396300ABF0E42BF9E098F8A3E099F9C3E89AE9FE
:103973009400EE40342429125196F812417B602FB3
:103983001238AD123A58A3E4F0EC704AEE24201238
:1039930051964420124F1BC0E01251B4D0E0F0EE18
:1039A3002432123A4AA3E080521238A474FFF090F2
:1039B3001048E0FA90123C123A4FABF075F064A451
:1039C300FAADF075F064EBA42DFB8E828F83A3A375
:1039D300EAF0A3EB80B2EE242012519654DF125189
:1039E300AFECF0FAEE2429F582E43FF583123A4F67
:1039F300FAABF0EE124E243F124191FB126533EA0B
:103A0300F0A3EB126257C0E0EE2425F582E43FF504
:103A130083D0E0124EB2E8124EE190102A12570002
:103A2300600BECF91270FF121F24E970171238B5FE
:103A330012179F800F7BE9123C71121F01EEFAEF00
:103A4300FB12172102312B124E5AFA22E0F508EA33
:103A53008508F0A42212622FA3F02274F41203B19A
:103A6300901028123B43120FD78A0A8B0B78FF79E9
:103A7300FF8020E0C39AFCA3E09BFDC3EC98ED9983
:103A8300500E8E828F83A3A3E0C39AF8A3E09BF921
:103A9300123B36EE4F605C8E828F83125680E50AAE
:103AA300C39AFAE50B9BFB8E828F83123B2AC3EAF0
:103AB3009CEB9D8E828F83A3A340B8A3A3A3A3E013
:103AC3006402701AEE240B12417E600912415612F1
:103AD3005680120E63EEFAEFFB1217218007EEFAFF
:103AE300EFFB12172D7A017B00901254E0F9120EAE
:103AF3009F802974FF68700374FF69601F880889B9
:103B030009E4F50AF50B780812084D7A017B009059
:103B13001254E0F9120FB3740412083202312BA3CA
:103B2300A3A3A3A3A3A3A3A3A3123B3022E0FCA3B9
:103B3300E0FD228E828F83A3A3A3A3A3A3A3A3A3A6
:103B4300E0FEA3E0FF2274F01203B18A088B09ECB4
:103B5300FAEDFB890A7C011266CAF912171B8A0C5B
:103B63008B0DAE0CAF0DEE4F7003023C51E50A60B6
:103B730003023C51123C53123C69686003023C51FE
:103B8300123C53E0FAEE242E125196F8EA28FAE496
:103B93003400FB8E828F83A3A3A3A3A3A3A3A3E0D9
:103BA300F8EA98EB9400C365D033401CE50824146D
:103BB3001266CEF470127B00123C71121F01EEFAF2
:103BC300EFFB121721023C51E50824141266CEF4D0
:103BD3007041EE242B123C5B242EF8E43FF9E8FC01
:103BE300E9FD7508FF7509008C828D83E078081262
:103BF30009FF8A828B83E508123C80E508F08C82FA
:103C03008D83123C6928F0EE242DF582E43FF58381
:103C1300E4801BE5082414F8E43509F9E0C0E01258
:103C23003C85D0E0125989C0E01238A3D0E0F012ED
:103C33000FD78E828F83124EDA1238AE123C65A3F1
:103C4300124EE17A01FB901254E0F9120E9F803F6D
:103C5300E5082413123E9522F8E43FF9E8FAE9FB5C
:103C6300EE2212622F22E0F8EE125B18E022EE241D
:103C730022124E5AFAEE2414124E5AF922F0123C32
:103C83008522EE242CF582E43FF583221208327F4D
:103C93000802061F74EC1203B174FE1208E68A0AC6
:103CA3008B0B8C0E8D0F89108A828B83A3A3E0F973
:103CB300121EDD8A088B09AE08AF09EE4F70077A32
:103CC300007B00023E797A127B00120EED8A088B8C
:103CD30009EA45097003023E757C127D00790012E2
:103CE3000E4BAA18AB19850A82850B83A3A3E0F9AF
:103CF300121EB3E508240FF50CE43509F50D740124
:103D0300120B02E0850C82850D83F07902AA08ABC1
:103D130009121715850E82850F83123EAD123EBB25
:103D230012412F126236F07512FF751300850C8253
:103D3300850D83E078121209FF126959E5121249C1
:103D4300881270FDE0C0E0123E8DD0E0F012414CCD
:103D5300F50CE508240D12695DE50CF0E50A124146
:103D63005E850CF0A4A9F02427FAE439FB120E5D5A
:103D73008A0C8B0DAE0CAF0DE50812644BEEF0A36D
:103D8300EFF0EE4F7003023E688E828F83741A1237
:103D93004EE18E828F83A3A3F0A3123EC1123E9DF8
:103DA300125E4AAC0EAD0F12653D121EBF850A822C
:103DB300850B83A3A3A3E0C0E0125337D0E0F090B8
:103DC3001065124EA22410123EB5124E90350B12FE
:103DD3004EA0125E67E8F0A3E9123EC1A3A3A3A31A
:103DE300124EA22412125E44850A82850B83A3A37A
:103DF300E0C0E0123E83D0E0F0E50A1247DC124156
:103E03006AE0C0E01261EED0E0F07416120B021209
:103E13006465C0E01266B8D0E0126249C0E0126483
:103E230051D0E012646EC0E012645BD0E0124EA782
:103E3300E510F07418120B02120ADFEE241AF58251
:103E4300E43FF583120AD3EE2427F8E43FF9EE2486
:103E530022123EB5125DB512416AE0C0E01265451B
:103E6300D0E0F0800DAA08AB091217217508007580
:103E73000900AA08AB0974021208327F0C02061F5C
:103E8300EE2414F582E43FF58322123E9122E508E5
:103E9300240BF582E43509F58322123EA122126533
:103EA300E78E828F83A3A3A3A322125105A3A3A307
:103EB300A322F582E43FF583124F11E50A22F08530
:103EC3000A82850B83A3A3A3A3A3A32274ED1203E6
:103ED300B18A0A8B0B8C108D118912750900EA12B5
:103EE300415EF50890102A125700600EA90812705F
:103EF300FF121F24E9600302412A7C028510828598
:103F03001183125680E50A12412FE0F912171B8A1A
:103F13000C8B0DAE0CAF0DEE4F7054850A82850BE2
:103F230083A3E0A2E0400302412A7415120B02129C
:103F330006A47417120B021206A8A912AC10AD1135
:103F4300AA0AAB0B12173F74061208328A0C8B0DA8
:103F5300AE0CAF0DEE4F700302412A8E828F83A306
:103F6300A3A3A3A3A3A3A3E5081241BB120E9FA877
:103F7300088E828F83A3A3A3A3A3A3A3A3E024FFF9
:103F8300FAE434FFFBEA684B7003750901EE240B76
:103F930012417E70030240DF850A82850B83A3E012
:103FA300A2E050037508001241A8E5089AE49BC3F8
:103FB30065D033401CE0F8EE240E12519628F075BC
:103FC3000CFF750D00E8780C1209FF125CA9E50CD3
:103FD300F0E50A124136350B122C6C120851E50A32
:103FE300124142350B125E74EE240D125196F50CFC
:103FF300E508850CF0A4FAABF0124156125698244A
:1040030022F582E438124191FB120E3F7403120829
:1040130032750C01124183780C1209FF125193453A
:104023000CF0E509A2E05063EE240C12416F12413B
:104033008304780C1209FF8A828B83E0450C124EAD
:10404300C585080C850CF0A4F8A9F012414CFCE8D6
:104053002CFCE439FD1241561256982420F582E4D3
:1040630038F583ECF0A3ED124EF2F4701EEE240B40
:10407300F50CE43FF50DEE1241423F12419A120E48
:1040830069850C82850D8374FF8050120FD7124F00
:1040930020901048E0FA90123CE0F50CEA850CF011
:1040A300A4FAABF0F8EBF9901239E0F50CE8850CC3
:1040B300F0A4F8ACF0850CF0E9A42CF9EA28F8EBAD
:1040C30039F9E875F064A4F8AAF075F064E9A42A54
:1040D300F98E828F83A3A3E8F0A3E9F0A808124125
:1040E300A8EA24FF1AEB34FFFBEA687001EB600EC9
:1040F300EE240C12417E6006E509A2E05029E50A90
:10410300124163ECF0125193C0E0E50A2414F582E6
:10411300E412416AD0E0F0AC0AAD0B851082851140
:104123008312568012178D7F0B02061F1247BC1293
:10413300416A2212413A22240EF582E422E50C124E
:104143004146222410F582E422E50A124146124137
:104153006AE022EE1241463FF58322124163E022D8
:104163001247B612416A22350BF58322F8E43FF970
:10417300E8FAE9FB750CFF22EE242B124E5AF422C7
:10418300750D00124E57F5F0E50884E5F022F5832E
:10419300E02AFAA3E03B22F58312568A850C828536
:1041A3000D83E0F922EE240E124E5AFC124E57FAFA
:1041B300EC2AFAE43400FB22F07A017B00901254DB
:1041C300E0F922C082C083901254E0F9120E690212
:1041D3005C7774F41203B18A088B09EB5480703B4B
:1041E300EAA2E05053121733E5086401FAAB0980E1
:1041F3004B8E828F83E06401701A12424E1206A422
:10420300124242120855EE241212425612174574F6
:1042130006120832EEFAEFFB120E63901254E0F925
:10422300120E758A0A8B0BAE0AAF0BEE4F70C2AA41
:1042330008E5096480FB80047A007B0002312BEEE1
:10424300240FF50AE43FF50B780A22EE1247B63F36
:10425300F58322124E5AF9EE2402FCE43FFDEE24CC
:1042630019FAE43FFB2274F11203B1890A8A088B1D
:10427300098A828B8312568012175D8B0DEA450DD6
:10428300600579B8024311121769E9F8902528E40B
:1042930093F9E8C399400479B280737A157B0012CD
:1042A3000EED8A0C8B0DAE0CAF0DEE4F7004791032
:1042B300805C8E828F83E4F0A3126263A3E50A120B
:1042C300647E1208517C127D00EE2403FAE43FFB66
:1042D300120E3F740312083290102C1257009010E4
:1042E3002C7006EEF0A3EF801FE0FAA3E08003E852
:1042F300FAE9FB8A828B8312570070F3EEF8EFF929
:104303008A828B83E8F0A3E9F012177B79000258C5
:104313006EC082C08390102C80048C828D83123BEC
:104323002CEC4D60288C828D83A3A3E06960057417
:10433300FF6970E68C828D83A3A3A3E06A7003A355
:10434300E06B70D6EC2403FAE43DFB80047A007B37
:1043530000025C7774F71203B1E9FD74FE6D70041B
:104363007C0180027C0090102C80096D70027C011E
:1043730088828983125700601F88828983A3A3A33D
:10438300E06A7003A3E06B70E7ECA2E088828983A4
:10439300A3A3E050D6F9800279FE024A57EEF90250
:1043A3004856A3A3125580EE22A31243B1221265ED
:1043B300E7221208327F0302061F12568AEA4B22B3
:1043C300C082C083790090102C8001091256808A24
:1043D300828B83E582458370F2025C7774F6120365
:1043E300B1E4F508F5097808120855902528E493F7
:1043F30075F013A4A9F0124521120F657402120877
:1044030032E9FE60031217750243A074F61203B17A
:1044130074FE1208E6851882851983E4F0A3F0A8D8
:1044230018A91988088909780812085575080275AA
:10443300090078081208557C007D007A427B00123F
:104443000F71740412083202485174F51203B174E7
:10445300EB1208E6851882851983E4F0A3F0901027
:104463002CE0FEA3E0807E8E828F83A3A3E0C0E0D6
:104473007402120B02D0E0125863A982AA8389083E
:104483008A09750A0078081208517C127D007406A7
:10449300120B02AA82AB83120E3F7403120832740A
:1044A300021208B688088909780812085575081396
:1044B30075090078081208557404120B0212558C02
:1044C30075F013A4F8AAF075F013E912451D120F45
:1044D30071740412083285188285198312452C12CF
:1044E30065DCE8FEE9FFEE4F600302446AA818A901
:1044F3001988088909780812085575080275090092
:1045030078081208557C007D007A427B00120F71F7
:10451300740412083274150243B5A42AF9E824027C
:10452300FCE439FD7A427B0022E02401F0A3E0346D
:10453300002274F41203B174EB1208E67E007F00CC
:10454300A818A91988088909780812085575080256
:104553008E0978081208557C007D007A427B001290
:104563000F777404120832E9706E8E088058740253
:104573001208B6880A890B780A120855750A13754A
:104583000B00780A120855E50875F013A4F8AAF091
:1045930075F013E50912451D120F777404120832E2
:1045A300E9701B7403120B02AA82AB837402120B11
:1045B30002E0F9121757E970050EEE70010F0508B6
:1045C300E508700205098518828519831243ADC376
:1045D300E50898E509994096EEFAEFFB7415023168
:1045E3002874F61203B18C828D83A3A3124812F0B0
:1045F300EA2417F582E43BF583E0C0E01247E2D0FA
:10460300E0F01247C21243AD1247CC124812A3F096
:10461300A3F0EA241FF582E43BF583123B43EC123B
:104623004E903DF583EEF0A3EFF0EA125CA33BF569
:10463300831247F3A3A3A3A3A3A3EEF0A3EF1259FB
:1046430089FE8C828D8312483C74035EFEC39403FF
:1046530040030247A9EE600574026E70798C828D67
:1046630083E0540CFE740C6E7003024716E0A2E460
:10467300400D88828983E08C828D83A31248447421
:10468300086E60030247161247D47401F08A828BC6
:1046930083A3A3A3A3A312585D70148C828D83E01C
:1046A300440C12481CA3A31247F3EEF0A3EFF08CC3
:1046B300828D83E0A2E4401E12480112482D50016E
:1046C30009124801A3A312482D5001098882898346
:1046D3001247EA12483C88828983E0C0E0EC124723
:1046E300BC3DF583D0E012483C8C828D83E0A2E789
:1046F300507888828983E0FE8C828D8312484474CB
:10470300FC5E700C8C828D83A3E054036403701BE6
:104713000247A91247D4E4F0740C6E60030246907A
:1047230012480112482F50870980848C828D83A3FD
:10473300E05403603888828983E0C0E0EC1247B616
:104743003DF583D0E01248458C828D83E0540364A9
:1047530002701A88828983E0C0E0EC2414F582E4B5
:104763003DF583D0E01248458003A3E4F0EC124109
:10477300363D125E48EC2410FEE43DFF1247C2E0D2
:10478300F5088E828F83E0C3982508F508F0EA24A4
:1047930017125DF8C39508C0E01247CCD0E0125958
:1047A30089C39508500A1247CCE4F01247E2E4F0BB
:1047B3000248562413F582E4222411F582E422EA06
:1047C300241DF582E43BF58322EC125CA33DF583C3
:1047D30022EC1247DC3DF58322240CF582E422EC23
:1047E3001241463DF58322E08C828D83A3A3A3224D
:1047F300E0FEA3E0FF8C828D83A3A3A3A322888280
:104803008983E0F508A3E0FFE5088C828D8322E429
:10481300F08C828D83A3A3A322124824A3A3A3A372
:1048230022F08A828B83A3A3A322A3A3A3A3A3A37C
:10483300F0A3EFF0E82402F82212484CA882A983DF
:1048430022A312484C08A98322125B12A3227402EA
:104853001208327F0202061F74F41203B174F312BA
:1048630008E68A0A8B0BECFEEDFF8E828F83E05401
:104873000CF508E0A2E75006E508D2E7F508E508DD
:10488300D2E1F50812585D7006E508D2E4F508E0B8
:10489300A2E55006E508D2E5F5087C087D0079001D
:1048A300AA18AB19120E4B7402120B02E508124937
:1048B30088C0E07403120B02D0E0124EE6E50AF062
:1048C300A3E50BF07405120B02125E8312182F740A
:1048D3000C120B02E070787408120B021256981235
:1048E3005DB53812626EC0E07408120B0212497C87
:1048F300D0E0126138C0E07408120B02124970D084
:10490300E0F07408120B02125E7B12495F124F1B18
:10491300124ECD2411125196C0E0124957D0E0F047
:10492300EE2414125196C0E07408120B021256982A
:104933002435F582E438F583D0E0124EBDC0E0742F
:1049430008120B02124E7AD0E0125E8512183574EB
:104953000D023128E8124E2439F58322125684E8D9
:10496300242AF582E439F583EAF0A3EB2212612EBF
:104973002427F582E438F5832212612E2426F5825A
:10498300E438F58322126263E02274F71203B17EE6
:10499300008A828B83A3A3A3A3A3A3A3A3A3E064FB
:1049A300046003024A39125719E06003024A3912BC
:1049B3004A3D3B1256FE607E88828983E054037031
:1049C30075E8240C125B2DFA8C828D83A3A3E0FB84
:1049D300A3E0CB1247BC3BF583E06A705988828918
:1049E30083A3A3A3A3A3124A48E06A7003A3E06BC3
:1049F300704488828983124A48A3A3125B42240627
:104A03001251966A7003A3E06B702B88828983A38B
:104A1300A3E0F88C828D83A3A3E0F9A3E0F5838957
:104A230082A3A3E068600D8C828D83125343540CE0
:104A3300640470027E01EEF9801AEA124A422224CB
:104A43000FF582E422A3A3A3A312568A8C828D833B
:104A5300221208327F0102061F74F61203B174FC9E
:104A63001208E6EAFEEBFFECFAEDFB8A828B83A3E6
:104A7300E05403601690101E12570060597900EE3F
:104A8300FCEFFD1270FF121F24804B8518828519DD
:104A930083EEF0A3EFF07402120B02124F24AC1852
:104AA300AD197A937B1712198B8A088B09A808A969
:104AB30009E849602188828983A3A3A3A3A3A3A3AD
:104AC300A3A37406F07A0088828983125698126031
:104AD300C4E0F91218F5740402485374F21203B1D6
:104AE30074F31208E6EAFEEBFF8E828F83A3A3A37F
:104AF300A3A3A3A3A3A3A3E0F50A901253E0700515
:104B030079BA024E1F750801750900750C00750D01
:104B1300007C087D007900AA18AB19120E4B7405AE
:104B2300120B027401124EF9540460127402120B38
:104B330002E0D2E6124EF954087003750803E054FC
:104B430010600674404508F508E0540860227402BA
:104B5300120B02E044C0124EF95420600A7403128F
:104B63000B02E0D2E080087403120B02E0D2E1F002
:104B7300EE2415125196124E627003740169700689
:104B830074084508F5088E828F83A3A3A3A3A3A368
:104B9300A3A3E070161219DF851882851983124FBB
:104BA300247402120B02E0D2E2802C640F701074A2
:104BB30002120B02124F0174044508F508807B8E24
:104BC300828F83A3A3A3A3A3A3A3A3E064028E82E0
:104BD3008F837006122EEBF08060A3A3A3A3A3A37D
:104BE300A3A3E06403700DAC18AD19EEFAEFFB124A
:104BF30017C980468E828F83A3A3A3A3A3A3A3A3D2
:104C0300E0640170359010A8E060107402120B028A
:104C1300124F01750910750AFF80187402120B02F6
:104C2300E0440C124EE674FDF0A374FFF0740445E7
:104C330008F5088E828F83124E6EEE24151251965C
:104C4300A2E0503F7402120B02E0540C701B8E82E0
:104C53008F83125680121415E9700579BB024E1F1B
:104C63007402120B02E0D2E5F0EE2415125196A263
:104C7300E050107402120B02E0540C64047004E060
:104C8300D2E5F0EE2411125196C0E07404120B0227
:104C9300D0E0125E8512182F740C120B02E0600331
:104CA300024E187408120B02124E96E508F0A3E5A3
:104CB30009F0EE2418125196C0E0124E46D0E012CD
:104CC3004EA7E0C0E07408120B021256981247B6C2
:104CD30038F583D0E0124F1B640170119010A8E0E7
:104CE300C0E07408120B02124E86D0E0F074081272
:104CF3000B02124EA22417123A4AE8124E3DEA1250
:104D03004EE1EE2415FAE43FFB8A828B83123B2C9F
:104D1300E8124E34ECF0A3ED124EB2E0C0E0124EB6
:104D23002AD0E0124EF2124E6270037401697013BE
:104D33007408120B021256E2FAEE241D125196F970
:104D43001216438E828F83A3A3A3A3A3A3A3A3A318
:104D5300E0C0E07408120B0212497CD0E0F0740842
:104D6300120B02124970E50AF07408120B02125575
:104D73008C2428F582E439F583E50CF0A3E50D12C4
:104D83004EC5FAA3E0FBE8242A124ED4240F125195
:104D930096124ECD2417125196C0E0E82433F582C3
:104DA300E439F583D0E0F0124E50C0E07408120BE2
:104DB30002124E7AD0E0F0EE241A125196C0E0743B
:104DC30008120B02125698124E2438F583D0E012C3
:104DD3004EBD122818120851126443123B2C740B57
:104DE300120B0212620BFAA3E0FB120E3F740312C2
:104DF3000832EE2415125196544060129010381266
:104E03005700600AAA18AB191270FF121F24AA18C0
:104E1300AB19121835740C120B02E0F9740D022849
:104E23007B2432F582E422E82420F582E439F583F9
:104E330022241EF582E439F58322241CF582E43909
:104E4300F58322E82412F582E439F58322EE241B4C
:104E5300124E5A22EE240FF582E43FF583E02254EA
:104E630080F8A3E05401F974806822124E7222E0A4
:104E7300F50CA3E0F50D2212612E2434F582E438FB
:104E8300F5832212612E124E9038F583222415F5F4
:104E930082E422125590124A4239F58322F5831295
:104EA30043B1EE22F0EE2419F582E43FF58322F0BC
:104EB300EE241CF582E43FF58322F0EE2413124E18
:104EC3005A22F0EE240D124E5A22FAA3E0FBE824F4
:104ED3002CF582E439F583EAF0A3EBF0EE22F0A39C
:104EE300E4F022124EEA22F085188285198322F01B
:104EF3008A828B83E022F0EE2415124E5A22E0D2EE
:104F0300E31265E0124F0B22851882851983E8F0BE
:104F1300A3E9F022E8F0A3E9126118E0228E828F60
:104F230083EAF0A3EBF02274F71203B17E638A8263
:104F33008B83E0600C79051218BFE9F87456C398A7
:104F4300FE901050E0600CF91218BFE9F8EEC39818
:104F530024F2FE024A3974F61203B174FE1208E613
:104F6300851882851983124F24E9FEECFAEDFB9034
:104F730003041257006035A818A91988088909780D
:104F8300081208557D01740E120B02E0FCEEF99035
:104F930003041260E0121F2474021208328B09EA20
:104FA300450960047900800679B2800279B6024827
:104FB3005174F71203B1E9FE901014125700601FE9
:104FC3007409120B02E0F5087808120859EEF990FB
:104FD30010141260E0121F24740112083280027947
:104FE300B6024A5774F71203B18908ECFEEDFF7954
:104FF300B5E508245E601F14600624F86033803C26
:105003009003061243BD60349003061260E0121F42
:1050130024124F208024901016123B2CEC4D601C60
:10502300EEFCEFFD9010161260E0121F24E9F980E8
:105033000B90101212621F120FF57900024A577477
:10504300F71203B1E9FE79B574AB6E700B901012D1
:10505300125680120FF57900024A5774F21203B107
:105063008A088B09ECFEEDFF750A01901058E06584
:10507300087004A3E0650970141219D98A088B0912
:10508300AC08AD09EEFAEFFB120FF5802A1219E511
:105093008A0C8B0DE508650C7004E509650D700934
:1050A300EEFAEFFB1219EB800EEEFCEFFDAA08AB54
:1050B30009121535E9F50AA90A02287E74F21203CA
:1050C300B1EAFEEBFF8C088D09750A011219D98A22
:1050D3000C8B0DAC0CAD0DEEFAEFFB120FEFE96488
:1050E30001700B901058125101125E4A800EAC08E9
:1050F300AD09EEFAEFFB12153BE9F50A80B912513F
:1051030005221265E78508828509832274F6120356
:10511300B1EAFEEBFF7A0D7B00120EEDEA4B606500
:10512300EE2424126607F0EE2425126607A312511B
:10513300AF12660DA3A312647312519AF0EE242AE0
:105143001251A3125278242C1251A3125276242EF8
:10515300F582E43FF58312519AA3A3A3A3A3F0EE30
:105163002433125196C0E012518BD0E012627212B6
:1051730051A6A3A3A31252762432125196C0E01271
:105183005719D0E0F0024856EA1261FB3BF583223F
:10519300EE240C124E5A22E08A828B83A3A3A3220D
:1051A300124E5AF8A3E0F98A828B8322F01251B48B
:1051B30022EE2426F582E43FF5832274F41203B130
:1051C30074FE1208E6ECFEEDFFEE2416125196640F
:1051D300057010EE2406FCE43FFD1217C3E97003CB
:1051E30002526BAC18AD1912653D12141B8518825F
:1051F300851983125700606C8E828F83E06401707F
:1052030059E875F009A4F8AAF075F009E9A42AF998
:10521300749A28F874FD39F9E8FAE9FB8A828B83DA
:105223007808120AB7EE125270120A7940288518CC
:1052330082851983124EA212533812527C12527075
:10524300120AB79081AE78081209A08A828B8378FC
:1052530008120A99800A79A28010EE240F125E4484
:105263007900800679A1800279C80231261266D8B6
:10527300780822A3A3A3A3A3A3124F11EE2274F0D1
:105283001203B18A088B09ECFEEDFF125337E4F0E9
:10529300A3F090815E780C120AB71266D3780C12D1
:1052A3000912700302532FEE240E125196640170FB
:1052B3003678B390104FE0702A901081E06401704B
:1052C30022EE2411125196F91218A78A088B09A805
:1052D30008A909EE240F125E44E8496004780080AF
:1052E3000278A1880A8048E070171217D5E9F50AF9
:1052F300603D8E828F83A3A31253435403700E80A9
:105303002E640270151217D5E9F50A6022EEFCEF40
:10531300FDAA08AB0912143F8008E0640370081269
:1053230017D5E9F50A8008750AA18003750AA3A9B0
:105333000A023C92EE124A423FF583228A828B8311
:10534300A3A3125EB12274F01203B174F51208E63E
:10535300EAFEEBFFEE240AF508E43F850882F583B5
:1053630012557C12555074031208C68E828F831215
:1053730056801217C3E9700302543874011208C629
:1053830074031208BE12141B7401120B021257008D
:105393007003025438E875F009A4F8AAF075F0090F
:1053A300E9A42AF9749628F874FD39F9E8FCE9FDB3
:1053B300126901E4F004120B021243ADE508124A2C
:1053C3003E3509125E488C828D83120ADF12555CCA
:1053D300120AD39081AE7808120AB78C828D837833
:1053E30008120A258C828D837808120AB790814AA5
:1053F300780C120AB77808790C120342E50C450DB4
:10540300450E450F702F7401120B0212558C75F067
:1054130009A4F8AAF075F009E9A42AF9749E28F5FD
:105423008274FD39F5837401F07A007B08900EF7DE
:10543300E0F9120E9F125564E02406FCA3E0340049
:10544300FD8E828F831256801217C38508828509C9
:10545300831256F570521256B6120FEFE9701D12F1
:1054630019D98A088B09AC08AD099010121256801D
:10547300120FEFE97006121847E9602C8E828F83B2
:10548300123B228E828F83125680121445E96013D9
:105493008E828F83A3A3125690124A3E38F583E47B
:1054A300F0A3F012596CE4F01256E760030255437F
:1054B3008E828F83A3A3A3A3A3A312557890104F27
:1054C300E07072901081E06401706A750A3A750B9E
:1054D30000780A12085574021208B6880A890B78F4
:1054E3000A1208557C017D007A007B00121AFF74B2
:1054F30004120832E9703B1269017401124EE6E0AE
:10550300C0E0E508241112695DD0E0F0125548743B
:105513003A124EE190103A120ADF12555C120AD386
:105523009081AE7808120AB790103A7808120A25CB
:1055330080031255501256E77006125CA974A1F04D
:10554300740B023C8FE508240F123E9522E50824D4
:105553000F123E95E4F0A3F022E5082412123E95C3
:1055630022EE240A12556F8882F58322F8E43FF96C
:105573008808890922A3A3A3A312558022E0F50872
:10558300A3E0F509228C828D83125590221265E7E0
:10559300E82274F61203B1EAFEEBFFEE240A125579
:1055A3006F7A187B00120EED850882850983EAF075
:1055B300A3EB125714E8497003025656EEFAEFFBB9
:1055C3001217E11256E760741256D464018E828F6B
:1055D30083A3A3A3A3A3A370071256A6740E8020CC
:1055E300125700700F1256B6120FEFE97006121819
:1055F30047E9600712569C740D800512569C74058A
:1056030012627254036401700712565D7405800BB5
:10561300901050E0C0E012565DD0E0125705F583BC
:105623008882A3E0F91218BF850882850983125680
:10563300982417F582E438F583E9801A8508828572
:105643000983125680120EF3850882850983E4F0DC
:10565300A380031260CBF00248568E828F83A3A3EC
:10566300A3A3A3A3A3A312566D22A3A3125EB6A35F
:10567300228E828F83A3A3A3A3A3A3A3A312568AD9
:1056830022A3A3A3A3A3A3E0FAA3E0FB22A3A3A3C0
:10569300A3A3A3A3A312612E228E828F83A3A3A30A
:1056A300A3A3A3A3A3A3A312612E2416F582E43814
:1056B300F58322901012123B308E828F83A3A3A313
:1056C300A3A3A3A3A3A3A3E02406FAA3E03400FBAC
:1056D300228E828F83A3A3A3A3A3A3A3A3A3A31213
:1056E300597EE0228E828F83A3A3A3A3A3A3A3A3A4
:1056F300A3A312612E240FF582E438F5831255908B
:1057030049221257092212570D221266E5F8A3E027
:1057130022125709F922EA1247DC3BF5832274F17E
:105723001203B18A0A8B0B8C088D097A187B00123D
:105733000EED8A0C8B0DAE0CAF0DEE4F70030258BD
:10574300561219DF8A0C8B0DA80CA90DE508241538
:105753001266CE687003A3E0698E828F837004742F
:105763000280027401F0E508240DF8E43509F98894
:10577300828983E0FAC3E49AFA95E0FBE5081241D3
:10578300363509124191FB8E828F83A3A3A3A31203
:105793005DC48E828F83A3A3F0EEFAEFFB12187120
:1057A30085088285098312585D70098E828F83A3D1
:1057B30074058006901050123C65F0EE2417F8E44F
:1057C3003FF9880C890D8E828F83A3E0F91218BFED
:1057D300E9850C82850D83F0EE2416F8E43FF9E5A4
:1057E30008240EFAE43509FB888289831260F9E5FF
:1057F300082410FAE43509FB850C82850D83E0FC4F
:1058030088828983E0F88A828B83E0C398C39CF8FB
:10581300125863F0EEFCEFFDAA0AAB0B1217DBE99B
:10582300F5088E828F83E0640270111219D98A0AF7
:105833008B0BAC0AAD0B12653D120FF5E508700A30
:10584300EEFAEFFB12187DE9F508EEFAEFFB120E04
:10585300F38003750810A9088011E0540364012242
:1058630012586722126268A3A3A3227F0702061FAE
:1058730079010207FD74F41203B1EAFEEBFF8E8295
:105883008F831256902424F582E438F58312585DF1
:10589300702A1256D47025125959E06405701D12EE
:1058A3005959A3E0F874016860057406687007121B
:1058B300596C7402800512596C7403F0125564120A
:1058C30060E0E4F0EE2408F8E43F1259382431F59F
:1058D30082E43AF583E0C0E0125943D0E0125989DB
:1058E300FAA3E0CA242EF582E43AF583E0C0E0127D
:1058F3005943A3D0E012598DC81261F738F58312CA
:105903005101125953125E4A1219D98A0A8B0BACF0
:105913000AAD0B850882850983E02406125DBD125A
:105923000FF585088285098312568012187D12614E
:105933009DF002312BF988828983E0FAA3E0CA2221
:1059430085088285098312594D221260BBA3A322C5
:1059530012594DA3A3228E828F83A3A3A3A3A3A330
:10596300A3A312620F125CB7228E828F83A3A3A319
:10597300A3A3A3A3A3A3A312597E22126133C81224
:10598300413A38F58322125DD022125DD0F8A3E0AC
:1059930022025873C082C08390102E74E7F0A37460
:1059A30017F090103074F3F0A37417F09010327462
:1059B300F9F0A37417F090103474EDF0A37417F09A
:1059C300025C7774F41203B1EA2408FCE43BFD1291
:1059D30055882424125B2DFE74035EF5091261F6CB
:1059E30039124EA088828983F0A3A882A983E5098E
:1059F3006009740265096003025A92740C5EF5082B
:105A030060177408650860117404650870137402E4
:105A130065097005EEA2E4402C125B482427125B53
:105A23008D740C65087018125B3A2428125B72FCA3
:105A3300A3E0CC2428F582E43CF583A3125B9374A2
:105A43000265097005EEA2E44045125B3A242A126E
:105A53005B72FFA3E0CF125B18A3125B93125B3E52
:105A6300242C125BA2242CF582E43CF583A3125B65
:105A730093E508601274086508600C740C6508608F
:105A830006740465087008125B482426125B8D12A5
:105A93005B48125B217015EEA2E14010125B4824B3
:105AA3001EF582E43CF583E054806008125B5A12D1
:105AB3005B35801A901008E0C0E0125B5AD0E0F02A
:105AC300901008125B35901008E004125B12A3A833
:105AD30082A983EEA2E75034125B3A2425125BA21B
:105AE300125B216027125B482434125B8DEEA2E126
:105AF300501A8A828B83A3A3A3A3A3A3A3A312599C
:105B03003D2435F582E43AF583125B3502312BF0FF
:105B13008882898322242AF582E43FF5832224257F
:105B2300F582E43CF583E0540322F582E439F583FE
:105B3300E022125B87F022EA2408FC8C828D83E04A
